{"contracts/core/DEXRouter.sol":{"DEXRouter":{"abi":[{"inputs":[{"internalType":"address","name":"_factory","type":"address"}],"stateMutability":"nonpayable","type":"constructor"},{"anonymous":false,"inputs":[{"indexed":true,"internalType":"address","name":"user","type":"address"},{"indexed":false,"internalType":"address[]","name":"path","type":"address[]"},{"indexed":false,"internalType":"uint256[]","name":"amounts","type":"uint256[]"}],"name":"SwapExecuted","type":"event"},{"inputs":[],"name":"factory","outputs":[{"internalType":"address","name":"","type":"address"}],"stateMutability":"view","type":"function"},{"inputs":[{"internalType":"uint256","name":"amountIn","type":"uint256"},{"internalType":"address[]","name":"path","type":"address[]"},{"internalType":"uint24[]","name":"fees","type":"uint24[]"}],"name":"getAmountsOut","outputs":[{"internalType":"uint256[]","name":"amounts","type":"uint256[]"}],"stateMutability":"view","type":"function"},{"inputs":[{"internalType":"uint256","name":"amountIn","type":"uint256"},{"internalType":"uint256","name":"amountOutMin","type":"uint256"},{"internalType":"address[]","name":"path","type":"address[]"},{"internalType":"uint24[]","name":"fees","type":"uint24[]"},{"internalType":"address","name":"to","type":"address"},{"internalType":"uint256","name":"deadline","type":"uint256"}],"name":"swapExactTokensForTokens","outputs":[{"internalType":"uint256[]","name":"amounts","type":"uint256[]"}],"stateMutability":"nonpayable","type":"function"}],"evm":{"bytecode":{"linkReferences":{},"object":"60a03461007757601f610bb338819003918201601f19168301916001600160401b0383118484101761007c5780849260209460405283398101031261007757516001600160a01b038116810361007757608052604051610b209081610093823960805181818160560152818161012201526104e00152f35b600080fd5b634e487b7160e01b600052604160045260246000fdfe608080604052600436101561001357600080fd5b60003560e01c90816393a2e9ed1461035c575080639f48b4391461008a5763c45a01551461004057600080fd5b34610085576000366003190112610085576040517f00000000000000000000000000000000000000000000000000000000000000006001600160a01b03168152602090f35b600080fd5b3461008557606036600319011261008557602467ffffffffffffffff8135818111610085576100bd9036906004016108aa565b929091604435908111610085576100d89036906004016108aa565b93906100e7600283101561090f565b600191828601808711610347576100ff90821461094a565b610108816109db565b9460043561011587610a0d565b526001600160a01b0360007f00000000000000000000000000000000000000000000000000000000000000008216865b610164575b604051602080825281906101609082018c6108db565b0390f35b60001985018581116103325782101561032d5761018a610185838787610a2e565b610a3e565b918781019283821161031857906101ff8c93926101be6101b9846101b26101858a8e8e610a2e565b978d610a2e565b610a79565b604051630b4c774160e11b81526001600160a01b03928316600482015295909116602486015262ffffff166044850152602093908490829081906064820190565b0381865afa9081156102df578c886102418561023b610185828f8e6102749a8e9a6000916102eb575b501696610236881515610aa8565b610a2e565b93610a1a565b516040516382c0ab2160e01b81526001600160a01b03909316600484015260248301529092839190829081906044820190565b03915afa9081156102df578a946000926102a6575b505061029a6102a09394958d610a1a565b52610a6a565b91610145565b819495508092503d83116102d8575b6102bf818361098b565b810103126100855790518892919061029a6102a0610289565b503d6102b5565b6040513d6000823e3d90fd5b61030b91508b3d8d11610311575b610303818361098b565b810190610a89565b38610228565b503d6102f9565b89634e487b7160e01b60005260116004526000fd5b61014a565b88634e487b7160e01b60005260116004526000fd5b84634e487b7160e01b60005260116004526000fd5b346100855760c03660031901126100855767ffffffffffffffff600435604435828111610085576103919036906004016108aa565b9092606435908111610085576103ab9036906004016108aa565b90949093906084356001600160a01b0381169003610085574260a4351061087e57506103da600283101561090f565b60018401808511610690576103f090831461094a565b6103f9826109db565b928061040485610a0d565b5282156108685760009060209060646001600160a01b0361042486610a3e565b169160405194859384926323b872dd60e01b845233600485015230602485015260448401525af180156102df57610849575b5060005b6000198301838111610690578110156106a65761047b610185828585610a2e565b90600181018111610690576020610499610185600184018787610a2e565b6104a76101b9848a8c610a2e565b604051630b4c774160e11b81526001600160a01b039586166004820152918516602483015262ffffff16604482015292839060649082907f0000000000000000000000000000000000000000000000000000000000000000165afa9182156102df5760009261066f575b506105266001600160a01b0383161515610aa8565b600060206105826001600160a01b03610543610185868a8a610a2e565b1661054e858a610a1a565b5160405163095ea7b360e01b81526001600160a01b0388166004820152602481019190915293849283919082906044820190565b03925af180156102df57610640575b5060206105a2610185838787610a2e565b60646105ae8489610a1a565b51604051639f1d0f5960e01b81526001600160a01b039384166004820152602481019190915260006044820181905290958693849291165af180156102df5760009061060c575b610607925061029a6001830187610a1a565b61045a565b506020823d602011610638575b816106266020938361098b565b810103126100855761060791516105f5565b3d9150610619565b6106619060203d602011610668575b610659818361098b565b810190610a52565b5087610591565b503d61064f565b61068991925060203d60201161031157610303818361098b565b9087610511565b634e487b7160e01b600052601160045260246000fd5b508290815160001990818101908111610690576106c66024359185610a1a565b511061080e57808401848111610690576001600160a01b03906106ee90610185908786610a2e565b1683519182019182116106905761074360209161070d60009487610a1a565b5160405163a9059cbb60e01b81526001600160a01b03608435166004820152602481019190915293849283919082906044820190565b03925af180156102df576107ef575b5060405192806040850160408652526060840191906000905b8082106107c5575050507f4959c33b926e6cdd6625f8fedfbad39ab14bf915b79a8fc964089615191ce627836101609483036020820152806107ae3394866108db565b0390a26040519182916020835260208301906108db565b90919283359060018060a01b0382168092036100855760208160019382935201940192019061076b565b6108079060203d60201161066857610659818361098b565b5083610752565b60405162461bcd60e51b8152602060048201526013602482015272125b9cdd59999a58da595b9d081bdd5d1c1d5d606a1b6044820152606490fd5b6108619060203d60201161066857610659818361098b565b5085610456565b634e487b7160e01b600052603260045260246000fd5b62461bcd60e51b8152602060048201526007602482015266115e1c1a5c995960ca1b6044820152606490fd5b9181601f840112156100855782359167ffffffffffffffff8311610085576020808501948460051b01011161008557565b90815180825260208080930193019160005b8281106108fb575050505090565b8351855293810193928101926001016108ed565b1561091657565b60405162461bcd60e51b815260206004820152600c60248201526b092dcecc2d8d2c840e0c2e8d60a31b6044820152606490fd5b1561095157565b60405162461bcd60e51b81526020600482015260126024820152710a0c2e8d05ecccacae640dad2e6dac2e8c6d60731b6044820152606490fd5b90601f8019910116810190811067ffffffffffffffff8211176109ad57604052565b634e487b7160e01b600052604160045260246000fd5b67ffffffffffffffff81116109ad5760051b60200190565b906109e5826109c3565b6109f2604051918261098b565b8281528092610a03601f19916109c3565b0190602036910137565b8051156108685760200190565b80518210156108685760209160051b010190565b91908110156108685760051b0190565b356001600160a01b03811681036100855790565b90816020910312610085575180151581036100855790565b60001981146106905760010190565b3562ffffff811681036100855790565b9081602091031261008557516001600160a01b03811681036100855790565b15610aaf57565b60405162461bcd60e51b8152602060048201526013602482015272141bdbdb08191bd95cc81b9bdd08195e1a5cdd606a1b6044820152606490fdfea26469706673582212202af6eea2aebe0b30ff1b6734c492728cac1639e6bee3804d3d39250ba22e1eb464736f6c63430008140033","opcodes":"PUSH1 0xA0 CALLVALUE PUSH2 0x77 JUMPI PUSH1 0x1F PUSH2 0xBB3 CODESIZE DUP2 SWAP1 SUB SWAP2 DUP3 ADD PUSH1 0x1F NOT AND DUP4 ADD SWAP2 PUSH1 0x1 PUSH1 0x1 PUSH1 0x40 SHL SUB DUP4 GT DUP5 DUP5 LT OR PUSH2 0x7C JUMPI DUP1 DUP5 SWAP3 PUSH1 0x20 SWAP5 PUSH1 0x40 MSTORE DUP4 CODECOPY DUP2 ADD SUB SLT PUSH2 0x77 JUMPI MLOAD PUSH1 0x1 PUSH1 0x1 PUSH1 0xA0 SHL SUB DUP2 AND DUP2 SUB PUSH2 0x77 JUMPI PUSH1 0x80 MSTORE PUSH1 0x40 MLOAD PUSH2 0xB20 SWAP1 DUP2 PUSH2 0x93 DUP3 CODECOPY PUSH1 0x80 MLOAD DUP2 DUP2 DUP2 PUSH1 0x56 ADD MSTORE DUP2 DUP2 PUSH2 0x122 ADD MSTORE PUSH2 0x4E0 ADD MSTORE RETURN JUMPDEST PUSH1 0x0 DUP1 REVERT JUMPDEST PUSH4 0x4E487B71 PUSH1 0xE0 SHL PUSH1 0x0 MSTORE PUSH1 0x41 PUSH1 0x4 MSTORE PUSH1 0x24 PUSH1 0x0 REVERT INVALID PUSH1 0x80 DUP1 PUSH1 0x40 MSTORE PUSH1 0x4 CALLDATASIZE LT ISZERO PUSH2 0x13 JUMPI PUSH1 0x0 DUP1 REVERT JUMPDEST PUSH1 0x0 CALLDATALOAD PUSH1 0xE0 SHR SWAP1 DUP2 PUSH4 0x93A2E9ED EQ PUSH2 0x35C JUMPI POP DUP1 PUSH4 0x9F48B439 EQ PUSH2 0x8A JUMPI PUSH4 0xC45A0155 EQ PUSH2 0x40 JUMPI PUSH1 0x0 DUP1 REVERT JUMPDEST CALLVALUE PUSH2 0x85 JUMPI PUSH1 0x0 CALLDATASIZE PUSH1 0x3 NOT ADD SLT PUSH2 0x85 JUMPI PUSH1 0x40 MLOAD PUSH32 0x0 PUSH1 0x1 PUSH1 0x1 PUSH1 0xA0 SHL SUB AND DUP2 MSTORE PUSH1 0x20 SWAP1 RETURN JUMPDEST PUSH1 0x0 DUP1 REVERT JUMPDEST CALLVALUE PUSH2 0x85 JUMPI PUSH1 0x60 CALLDATASIZE PUSH1 0x3 NOT ADD SLT PUSH2 0x85 JUMPI PUSH1 0x24 PUSH8 0xFFFFFFFFFFFFFFFF DUP2 CALLDATALOAD DUP2 DUP2 GT PUSH2 0x85 JUMPI PUSH2 0xBD SWAP1 CALLDATASIZE SWAP1 PUSH1 0x4 ADD PUSH2 0x8AA JUMP JUMPDEST SWAP3 SWAP1 SWAP2 PUSH1 0x44 CALLDATALOAD SWAP1 DUP2 GT PUSH2 0x85 JUMPI PUSH2 0xD8 SWAP1 CALLDATASIZE SWAP1 PUSH1 0x4 ADD PUSH2 0x8AA JUMP JUMPDEST SWAP4 SWAP1 PUSH2 0xE7 PUSH1 0x2 DUP4 LT ISZERO PUSH2 0x90F JUMP JUMPDEST PUSH1 0x1 SWAP2 DUP3 DUP7 ADD DUP1 DUP8 GT PUSH2 0x347 JUMPI PUSH2 0xFF SWAP1 DUP3 EQ PUSH2 0x94A JUMP JUMPDEST PUSH2 0x108 DUP2 PUSH2 0x9DB JUMP JUMPDEST SWAP5 PUSH1 0x4 CALLDATALOAD PUSH2 0x115 DUP8 PUSH2 0xA0D JUMP JUMPDEST MSTORE PUSH1 0x1 PUSH1 0x1 PUSH1 0xA0 SHL SUB PUSH1 0x0 PUSH32 0x0 DUP3 AND DUP7 JUMPDEST PUSH2 0x164 JUMPI JUMPDEST PUSH1 0x40 MLOAD PUSH1 0x20 DUP1 DUP3 MSTORE DUP2 SWAP1 PUSH2 0x160 SWAP1 DUP3 ADD DUP13 PUSH2 0x8DB JUMP JUMPDEST SUB SWAP1 RETURN JUMPDEST PUSH1 0x0 NOT DUP6 ADD DUP6 DUP2 GT PUSH2 0x332 JUMPI DUP3 LT ISZERO PUSH2 0x32D JUMPI PUSH2 0x18A PUSH2 0x185 DUP4 DUP8 DUP8 PUSH2 0xA2E JUMP JUMPDEST PUSH2 0xA3E JUMP JUMPDEST SWAP2 DUP8 DUP2 ADD SWAP3 DUP4 DUP3 GT PUSH2 0x318 JUMPI SWAP1 PUSH2 0x1FF DUP13 SWAP4 SWAP3 PUSH2 0x1BE PUSH2 0x1B9 DUP5 PUSH2 0x1B2 PUSH2 0x185 DUP11 DUP15 DUP15 PUSH2 0xA2E JUMP JUMPDEST SWAP8 DUP14 PUSH2 0xA2E JUMP JUMPDEST PUSH2 0xA79 JUMP JUMPDEST PUSH1 0x40 MLOAD PUSH4 0xB4C7741 PUSH1 0xE1 SHL DUP2 MSTORE PUSH1 0x1 PUSH1 0x1 PUSH1 0xA0 SHL SUB SWAP3 DUP4 AND PUSH1 0x4 DUP3 ADD MSTORE SWAP6 SWAP1 SWAP2 AND PUSH1 0x24 DUP7 ADD MSTORE PUSH3 0xFFFFFF AND PUSH1 0x44 DUP6 ADD MSTORE PUSH1 0x20 SWAP4 SWAP1 DUP5 SWAP1 DUP3 SWAP1 DUP2 SWAP1 PUSH1 0x64 DUP3 ADD SWAP1 JUMP JUMPDEST SUB DUP2 DUP7 GAS STATICCALL SWAP1 DUP2 ISZERO PUSH2 0x2DF JUMPI DUP13 DUP9 PUSH2 0x241 DUP6 PUSH2 0x23B PUSH2 0x185 DUP3 DUP16 DUP15 PUSH2 0x274 SWAP11 DUP15 SWAP11 PUSH1 0x0 SWAP2 PUSH2 0x2EB JUMPI JUMPDEST POP AND SWAP7 PUSH2 0x236 DUP9 ISZERO ISZERO PUSH2 0xAA8 JUMP JUMPDEST PUSH2 0xA2E JUMP JUMPDEST SWAP4 PUSH2 0xA1A JUMP JUMPDEST MLOAD PUSH1 0x40 MLOAD PUSH4 0x82C0AB21 PUSH1 0xE0 SHL DUP2 MSTORE PUSH1 0x1 PUSH1 0x1 PUSH1 0xA0 SHL SUB SWAP1 SWAP4 AND PUSH1 0x4 DUP5 ADD MSTORE PUSH1 0x24 DUP4 ADD MSTORE SWAP1 SWAP3 DUP4 SWAP2 SWAP1 DUP3 SWAP1 DUP2 SWAP1 PUSH1 0x44 DUP3 ADD SWAP1 JUMP JUMPDEST SUB SWAP2 GAS STATICCALL SWAP1 DUP2 ISZERO PUSH2 0x2DF JUMPI DUP11 SWAP5 PUSH1 0x0 SWAP3 PUSH2 0x2A6 JUMPI JUMPDEST POP POP PUSH2 0x29A PUSH2 0x2A0 SWAP4 SWAP5 SWAP6 DUP14 PUSH2 0xA1A JUMP JUMPDEST MSTORE PUSH2 0xA6A JUMP JUMPDEST SWAP2 PUSH2 0x145 JUMP JUMPDEST DUP2 SWAP5 SWAP6 POP DUP1 SWAP3 POP RETURNDATASIZE DUP4 GT PUSH2 0x2D8 JUMPI JUMPDEST PUSH2 0x2BF DUP2 DUP4 PUSH2 0x98B JUMP JUMPDEST DUP2 ADD SUB SLT PUSH2 0x85 JUMPI SWAP1 MLOAD DUP9 SWAP3 SWAP2 SWAP1 PUSH2 0x29A PUSH2 0x2A0 PUSH2 0x289 JUMP JUMPDEST POP RETURNDATASIZE PUSH2 0x2B5 JUMP JUMPDEST PUSH1 0x40 MLOAD RETURNDATASIZE PUSH1 0x0 DUP3 RETURNDATACOPY RETURNDATASIZE SWAP1 REVERT JUMPDEST PUSH2 0x30B SWAP2 POP DUP12 RETURNDATASIZE DUP14 GT PUSH2 0x311 JUMPI JUMPDEST PUSH2 0x303 DUP2 DUP4 PUSH2 0x98B JUMP JUMPDEST DUP2 ADD SWAP1 PUSH2 0xA89 JUMP JUMPDEST CODESIZE PUSH2 0x228 JUMP JUMPDEST POP RETURNDATASIZE PUSH2 0x2F9 JUMP JUMPDEST DUP10 PUSH4 0x4E487B71 PUSH1 0xE0 SHL PUSH1 0x0 MSTORE PUSH1 0x11 PUSH1 0x4 MSTORE PUSH1 0x0 REVERT JUMPDEST PUSH2 0x14A JUMP JUMPDEST DUP9 PUSH4 0x4E487B71 PUSH1 0xE0 SHL PUSH1 0x0 MSTORE PUSH1 0x11 PUSH1 0x4 MSTORE PUSH1 0x0 REVERT JUMPDEST DUP5 PUSH4 0x4E487B71 PUSH1 0xE0 SHL PUSH1 0x0 MSTORE PUSH1 0x11 PUSH1 0x4 MSTORE PUSH1 0x0 REVERT JUMPDEST CALLVALUE PUSH2 0x85 JUMPI PUSH1 0xC0 CALLDATASIZE PUSH1 0x3 NOT ADD SLT PUSH2 0x85 JUMPI PUSH8 0xFFFFFFFFFFFFFFFF PUSH1 0x4 CALLDATALOAD PUSH1 0x44 CALLDATALOAD DUP3 DUP2 GT PUSH2 0x85 JUMPI PUSH2 0x391 SWAP1 CALLDATASIZE SWAP1 PUSH1 0x4 ADD PUSH2 0x8AA JUMP JUMPDEST SWAP1 SWAP3 PUSH1 0x64 CALLDATALOAD SWAP1 DUP2 GT PUSH2 0x85 JUMPI PUSH2 0x3AB SWAP1 CALLDATASIZE SWAP1 PUSH1 0x4 ADD PUSH2 0x8AA JUMP JUMPDEST SWAP1 SWAP5 SWAP1 SWAP4 SWAP1 PUSH1 0x84 CALLDATALOAD PUSH1 0x1 PUSH1 0x1 PUSH1 0xA0 SHL SUB DUP2 AND SWAP1 SUB PUSH2 0x85 JUMPI TIMESTAMP PUSH1 0xA4 CALLDATALOAD LT PUSH2 0x87E JUMPI POP PUSH2 0x3DA PUSH1 0x2 DUP4 LT ISZERO PUSH2 0x90F JUMP JUMPDEST PUSH1 0x1 DUP5 ADD DUP1 DUP6 GT PUSH2 0x690 JUMPI PUSH2 0x3F0 SWAP1 DUP4 EQ PUSH2 0x94A JUMP JUMPDEST PUSH2 0x3F9 DUP3 PUSH2 0x9DB JUMP JUMPDEST SWAP3 DUP1 PUSH2 0x404 DUP6 PUSH2 0xA0D JUMP JUMPDEST MSTORE DUP3 ISZERO PUSH2 0x868 JUMPI PUSH1 0x0 SWAP1 PUSH1 0x20 SWAP1 PUSH1 0x64 PUSH1 0x1 PUSH1 0x1 PUSH1 0xA0 SHL SUB PUSH2 0x424 DUP7 PUSH2 0xA3E JUMP JUMPDEST AND SWAP2 PUSH1 0x40 MLOAD SWAP5 DUP6 SWAP4 DUP5 SWAP3 PUSH4 0x23B872DD PUSH1 0xE0 SHL DUP5 MSTORE CALLER PUSH1 0x4 DUP6 ADD MSTORE ADDRESS PUSH1 0x24 DUP6 ADD MSTORE PUSH1 0x44 DUP5 ADD MSTORE GAS CALL DUP1 ISZERO PUSH2 0x2DF JUMPI PUSH2 0x849 JUMPI JUMPDEST POP PUSH1 0x0 JUMPDEST PUSH1 0x0 NOT DUP4 ADD DUP4 DUP2 GT PUSH2 0x690 JUMPI DUP2 LT ISZERO PUSH2 0x6A6 JUMPI PUSH2 0x47B PUSH2 0x185 DUP3 DUP6 DUP6 PUSH2 0xA2E JUMP JUMPDEST SWAP1 PUSH1 0x1 DUP2 ADD DUP2 GT PUSH2 0x690 JUMPI PUSH1 0x20 PUSH2 0x499 PUSH2 0x185 PUSH1 0x1 DUP5 ADD DUP8 DUP8 PUSH2 0xA2E JUMP JUMPDEST PUSH2 0x4A7 PUSH2 0x1B9 DUP5 DUP11 DUP13 PUSH2 0xA2E JUMP JUMPDEST PUSH1 0x40 MLOAD PUSH4 0xB4C7741 PUSH1 0xE1 SHL DUP2 MSTORE PUSH1 0x1 PUSH1 0x1 PUSH1 0xA0 SHL SUB SWAP6 DUP7 AND PUSH1 0x4 DUP3 ADD MSTORE SWAP2 DUP6 AND PUSH1 0x24 DUP4 ADD MSTORE PUSH3 0xFFFFFF AND PUSH1 0x44 DUP3 ADD MSTORE SWAP3 DUP4 SWAP1 PUSH1 0x64 SWAP1 DUP3 SWAP1 PUSH32 0x0 AND GAS STATICCALL SWAP2 DUP3 ISZERO PUSH2 0x2DF JUMPI PUSH1 0x0 SWAP3 PUSH2 0x66F JUMPI JUMPDEST POP PUSH2 0x526 PUSH1 0x1 PUSH1 0x1 PUSH1 0xA0 SHL SUB DUP4 AND ISZERO ISZERO PUSH2 0xAA8 JUMP JUMPDEST PUSH1 0x0 PUSH1 0x20 PUSH2 0x582 PUSH1 0x1 PUSH1 0x1 PUSH1 0xA0 SHL SUB PUSH2 0x543 PUSH2 0x185 DUP7 DUP11 DUP11 PUSH2 0xA2E JUMP JUMPDEST AND PUSH2 0x54E DUP6 DUP11 PUSH2 0xA1A JUMP JUMPDEST MLOAD PUSH1 0x40 MLOAD PUSH4 0x95EA7B3 PUSH1 0xE0 SHL DUP2 MSTORE PUSH1 0x1 PUSH1 0x1 PUSH1 0xA0 SHL SUB DUP9 AND PUSH1 0x4 DUP3 ADD MSTORE PUSH1 0x24 DUP2 ADD SWAP2 SWAP1 SWAP2 MSTORE SWAP4 DUP5 SWAP3 DUP4 SWAP2 SWAP1 DUP3 SWAP1 PUSH1 0x44 DUP3 ADD SWAP1 JUMP JUMPDEST SUB SWAP3 GAS CALL DUP1 ISZERO PUSH2 0x2DF JUMPI PUSH2 0x640 JUMPI JUMPDEST POP PUSH1 0x20 PUSH2 0x5A2 PUSH2 0x185 DUP4 DUP8 DUP8 PUSH2 0xA2E JUMP JUMPDEST PUSH1 0x64 PUSH2 0x5AE DUP5 DUP10 PUSH2 0xA1A JUMP JUMPDEST MLOAD PUSH1 0x40 MLOAD PUSH4 0x9F1D0F59 PUSH1 0xE0 SHL DUP2 MSTORE PUSH1 0x1 PUSH1 0x1 PUSH1 0xA0 SHL SUB SWAP4 DUP5 AND PUSH1 0x4 DUP3 ADD MSTORE PUSH1 0x24 DUP2 ADD SWAP2 SWAP1 SWAP2 MSTORE PUSH1 0x0 PUSH1 0x44 DUP3 ADD DUP2 SWAP1 MSTORE SWAP1 SWAP6 DUP7 SWAP4 DUP5 SWAP3 SWAP2 AND GAS CALL DUP1 ISZERO PUSH2 0x2DF JUMPI PUSH1 0x0 SWAP1 PUSH2 0x60C JUMPI JUMPDEST PUSH2 0x607 SWAP3 POP PUSH2 0x29A PUSH1 0x1 DUP4 ADD DUP8 PUSH2 0xA1A JUMP JUMPDEST PUSH2 0x45A JUMP JUMPDEST POP PUSH1 0x20 DUP3 RETURNDATASIZE PUSH1 0x20 GT PUSH2 0x638 JUMPI JUMPDEST DUP2 PUSH2 0x626 PUSH1 0x20 SWAP4 DUP4 PUSH2 0x98B JUMP JUMPDEST DUP2 ADD SUB SLT PUSH2 0x85 JUMPI PUSH2 0x607 SWAP2 MLOAD PUSH2 0x5F5 JUMP JUMPDEST RETURNDATASIZE SWAP2 POP PUSH2 0x619 JUMP JUMPDEST PUSH2 0x661 SWAP1 PUSH1 0x20 RETURNDATASIZE PUSH1 0x20 GT PUSH2 0x668 JUMPI JUMPDEST PUSH2 0x659 DUP2 DUP4 PUSH2 0x98B JUMP JUMPDEST DUP2 ADD SWAP1 PUSH2 0xA52 JUMP JUMPDEST POP DUP8 PUSH2 0x591 JUMP JUMPDEST POP RETURNDATASIZE PUSH2 0x64F JUMP JUMPDEST PUSH2 0x689 SWAP2 SWAP3 POP PUSH1 0x20 RETURNDATASIZE PUSH1 0x20 GT PUSH2 0x311 JUMPI PUSH2 0x303 DUP2 DUP4 PUSH2 0x98B JUMP JUMPDEST SWAP1 DUP8 PUSH2 0x511 JUMP JUMPDEST PUSH4 0x4E487B71 PUSH1 0xE0 SHL PUSH1 0x0 MSTORE PUSH1 0x11 PUSH1 0x4 MSTORE PUSH1 0x24 PUSH1 0x0 REVERT JUMPDEST POP DUP3 SWAP1 DUP2 MLOAD PUSH1 0x0 NOT SWAP1 DUP2 DUP2 ADD SWAP1 DUP2 GT PUSH2 0x690 JUMPI PUSH2 0x6C6 PUSH1 0x24 CALLDATALOAD SWAP2 DUP6 PUSH2 0xA1A JUMP JUMPDEST MLOAD LT PUSH2 0x80E JUMPI DUP1 DUP5 ADD DUP5 DUP2 GT PUSH2 0x690 JUMPI PUSH1 0x1 PUSH1 0x1 PUSH1 0xA0 SHL SUB SWAP1 PUSH2 0x6EE SWAP1 PUSH2 0x185 SWAP1 DUP8 DUP7 PUSH2 0xA2E JUMP JUMPDEST AND DUP4 MLOAD SWAP2 DUP3 ADD SWAP2 DUP3 GT PUSH2 0x690 JUMPI PUSH2 0x743 PUSH1 0x20 SWAP2 PUSH2 0x70D PUSH1 0x0 SWAP5 DUP8 PUSH2 0xA1A JUMP JUMPDEST MLOAD PUSH1 0x40 MLOAD PUSH4 0xA9059CBB PUSH1 0xE0 SHL DUP2 MSTORE PUSH1 0x1 PUSH1 0x1 PUSH1 0xA0 SHL SUB PUSH1 0x84 CALLDATALOAD AND PUSH1 0x4 DUP3 ADD MSTORE PUSH1 0x24 DUP2 ADD SWAP2 SWAP1 SWAP2 MSTORE SWAP4 DUP5 SWAP3 DUP4 SWAP2 SWAP1 DUP3 SWAP1 PUSH1 0x44 DUP3 ADD SWAP1 JUMP JUMPDEST SUB SWAP3 GAS CALL DUP1 ISZERO PUSH2 0x2DF JUMPI PUSH2 0x7EF JUMPI JUMPDEST POP PUSH1 0x40 MLOAD SWAP3 DUP1 PUSH1 0x40 DUP6 ADD PUSH1 0x40 DUP7 MSTORE MSTORE PUSH1 0x60 DUP5 ADD SWAP2 SWAP1 PUSH1 0x0 SWAP1 JUMPDEST DUP1 DUP3 LT PUSH2 0x7C5 JUMPI POP POP POP PUSH32 0x4959C33B926E6CDD6625F8FEDFBAD39AB14BF915B79A8FC964089615191CE627 DUP4 PUSH2 0x160 SWAP5 DUP4 SUB PUSH1 0x20 DUP3 ADD MSTORE DUP1 PUSH2 0x7AE CALLER SWAP5 DUP7 PUSH2 0x8DB JUMP JUMPDEST SUB SWAP1 LOG2 PUSH1 0x40 MLOAD SWAP2 DUP3 SWAP2 PUSH1 0x20 DUP4 MSTORE PUSH1 0x20 DUP4 ADD SWAP1 PUSH2 0x8DB JUMP JUMPDEST SWAP1 SWAP2 SWAP3 DUP4 CALLDATALOAD SWAP1 PUSH1 0x1 DUP1 PUSH1 0xA0 SHL SUB DUP3 AND DUP1 SWAP3 SUB PUSH2 0x85 JUMPI PUSH1 0x20 DUP2 PUSH1 0x1 SWAP4 DUP3 SWAP4 MSTORE ADD SWAP5 ADD SWAP3 ADD SWAP1 PUSH2 0x76B JUMP JUMPDEST PUSH2 0x807 SWAP1 PUSH1 0x20 RETURNDATASIZE PUSH1 0x20 GT PUSH2 0x668 JUMPI PUSH2 0x659 DUP2 DUP4 PUSH2 0x98B JUMP JUMPDEST POP DUP4 PUSH2 0x752 JUMP JUMPDEST PUSH1 0x40 MLOAD PUSH3 0x461BCD PUSH1 0xE5 SHL DUP2 MSTORE PUSH1 0x20 PUSH1 0x4 DUP3 ADD MSTORE PUSH1 0x13 PUSH1 0x24 DUP3 ADD MSTORE PUSH19 0x125B9CDD59999A58DA595B9D081BDD5D1C1D5D PUSH1 0x6A SHL PUSH1 0x44 DUP3 ADD MSTORE PUSH1 0x64 SWAP1 REVERT JUMPDEST PUSH2 0x861 SWAP1 PUSH1 0x20 RETURNDATASIZE PUSH1 0x20 GT PUSH2 0x668 JUMPI PUSH2 0x659 DUP2 DUP4 PUSH2 0x98B JUMP JUMPDEST POP DUP6 PUSH2 0x456 JUMP JUMPDEST PUSH4 0x4E487B71 PUSH1 0xE0 SHL PUSH1 0x0 MSTORE PUSH1 0x32 PUSH1 0x4 MSTORE PUSH1 0x24 PUSH1 0x0 REVERT JUMPDEST PUSH3 0x461BCD PUSH1 0xE5 SHL DUP2 MSTORE PUSH1 0x20 PUSH1 0x4 DUP3 ADD MSTORE PUSH1 0x7 PUSH1 0x24 DUP3 ADD MSTORE PUSH7 0x115E1C1A5C9959 PUSH1 0xCA SHL PUSH1 0x44 DUP3 ADD MSTORE PUSH1 0x64 SWAP1 REVERT JUMPDEST SWAP2 DUP2 PUSH1 0x1F DUP5 ADD SLT ISZERO PUSH2 0x85 JUMPI DUP3 CALLDATALOAD SWAP2 PUSH8 0xFFFFFFFFFFFFFFFF DUP4 GT PUSH2 0x85 JUMPI PUSH1 0x20 DUP1 DUP6 ADD SWAP5 DUP5 PUSH1 0x5 SHL ADD ADD GT PUSH2 0x85 JUMPI JUMP JUMPDEST SWAP1 DUP2 MLOAD DUP1 DUP3 MSTORE PUSH1 0x20 DUP1 DUP1 SWAP4 ADD SWAP4 ADD SWAP2 PUSH1 0x0 JUMPDEST DUP3 DUP2 LT PUSH2 0x8FB JUMPI POP POP POP POP SWAP1 JUMP JUMPDEST DUP4 MLOAD DUP6 MSTORE SWAP4 DUP2 ADD SWAP4 SWAP3 DUP2 ADD SWAP3 PUSH1 0x1 ADD PUSH2 0x8ED JUMP JUMPDEST ISZERO PUSH2 0x916 JUMPI JUMP JUMPDEST PUSH1 0x40 MLOAD PUSH3 0x461BCD PUSH1 0xE5 SHL DUP2 MSTORE PUSH1 0x20 PUSH1 0x4 DUP3 ADD MSTORE PUSH1 0xC PUSH1 0x24 DUP3 ADD MSTORE PUSH12 0x92DCECC2D8D2C840E0C2E8D PUSH1 0xA3 SHL PUSH1 0x44 DUP3 ADD MSTORE PUSH1 0x64 SWAP1 REVERT JUMPDEST ISZERO PUSH2 0x951 JUMPI JUMP JUMPDEST PUSH1 0x40 MLOAD PUSH3 0x461BCD PUSH1 0xE5 SHL DUP2 MSTORE PUSH1 0x20 PUSH1 0x4 DUP3 ADD MSTORE PUSH1 0x12 PUSH1 0x24 DUP3 ADD MSTORE PUSH18 0xA0C2E8D05ECCCACAE640DAD2E6DAC2E8C6D PUSH1 0x73 SHL PUSH1 0x44 DUP3 ADD MSTORE PUSH1 0x64 SWAP1 REVERT JUMPDEST SWAP1 PUSH1 0x1F DUP1 NOT SWAP2 ADD AND DUP2 ADD SWAP1 DUP2 LT PUSH8 0xFFFFFFFFFFFFFFFF DUP3 GT OR PUSH2 0x9AD JUMPI PUSH1 0x40 MSTORE JUMP JUMPDEST PUSH4 0x4E487B71 PUSH1 0xE0 SHL PUSH1 0x0 MSTORE PUSH1 0x41 PUSH1 0x4 MSTORE PUSH1 0x24 PUSH1 0x0 REVERT JUMPDEST PUSH8 0xFFFFFFFFFFFFFFFF DUP2 GT PUSH2 0x9AD JUMPI PUSH1 0x5 SHL PUSH1 0x20 ADD SWAP1 JUMP JUMPDEST SWAP1 PUSH2 0x9E5 DUP3 PUSH2 0x9C3 JUMP JUMPDEST PUSH2 0x9F2 PUSH1 0x40 MLOAD SWAP2 DUP3 PUSH2 0x98B JUMP JUMPDEST DUP3 DUP2 MSTORE DUP1 SWAP3 PUSH2 0xA03 PUSH1 0x1F NOT SWAP2 PUSH2 0x9C3 JUMP JUMPDEST ADD SWAP1 PUSH1 0x20 CALLDATASIZE SWAP2 ADD CALLDATACOPY JUMP JUMPDEST DUP1 MLOAD ISZERO PUSH2 0x868 JUMPI PUSH1 0x20 ADD SWAP1 JUMP JUMPDEST DUP1 MLOAD DUP3 LT ISZERO PUSH2 0x868 JUMPI PUSH1 0x20 SWAP2 PUSH1 0x5 SHL ADD ADD SWAP1 JUMP JUMPDEST SWAP2 SWAP1 DUP2 LT ISZERO PUSH2 0x868 JUMPI PUSH1 0x5 SHL ADD SWAP1 JUMP JUMPDEST CALLDATALOAD PUSH1 0x1 PUSH1 0x1 PUSH1 0xA0 SHL SUB DUP2 AND DUP2 SUB PUSH2 0x85 JUMPI SWAP1 JUMP JUMPDEST SWAP1 DUP2 PUSH1 0x20 SWAP2 SUB SLT PUSH2 0x85 JUMPI MLOAD DUP1 ISZERO ISZERO DUP2 SUB PUSH2 0x85 JUMPI SWAP1 JUMP JUMPDEST PUSH1 0x0 NOT DUP2 EQ PUSH2 0x690 JUMPI PUSH1 0x1 ADD SWAP1 JUMP JUMPDEST CALLDATALOAD PUSH3 0xFFFFFF DUP2 AND DUP2 SUB PUSH2 0x85 JUMPI SWAP1 JUMP JUMPDEST SWAP1 DUP2 PUSH1 0x20 SWAP2 SUB SLT PUSH2 0x85 JUMPI MLOAD PUSH1 0x1 PUSH1 0x1 PUSH1 0xA0 SHL SUB DUP2 AND DUP2 SUB PUSH2 0x85 JUMPI SWAP1 JUMP JUMPDEST ISZERO PUSH2 0xAAF JUMPI JUMP JUMPDEST PUSH1 0x40 MLOAD PUSH3 0x461BCD PUSH1 0xE5 SHL DUP2 MSTORE PUSH1 0x20 PUSH1 0x4 DUP3 ADD MSTORE PUSH1 0x13 PUSH1 0x24 DUP3 ADD MSTORE PUSH19 0x141BDBDB08191BD95CC81B9BDD08195E1A5CDD PUSH1 0x6A SHL PUSH1 0x44 DUP3 ADD MSTORE PUSH1 0x64 SWAP1 REVERT INVALID LOG2 PUSH5 0x6970667358 0x22 SLT KECCAK256 0x2A 0xF6 0xEE LOG2 0xAE 0xBE SIGNEXTEND ADDRESS SELFDESTRUCT SHL PUSH8 0x34C492728CAC1639 0xE6 0xBE 0xE3 DUP1 0x4D RETURNDATASIZE CODECOPY 0x25 SIGNEXTEND LOG2 0x2E 0x1E 0xB4 PUSH5 0x736F6C6343 STOP ADDMOD EQ STOP CALLER "},"methodIdentifiers":{"factory()":"c45a0155","getAmountsOut(uint256,address[],uint24[])":"9f48b439","swapExactTokensForTokens(uint256,uint256,address[],uint24[],address,uint256)":"93a2e9ed"}}}}}