{"contracts/core/DEXPool.sol":{"DEXPool":{"abi":[{"inputs":[{"internalType":"address","name":"_token0","type":"address"},{"internalType":"address","name":"_token1","type":"address"},{"internalType":"uint24","name":"_fee","type":"uint24"}],"stateMutability":"nonpayable","type":"constructor"},{"inputs":[{"internalType":"address","name":"spender","type":"address"},{"internalType":"uint256","name":"allowance","type":"uint256"},{"internalType":"uint256","name":"needed","type":"uint256"}],"name":"ERC20InsufficientAllowance","type":"error"},{"inputs":[{"internalType":"address","name":"sender","type":"address"},{"internalType":"uint256","name":"balance","type":"uint256"},{"internalType":"uint256","name":"needed","type":"uint256"}],"name":"ERC20InsufficientBalance","type":"error"},{"inputs":[{"internalType":"address","name":"approver","type":"address"}],"name":"ERC20InvalidApprover","type":"error"},{"inputs":[{"internalType":"address","name":"receiver","type":"address"}],"name":"ERC20InvalidReceiver","type":"error"},{"inputs":[{"internalType":"address","name":"sender","type":"address"}],"name":"ERC20InvalidSender","type":"error"},{"inputs":[{"internalType":"address","name":"spender","type":"address"}],"name":"ERC20InvalidSpender","type":"error"},{"inputs":[],"name":"ReentrancyGuardReentrantCall","type":"error"},{"anonymous":false,"inputs":[{"indexed":true,"internalType":"address","name":"owner","type":"address"},{"indexed":true,"internalType":"address","name":"spender","type":"address"},{"indexed":false,"internalType":"uint256","name":"value","type":"uint256"}],"name":"Approval","type":"event"},{"anonymous":false,"inputs":[{"indexed":true,"internalType":"address","name":"owner","type":"address"},{"indexed":false,"internalType":"uint256","name":"amount0","type":"uint256"},{"indexed":false,"internalType":"uint256","name":"amount1","type":"uint256"},{"indexed":false,"internalType":"uint256","name":"liquidity","type":"uint256"}],"name":"Burn","type":"event"},{"anonymous":false,"inputs":[{"indexed":true,"internalType":"address","name":"sender","type":"address"},{"indexed":true,"internalType":"address","name":"owner","type":"address"},{"indexed":false,"internalType":"uint256","name":"amount0","type":"uint256"},{"indexed":false,"internalType":"uint256","name":"amount1","type":"uint256"},{"indexed":false,"internalType":"uint256","name":"liquidity","type":"uint256"}],"name":"Mint","type":"event"},{"anonymous":false,"inputs":[{"indexed":true,"internalType":"address","name":"sender","type":"address"},{"indexed":true,"internalType":"address","name":"recipient","type":"address"},{"indexed":false,"internalType":"int256","name":"amount0","type":"int256"},{"indexed":false,"internalType":"int256","name":"amount1","type":"int256"},{"indexed":false,"internalType":"uint256","name":"price","type":"uint256"}],"name":"Swap","type":"event"},{"anonymous":false,"inputs":[{"indexed":true,"internalType":"address","name":"from","type":"address"},{"indexed":true,"internalType":"address","name":"to","type":"address"},{"indexed":false,"internalType":"uint256","name":"value","type":"uint256"}],"name":"Transfer","type":"event"},{"inputs":[],"name":"MAX_TICK","outputs":[{"internalType":"int24","name":"","type":"int24"}],"stateMutability":"view","type":"function"},{"inputs":[],"name":"MIN_TICK","outputs":[{"internalType":"int24","name":"","type":"int24"}],"stateMutability":"view","type":"function"},{"inputs":[{"internalType":"uint256","name":"amount0Desired","type":"uint256"},{"internalType":"uint256","name":"amount1Desired","type":"uint256"},{"internalType":"uint256","name":"amount0Min","type":"uint256"},{"internalType":"uint256","name":"amount1Min","type":"uint256"},{"internalType":"int24","name":"tickLower","type":"int24"},{"internalType":"int24","name":"tickUpper","type":"int24"}],"name":"addLiquidity","outputs":[{"internalType":"uint256","name":"amount0","type":"uint256"},{"internalType":"uint256","name":"amount1","type":"uint256"},{"internalType":"uint256","name":"liquidity","type":"uint256"}],"stateMutability":"nonpayable","type":"function"},{"inputs":[{"internalType":"address","name":"owner","type":"address"},{"internalType":"address","name":"spender","type":"address"}],"name":"allowance","outputs":[{"internalType":"uint256","name":"","type":"uint256"}],"stateMutability":"view","type":"function"},{"inputs":[{"internalType":"address","name":"spender","type":"address"},{"internalType":"uint256","name":"value","type":"uint256"}],"name":"approve","outputs":[{"internalType":"bool","name":"","type":"bool"}],"stateMutability":"nonpayable","type":"function"},{"inputs":[{"internalType":"address","name":"account","type":"address"}],"name":"balanceOf","outputs":[{"internalType":"uint256","name":"","type":"uint256"}],"stateMutability":"view","type":"function"},{"inputs":[],"name":"currentTick","outputs":[{"internalType":"int24","name":"","type":"int24"}],"stateMutability":"view","type":"function"},{"inputs":[],"name":"decimals","outputs":[{"internalType":"uint8","name":"","type":"uint8"}],"stateMutability":"view","type":"function"},{"inputs":[],"name":"fee","outputs":[{"internalType":"uint24","name":"","type":"uint24"}],"stateMutability":"view","type":"function"},{"inputs":[{"internalType":"address","name":"tokenIn","type":"address"},{"internalType":"uint256","name":"amountIn","type":"uint256"}],"name":"getQuote","outputs":[{"internalType":"uint256","name":"amountOut","type":"uint256"}],"stateMutability":"view","type":"function"},{"inputs":[],"name":"name","outputs":[{"internalType":"string","name":"","type":"string"}],"stateMutability":"view","type":"function"},{"inputs":[{"internalType":"address","name":"","type":"address"}],"name":"positions","outputs":[{"internalType":"uint256","name":"liquidity","type":"uint256"},{"internalType":"int24","name":"tickLower","type":"int24"},{"internalType":"int24","name":"tickUpper","type":"int24"},{"internalType":"uint256","name":"token0Owed","type":"uint256"},{"internalType":"uint256","name":"token1Owed","type":"uint256"}],"stateMutability":"view","type":"function"},{"inputs":[],"name":"price","outputs":[{"internalType":"uint256","name":"","type":"uint256"}],"stateMutability":"view","type":"function"},{"inputs":[{"internalType":"uint256","name":"liquidity","type":"uint256"}],"name":"removeLiquidity","outputs":[{"internalType":"uint256","name":"amount0","type":"uint256"},{"internalType":"uint256","name":"amount1","type":"uint256"}],"stateMutability":"nonpayable","type":"function"},{"inputs":[],"name":"reserve0","outputs":[{"internalType":"uint256","name":"","type":"uint256"}],"stateMutability":"view","type":"function"},{"inputs":[],"name":"reserve1","outputs":[{"internalType":"uint256","name":"","type":"uint256"}],"stateMutability":"view","type":"function"},{"inputs":[{"internalType":"address","name":"tokenIn","type":"address"},{"internalType":"uint256","name":"amountIn","type":"uint256"},{"internalType":"uint256","name":"amountOutMin","type":"uint256"}],"name":"swap","outputs":[{"internalType":"uint256","name":"amountOut","type":"uint256"}],"stateMutability":"nonpayable","type":"function"},{"inputs":[],"name":"symbol","outputs":[{"internalType":"string","name":"","type":"string"}],"stateMutability":"view","type":"function"},{"inputs":[],"name":"token0","outputs":[{"internalType":"address","name":"","type":"address"}],"stateMutability":"view","type":"function"},{"inputs":[],"name":"token1","outputs":[{"internalType":"address","name":"","type":"address"}],"stateMutability":"view","type":"function"},{"inputs":[],"name":"totalSupply","outputs":[{"internalType":"uint256","name":"","type":"uint256"}],"stateMutability":"view","type":"function"},{"inputs":[{"internalType":"address","name":"to","type":"address"},{"internalType":"uint256","name":"value","type":"uint256"}],"name":"transfer","outputs":[{"internalType":"bool","name":"","type":"bool"}],"stateMutability":"nonpayable","type":"function"},{"inputs":[{"internalType":"address","name":"from","type":"address"},{"internalType":"address","name":"to","type":"address"},{"internalType":"uint256","name":"value","type":"uint256"}],"name":"transferFrom","outputs":[{"internalType":"bool","name":"","type":"bool"}],"stateMutability":"nonpayable","type":"function"}],"evm":{"bytecode":{"linkReferences":{},"object":"60e034620003ec576001600160401b0390601f19601f62001e1b3881900382810184168501919086831186841017620002f057808692606094604052833981010312620003ec57620000518362000411565b9160209460406200006487870162000411565b9501519562ffffff87168703620003ec576200007f620003f1565b93600985526804445582d56332d4c560bc1b828601526200009f620003f1565b60078152660445856332d4c560cc1b83820152855192848411620002f05760039384546001988982811c92168015620003e1575b84831014620003cb57818684931162000375575b508390868311600114620003125760009262000306575b505060001982871b1c191690881b1784555b8151948511620002f05760049586548881811c91168015620002e5575b83821014620002d0579081858897969594931162000272575b508193861160011462000207575050600093620001fb575b505082851b92600019911b1c19161790555b60055560805260a05260c0526040516119f490816200042782396080518181816102990152818161080901528181610bcd01528181610ec50152611470015260a0518181816101c0015281816103e0015281816105ce015281816106860152818161086b01528181610cd20152610f2b015260c05181818161013c015281816102de0152610c0c0152f35b0151915038806200015e565b88969493929194168760005284600020946000905b8282106200025857505085116200023d575b50505050811b01905562000170565b01519060f884600019921b161c19169055388080806200022e565b8484015187558a989096019593840193908101906200021c565b9091929394955087600052826000208580890160051c820192858a10620002c6575b918b918a999897969594930160051c01915b828110620002b657505062000146565b600081558998508b9101620002a6565b9250819262000294565b602288634e487b7160e01b6000525260246000fd5b90607f16906200012d565b634e487b7160e01b600052604160045260246000fd5b015190503880620000fe565b90898b94169188600052856000209260005b878282106200035e575050841162000345575b505050811b01845562000110565b015160001983891b60f8161c1916905538808062000337565b8385015186558e9790950194938401930162000324565b90915086600052836000208680850160051c820192868610620003c1575b918c91869594930160051c01915b828110620003b1575050620000e7565b600081558594508c9101620003a1565b9250819262000393565b634e487b7160e01b600052602260045260246000fd5b91607f1691620000d3565b600080fd5b60408051919082016001600160401b03811183821017620002f057604052565b51906001600160a01b0382168203620003ec5756fe608060408181526004918236101561001657600080fd5b600092833560e01c918263065e53601461163e5750816306fdde0314611549578163095ea7b31461149f5781630dfe16811461145b57816318160ddd1461143c57816323b872dd14611348578163313ce5671461132c578163443cb4bc1461130d5781634ac0eb1d14610ddd57816355f5751014610d735781635a76f25e14610d545781636882a88814610d3657816370a0823114610cff57816382c0ab2114610ba357816395d89b4114610aa05781639c8f9f23146106e15781639f1d0f591461025b57508063a035b1fe1461023d578063a1634b141461021f578063a9059cbb146101ef578063d21220a7146101ac578063dd62ed3e146101645763ddca3f431461012257600080fd5b346101605781600319360112610160576020905162ffffff7f0000000000000000000000000000000000000000000000000000000000000000168152f35b5080fd5b5034610160578060031936011261016057806020926101816116a6565b6101896116c1565b6001600160a01b0391821683526001865283832091168252845220549051908152f35b5034610160578160031936011261016057517f00000000000000000000000000000000000000000000000000000000000000006001600160a01b03168152602090f35b503461016057806003193601126101605760209061021861020e6116a6565b602435903361170f565b5160018152f35b503461016057816003193601126101605751620d89e7198152602090f35b50346101605781600319360112610160576020906008549051908152f35b838334610160576060366003190112610160576102766116a6565b604435929060243561028661185b565b80156106ad576001600160a01b039182167f0000000000000000000000000000000000000000000000000000000000000000831681811493916102d29085908115610681575b5061188b565b61030962ffffff6103027f00000000000000000000000000000000000000000000000000000000000000006118c7565b1684611810565b8415610554576007549061031d8282611810565b9060065461271090818102918183041490151715610541576103536103639361034d899897969461035c946117ed565b90611823565b9a8b10156118dc565b891061191e565b86516323b872dd60e01b815233818b019081523060208281019190915260408201959095529091849183919082908a90829060600103925af18015610537576103dc9284928a9261051a575b50885163a9059cbb60e01b815233818d01908152602081019390935293849283918a918391604090910190565b03927f0000000000000000000000000000000000000000000000000000000000000000165af18015610510576104e2575b505061041b816006546117ed565b60065561042a8560075461187e565b6007555b600754670de0b6b3a7640000908181029181830414901517156104cf576006546020975061045b91611823565b9182600855806000146104c05781935b50156104bb575061047b84611963565b8351928352858301528282015233907f86cc8bfdfdfabc765ac3e479a03d9e964b00478f3dd26615949fa6b475904b0260603392a3600160055551908152f35b61047b565b6104c986611963565b9361046b565b634e487b7160e01b845260118752602484fd5b8161050192903d10610509575b6104f981836116d7565b810190611843565b50868061040d565b503d6104ef565b86513d87823e3d90fd5b61053090843d8611610509576104f981836116d7565b508b6103af565b87513d88823e3d90fd5b634e487b7160e01b895260118c52602489fd5b600692919254906105658282611810565b9060075461271090818102918183041490151715610541576103536105959361034d899897969461035c946117ed565b86516323b872dd60e01b815233818b019081523060208281019190915260408201959095529091849183919082908a90829060600103927f0000000000000000000000000000000000000000000000000000000000000000165af180156105375761062f9284928a9261051a5750885163a9059cbb60e01b815233818d01908152602081019390935293849283918a918391604090910190565b03925af1801561051057610663575b505061064c816007546117ed565b60075561065b8560065461187e565b60065561042e565b8161067992903d10610509576104f981836116d7565b50868061063e565b9050837f000000000000000000000000000000000000000000000000000000000000000016148a6102cc565b835162461bcd60e51b8152602081880152600e60248201526d125b9d985b1a5908185b5bdd5b9d60921b6044820152606490fd5b8391503461016057602080600319360112610a9c57813561070061185b565b8015610a6557338452838252808585205410610a2b576002549361073f6107328661072d60065486611810565b611823565b9561072d60075485611810565b9385151580610a22575b156109df5733156109ca573382528184528682205483811061099e578390338452838652038783205582600254036002558187518481527fddf252ad1be2c89b69c2b068fc378daa952ba7f163c4a11628f55a4df523b3ef863392a36107b18660065461187e565b806006556107c18660075461187e565b8060075581151580610995575b610954575b5050865163a9059cbb60e01b80825233838301908152602081018990526001600160a01b039392908790829081900360400181887f000000000000000000000000000000000000000000000000000000000000000089165af1801561094a579285899361086796938a9661092d575b508c519081523392810192835260208301949094529294859384929091839160400190565b03927f0000000000000000000000000000000000000000000000000000000000000000165af180156109235790879291610906575b5033815260098452206108b082825461187e565b90557f743033787f4738ff4d6a7225ce2bd0977ee5f86b91a902a58f5e4d0b297b46448551806108f433948789846040919493926060820195825260208201520152565b0390a260016005558351928352820152f35b61091c90853d8711610509576104f981836116d7565b508761089c565b87513d84823e3d90fd5b61094390873d8911610509576104f981836116d7565b508d610842565b8a513d87823e3d90fd5b670de0b6b3a764000090818102918183041490151715610982579061097891611823565b60085587806107d3565b634e487b7160e01b845260118352602484fd5b508015156107ce565b875163391434e360e21b8152339281019283526020830191909152604082018490529081906060010390fd5b602491875191634b637e8f60e11b8352820152fd5b865162461bcd60e51b8152908101849052601d60248201527f496e73756666696369656e74206c6971756964697479206275726e65640000006044820152606490fd5b50841515610749565b845162461bcd60e51b81528084018390526014602482015273496e73756666696369656e742062616c616e636560601b6044820152606490fd5b845162461bcd60e51b81528084018390526011602482015270496e76616c6964206c697175696469747960781b6044820152606490fd5b8280fd5b838334610160578160031936011261016057805191809380549160019083821c92828516948515610b99575b6020958686108114610b8657858952908115610b625750600114610b0a575b610b068787610afc828c03836116d7565b519182918261165d565b0390f35b81529295507f8a35acfbc15ff81a39ae7d344fd709f28e8600b4aa8c65c6b64bfe7fe36bd19b5b828410610b4f5750505082610b0694610afc92820101948680610aeb565b8054868501880152928601928101610b31565b60ff19168887015250505050151560051b8301019250610afc82610b068680610aeb565b634e487b7160e01b845260228352602484fd5b93607f1693610acc565b828434610cfc5781600319360112610cfc57610bbd6116a6565b610c0060018060a01b03809216827f00000000000000000000000000000000000000000000000000000000000000001681149081938215610cd0575b505061188b565b610c3962ffffff610c307f00000000000000000000000000000000000000000000000000000000000000006118c7565b16602435611810565b9015610c9257610c4b60075482611810565b916006549061271091828102928184041490151715610c7f575060209450610c77929161034d916117ed565b905b51908152f35b634e487b7160e01b815260118652602490fd5b610c9e60065482611810565b916007549061271091828102928184041490151715610c7f575060209450610cca929161034d916117ed565b90610c79565b7f0000000000000000000000000000000000000000000000000000000000000000161490508680610bf9565b80fd5b5050346101605760203660031901126101605760209181906001600160a01b03610d276116a6565b16815280845220549051908152f35b50503461016057816003193601126101605760209051620d89e88152f35b5050346101605781600319360112610160576020906007549051908152f35b5050346101605760203660031901126101605760a09181906001600160a01b03610d9b6116a6565b16815260096020522090815491600181015491600360028301549201549281519485528060020b602086015260181c60020b9084015260608301526080820152f35b905034610a9c5760c0366003190112610a9c578035916024908135926084358060020b918282036113095760a435928360020b9081850361130557610e2061185b565b881515806112fc575b156112c8578181121561129157620d89e71913159081611283575b501561124d57600654801580611243575b156111515750610e6f610e6a88978099611810565b611974565b9462ffffff19600a5416600a555b851561110f5784516323b872dd60e01b8082523384830190815230602080830191909152604082018b905294926001600160a01b0392918d91908790829081900360600181857f000000000000000000000000000000000000000000000000000000000000000089165af1801561110557928d92610f27959289956110e8575b508b5191825233878301908152306020820152604081019490945290948593849291839160600190565b03927f0000000000000000000000000000000000000000000000000000000000000000165af180156110de576110c1575b50610f65886006546117ed565b80600655610f758a6007546117ed565b80600755670de0b6b3a7640000908181029181830414901517156110af5790610f9d91611823565b600855331561109b57505083610b069697986009600193610fc0896002546117ed565b6002553383528281528383208981540190558351898152837fddf252ad1be2c89b69c2b068fc378daa952ba7f163c4a11628f55a4df523b3ef833393a3338352522061100d8682546117ed565b8155019162ffffff83549160181b65ffffff0000001692169065ffffffffffff191617179055805133907f458f5fa412d0f69b08dd84872b0215675cc67bc1d5b6fd93300a1c3878b86196339180611078878b8b846040919493926060820195825260208201520152565b0390a3600160055551938493846040919493926060820195825260208201520152565b855163ec442f0560e01b81529081018a9052fd5b634e487b7160e01b8c5260118352838cfd5b6110d790843d8611610509576104f981836116d7565b5038610f58565b87513d8d823e3d90fd5b6110fe90863d8811610509576104f981836116d7565b5038610efd565b8a513d84823e3d90fd5b90601d606492602087519362461bcd60e51b85528401528201527f496e73756666696369656e74206c6971756964697479206d696e7465640000006044820152fd5b600754976111638261072d8b84611810565b978089116111e6575060643588106111ae576111979097985b61072d6111906002549461072d868d611810565b938b611810565b808210156111a757505b94610e7d565b90506111a1565b855162461bcd60e51b815260208185015260138189015272496e73756666696369656e7420746f6b656e3160681b6044820152606490fd5b9750506111f78861072d838a611810565b604435811061120b5761119790979861117c565b855162461bcd60e51b8152602081850152601381890152720496e73756666696369656e7420746f6b656e3606c1b6044820152606490fd5b5060075415610e55565b606490601186602087519362461bcd60e51b8552840152820152705469636b206f7574206f662072616e676560781b6044820152fd5b620d89e89150131538610e44565b855162461bcd60e51b815260208185015260128189015271496e76616c6964207469636b2072616e676560701b6044820152606490fd5b855162461bcd60e51b8152602081850152600f818901526e496e76616c696420616d6f756e747360881b6044820152606490fd5b50871515610e29565b8980fd5b8780fd5b5050346101605781600319360112610160576020906006549051908152f35b5050346101605781600319360112610160576020905160128152f35b90508234610cfc576060366003190112610cfc576113646116a6565b61136c6116c1565b916044359360018060a01b0383168083526001602052868320338452602052868320549160001983106113a8575b60208861021889898961170f565b8683106114105781156113f95733156113e2575082526001602090815286832033845281529186902090859003905582906102188761139a565b8751634a1406b160e11b8152908101849052602490fd5b875163e602df0560e01b8152908101849052602490fd5b8751637dc7a0d960e11b8152339181019182526020820193909352604081018790528291506060010390fd5b5050346101605781600319360112610160576020906002549051908152f35b505034610160578160031936011261016057517f00000000000000000000000000000000000000000000000000000000000000006001600160a01b03168152602090f35b905034610a9c5781600319360112610a9c576114b96116a6565b602435903315611532576001600160a01b031691821561151b57508083602095338152600187528181208582528752205582519081527f8c5be1e5ebec7d5bd14f71427d1e84f3dd0314c0f7b2291e5b200ac8c7c3b925843392a35160018152f35b8351634a1406b160e11b8152908101859052602490fd5b835163e602df0560e01b8152808401869052602490fd5b91905034610a9c5782600319360112610a9c57805191836003549060019082821c928281168015611634575b602095868610821461162157508488529081156115ff57506001146115a6575b610b068686610afc828b03836116d7565b929550600383527fc2575a0e9e593c00f959f8c92f12db2869c3395a3b0502d05e2516446f71f85b5b8284106115ec5750505082610b0694610afc928201019438611595565b80548685018801529286019281016115cf565b60ff191687860152505050151560051b8301019250610afc82610b0638611595565b634e487b7160e01b845260229052602483fd5b93607f1693611575565b849034610160578160031936011261016057602090600a5460020b8152f35b6020808252825181830181905290939260005b82811061169257505060409293506000838284010152601f8019910116010190565b818101860151848201604001528501611670565b600435906001600160a01b03821682036116bc57565b600080fd5b602435906001600160a01b03821682036116bc57565b90601f8019910116810190811067ffffffffffffffff8211176116f957604052565b634e487b7160e01b600052604160045260246000fd5b916001600160a01b038084169283156117d457169283156117bb5760009083825281602052604082205490838210611789575091604082827fddf252ad1be2c89b69c2b068fc378daa952ba7f163c4a11628f55a4df523b3ef958760209652828652038282205586815220818154019055604051908152a3565b60405163391434e360e21b81526001600160a01b03919091166004820152602481019190915260448101839052606490fd5b60405163ec442f0560e01b815260006004820152602490fd5b604051634b637e8f60e11b815260006004820152602490fd5b919082018092116117fa57565b634e487b7160e01b600052601160045260246000fd5b818102929181159184041417156117fa57565b811561182d570490565b634e487b7160e01b600052601260045260246000fd5b908160209103126116bc575180151581036116bc5790565b60026005541461186c576002600555565b604051633ee5aeb560e01b8152600490fd5b919082039182116117fa57565b1561189257565b60405162461bcd60e51b815260206004820152600d60248201526c24b73b30b634b2103a37b5b2b760991b6044820152606490fd5b9062ffffff809216612710039182116117fa57565b156118e357565b60405162461bcd60e51b8152602060048201526013602482015272125b9cdd59999a58da595b9d081bdd5d1c1d5d606a1b6044820152606490fd5b1561192557565b60405162461bcd60e51b8152602060048201526016602482015275496e73756666696369656e74206c697175696469747960501b6044820152606490fd5b600160ff1b81146117fa5760000390565b80156119b85760018082018083116117fa57811c90825b8383106119985750505090565b909192506119af836119aa8184611823565b6117ed565b821c919061198b565b5060009056fea26469706673582212204208a369c0a675263886ff20df63aefbe6f73e3bca23edefcb43644bbca53ca964736f6c63430008140033","opcodes":"PUSH1 0xE0 CALLVALUE PUSH3 0x3EC JUMPI PUSH1 0x1 PUSH1 0x1 PUSH1 0x40 SHL SUB SWAP1 PUSH1 0x1F NOT PUSH1 0x1F PUSH3 0x1E1B CODESIZE DUP2 SWAP1 SUB DUP3 DUP2 ADD DUP5 AND DUP6 ADD SWAP2 SWAP1 DUP7 DUP4 GT DUP7 DUP5 LT OR PUSH3 0x2F0 JUMPI DUP1 DUP7 SWAP3 PUSH1 0x60 SWAP5 PUSH1 0x40 MSTORE DUP4 CODECOPY DUP2 ADD SUB SLT PUSH3 0x3EC JUMPI PUSH3 0x51 DUP4 PUSH3 0x411 JUMP JUMPDEST SWAP2 PUSH1 0x20 SWAP5 PUSH1 0x40 PUSH3 0x64 DUP8 DUP8 ADD PUSH3 0x411 JUMP JUMPDEST SWAP6 ADD MLOAD SWAP6 PUSH3 0xFFFFFF DUP8 AND DUP8 SUB PUSH3 0x3EC JUMPI PUSH3 0x7F PUSH3 0x3F1 JUMP JUMPDEST SWAP4 PUSH1 0x9 DUP6 MSTORE PUSH9 0x4445582D56332D4C5 PUSH1 0xBC SHL DUP3 DUP7 ADD MSTORE PUSH3 0x9F PUSH3 0x3F1 JUMP JUMPDEST PUSH1 0x7 DUP2 MSTORE PUSH7 0x445856332D4C5 PUSH1 0xCC SHL DUP4 DUP3 ADD MSTORE DUP6 MLOAD SWAP3 DUP5 DUP5 GT PUSH3 0x2F0 JUMPI PUSH1 0x3 SWAP4 DUP5 SLOAD PUSH1 0x1 SWAP9 DUP10 DUP3 DUP2 SHR SWAP3 AND DUP1 ISZERO PUSH3 0x3E1 JUMPI JUMPDEST DUP5 DUP4 LT EQ PUSH3 0x3CB JUMPI DUP2 DUP7 DUP5 SWAP4 GT PUSH3 0x375 JUMPI JUMPDEST POP DUP4 SWAP1 DUP7 DUP4 GT PUSH1 0x1 EQ PUSH3 0x312 JUMPI PUSH1 0x0 SWAP3 PUSH3 0x306 JUMPI JUMPDEST POP POP PUSH1 0x0 NOT DUP3 DUP8 SHL SHR NOT AND SWAP1 DUP9 SHL OR DUP5 SSTORE JUMPDEST DUP2 MLOAD SWAP5 DUP6 GT PUSH3 0x2F0 JUMPI PUSH1 0x4 SWAP6 DUP7 SLOAD DUP9 DUP2 DUP2 SHR SWAP2 AND DUP1 ISZERO PUSH3 0x2E5 JUMPI JUMPDEST DUP4 DUP3 LT EQ PUSH3 0x2D0 JUMPI SWAP1 DUP2 DUP6 DUP9 SWAP8 SWAP7 SWAP6 SWAP5 SWAP4 GT PUSH3 0x272 JUMPI JUMPDEST POP DUP2 SWAP4 DUP7 GT PUSH1 0x1 EQ PUSH3 0x207 JUMPI POP POP PUSH1 0x0 SWAP4 PUSH3 0x1FB JUMPI JUMPDEST POP POP DUP3 DUP6 SHL SWAP3 PUSH1 0x0 NOT SWAP2 SHL SHR NOT AND OR SWAP1 SSTORE JUMPDEST PUSH1 0x5 SSTORE PUSH1 0x80 MSTORE PUSH1 0xA0 MSTORE PUSH1 0xC0 MSTORE PUSH1 0x40 MLOAD PUSH2 0x19F4 SWAP1 DUP2 PUSH3 0x427 DUP3 CODECOPY PUSH1 0x80 MLOAD DUP2 DUP2 DUP2 PUSH2 0x299 ADD MSTORE DUP2 DUP2 PUSH2 0x809 ADD MSTORE DUP2 DUP2 PUSH2 0xBCD ADD MSTORE DUP2 DUP2 PUSH2 0xEC5 ADD MSTORE PUSH2 0x1470 ADD MSTORE PUSH1 0xA0 MLOAD DUP2 DUP2 DUP2 PUSH2 0x1C0 ADD MSTORE DUP2 DUP2 PUSH2 0x3E0 ADD MSTORE DUP2 DUP2 PUSH2 0x5CE ADD MSTORE DUP2 DUP2 PUSH2 0x686 ADD MSTORE DUP2 DUP2 PUSH2 0x86B ADD MSTORE DUP2 DUP2 PUSH2 0xCD2 ADD MSTORE PUSH2 0xF2B ADD MSTORE PUSH1 0xC0 MLOAD DUP2 DUP2 DUP2 PUSH2 0x13C ADD MSTORE DUP2 DUP2 PUSH2 0x2DE ADD MSTORE PUSH2 0xC0C ADD MSTORE RETURN JUMPDEST ADD MLOAD SWAP2 POP CODESIZE DUP1 PUSH3 0x15E JUMP JUMPDEST DUP9 SWAP7 SWAP5 SWAP4 SWAP3 SWAP2 SWAP5 AND DUP8 PUSH1 0x0 MSTORE DUP5 PUSH1 0x0 KECCAK256 SWAP5 PUSH1 0x0 SWAP1 JUMPDEST DUP3 DUP3 LT PUSH3 0x258 JUMPI POP POP DUP6 GT PUSH3 0x23D JUMPI JUMPDEST POP POP POP POP DUP2 SHL ADD SWAP1 SSTORE PUSH3 0x170 JUMP JUMPDEST ADD MLOAD SWAP1 PUSH1 0xF8 DUP5 PUSH1 0x0 NOT SWAP3 SHL AND SHR NOT AND SWAP1 SSTORE CODESIZE DUP1 DUP1 DUP1 PUSH3 0x22E JUMP JUMPDEST DUP5 DUP5 ADD MLOAD DUP8 SSTORE DUP11 SWAP9 SWAP1 SWAP7 ADD SWAP6 SWAP4 DUP5 ADD SWAP4 SWAP1 DUP2 ADD SWAP1 PUSH3 0x21C JUMP JUMPDEST SWAP1 SWAP2 SWAP3 SWAP4 SWAP5 SWAP6 POP DUP8 PUSH1 0x0 MSTORE DUP3 PUSH1 0x0 KECCAK256 DUP6 DUP1 DUP10 ADD PUSH1 0x5 SHR DUP3 ADD SWAP3 DUP6 DUP11 LT PUSH3 0x2C6 JUMPI JUMPDEST SWAP2 DUP12 SWAP2 DUP11 SWAP10 SWAP9 SWAP8 SWAP7 SWAP6 SWAP5 SWAP4 ADD PUSH1 0x5 SHR ADD SWAP2 JUMPDEST DUP3 DUP2 LT PUSH3 0x2B6 JUMPI POP POP PUSH3 0x146 JUMP JUMPDEST PUSH1 0x0 DUP2 SSTORE DUP10 SWAP9 POP DUP12 SWAP2 ADD PUSH3 0x2A6 JUMP JUMPDEST SWAP3 POP DUP2 SWAP3 PUSH3 0x294 JUMP JUMPDEST PUSH1 0x22 DUP9 PUSH4 0x4E487B71 PUSH1 0xE0 SHL PUSH1 0x0 MSTORE MSTORE PUSH1 0x24 PUSH1 0x0 REVERT JUMPDEST SWAP1 PUSH1 0x7F AND SWAP1 PUSH3 0x12D JUMP JUMPDEST PUSH4 0x4E487B71 PUSH1 0xE0 SHL PUSH1 0x0 MSTORE PUSH1 0x41 PUSH1 0x4 MSTORE PUSH1 0x24 PUSH1 0x0 REVERT JUMPDEST ADD MLOAD SWAP1 POP CODESIZE DUP1 PUSH3 0xFE JUMP JUMPDEST SWAP1 DUP10 DUP12 SWAP5 AND SWAP2 DUP9 PUSH1 0x0 MSTORE DUP6 PUSH1 0x0 KECCAK256 SWAP3 PUSH1 0x0 JUMPDEST DUP8 DUP3 DUP3 LT PUSH3 0x35E JUMPI POP POP DUP5 GT PUSH3 0x345 JUMPI JUMPDEST POP POP POP DUP2 SHL ADD DUP5 SSTORE PUSH3 0x110 JUMP JUMPDEST ADD MLOAD PUSH1 0x0 NOT DUP4 DUP10 SHL PUSH1 0xF8 AND SHR NOT AND SWAP1 SSTORE CODESIZE DUP1 DUP1 PUSH3 0x337 JUMP JUMPDEST DUP4 DUP6 ADD MLOAD DUP7 SSTORE DUP15 SWAP8 SWAP1 SWAP6 ADD SWAP5 SWAP4 DUP5 ADD SWAP4 ADD PUSH3 0x324 JUMP JUMPDEST SWAP1 SWAP2 POP DUP7 PUSH1 0x0 MSTORE DUP4 PUSH1 0x0 KECCAK256 DUP7 DUP1 DUP6 ADD PUSH1 0x5 SHR DUP3 ADD SWAP3 DUP7 DUP7 LT PUSH3 0x3C1 JUMPI JUMPDEST SWAP2 DUP13 SWAP2 DUP7 SWAP6 SWAP5 SWAP4 ADD PUSH1 0x5 SHR ADD SWAP2 JUMPDEST DUP3 DUP2 LT PUSH3 0x3B1 JUMPI POP POP PUSH3 0xE7 JUMP JUMPDEST PUSH1 0x0 DUP2 SSTORE DUP6 SWAP5 POP DUP13 SWAP2 ADD PUSH3 0x3A1 JUMP JUMPDEST SWAP3 POP DUP2 SWAP3 PUSH3 0x393 JUMP JUMPDEST PUSH4 0x4E487B71 PUSH1 0xE0 SHL PUSH1 0x0 MSTORE PUSH1 0x22 PUSH1 0x4 MSTORE PUSH1 0x24 PUSH1 0x0 REVERT JUMPDEST SWAP2 PUSH1 0x7F AND SWAP2 PUSH3 0xD3 JUMP JUMPDEST PUSH1 0x0 DUP1 REVERT JUMPDEST PUSH1 0x40 DUP1 MLOAD SWAP2 SWAP1 DUP3 ADD PUSH1 0x1 PUSH1 0x1 PUSH1 0x40 SHL SUB DUP2 GT DUP4 DUP3 LT OR PUSH3 0x2F0 JUMPI PUSH1 0x40 MSTORE JUMP JUMPDEST MLOAD SWAP1 PUSH1 0x1 PUSH1 0x1 PUSH1 0xA0 SHL SUB DUP3 AND DUP3 SUB PUSH3 0x3EC JUMPI JUMP INVALID PUSH1 0x80 PUSH1 0x40 DUP2 DUP2 MSTORE PUSH1 0x4 SWAP2 DUP3 CALLDATASIZE LT ISZERO PUSH2 0x16 JUMPI PUSH1 0x0 DUP1 REVERT JUMPDEST PUSH1 0x0 SWAP3 DUP4 CALLDATALOAD PUSH1 0xE0 SHR SWAP2 DUP3 PUSH4 0x65E5360 EQ PUSH2 0x163E JUMPI POP DUP2 PUSH4 0x6FDDE03 EQ PUSH2 0x1549 JUMPI DUP2 PUSH4 0x95EA7B3 EQ PUSH2 0x149F JUMPI DUP2 PUSH4 0xDFE1681 EQ PUSH2 0x145B JUMPI DUP2 PUSH4 0x18160DDD EQ PUSH2 0x143C JUMPI DUP2 PUSH4 0x23B872DD EQ PUSH2 0x1348 JUMPI DUP2 PUSH4 0x313CE567 EQ PUSH2 0x132C JUMPI DUP2 PUSH4 0x443CB4BC EQ PUSH2 0x130D JUMPI DUP2 PUSH4 0x4AC0EB1D EQ PUSH2 0xDDD JUMPI DUP2 PUSH4 0x55F57510 EQ PUSH2 0xD73 JUMPI DUP2 PUSH4 0x5A76F25E EQ PUSH2 0xD54 JUMPI DUP2 PUSH4 0x6882A888 EQ PUSH2 0xD36 JUMPI DUP2 PUSH4 0x70A08231 EQ PUSH2 0xCFF JUMPI DUP2 PUSH4 0x82C0AB21 EQ PUSH2 0xBA3 JUMPI DUP2 PUSH4 0x95D89B41 EQ PUSH2 0xAA0 JUMPI DUP2 PUSH4 0x9C8F9F23 EQ PUSH2 0x6E1 JUMPI DUP2 PUSH4 0x9F1D0F59 EQ PUSH2 0x25B JUMPI POP DUP1 PUSH4 0xA035B1FE EQ PUSH2 0x23D JUMPI DUP1 PUSH4 0xA1634B14 EQ PUSH2 0x21F JUMPI DUP1 PUSH4 0xA9059CBB EQ PUSH2 0x1EF JUMPI DUP1 PUSH4 0xD21220A7 EQ PUSH2 0x1AC JUMPI DUP1 PUSH4 0xDD62ED3E EQ PUSH2 0x164 JUMPI PUSH4 0xDDCA3F43 EQ PUSH2 0x122 JUMPI PUSH1 0x0 DUP1 REVERT JUMPDEST CALLVALUE PUSH2 0x160 JUMPI DUP2 PUSH1 0x3 NOT CALLDATASIZE ADD SLT PUSH2 0x160 JUMPI PUSH1 0x20 SWAP1 MLOAD PUSH3 0xFFFFFF PUSH32 0x0 AND DUP2 MSTORE RETURN JUMPDEST POP DUP1 REVERT JUMPDEST POP CALLVALUE PUSH2 0x160 JUMPI DUP1 PUSH1 0x3 NOT CALLDATASIZE ADD SLT PUSH2 0x160 JUMPI DUP1 PUSH1 0x20 SWAP3 PUSH2 0x181 PUSH2 0x16A6 JUMP JUMPDEST PUSH2 0x189 PUSH2 0x16C1 JUMP JUMPDEST PUSH1 0x1 PUSH1 0x1 PUSH1 0xA0 SHL SUB SWAP2 DUP3 AND DUP4 MSTORE PUSH1 0x1 DUP7 MSTORE DUP4 DUP4 KECCAK256 SWAP2 AND DUP3 MSTORE DUP5 MSTORE KECCAK256 SLOAD SWAP1 MLOAD SWAP1 DUP2 MSTORE RETURN JUMPDEST POP CALLVALUE PUSH2 0x160 JUMPI DUP2 PUSH1 0x3 NOT CALLDATASIZE ADD SLT PUSH2 0x160 JUMPI MLOAD PUSH32 0x0 PUSH1 0x1 PUSH1 0x1 PUSH1 0xA0 SHL SUB AND DUP2 MSTORE PUSH1 0x20 SWAP1 RETURN JUMPDEST POP CALLVALUE PUSH2 0x160 JUMPI DUP1 PUSH1 0x3 NOT CALLDATASIZE ADD SLT PUSH2 0x160 JUMPI PUSH1 0x20 SWAP1 PUSH2 0x218 PUSH2 0x20E PUSH2 0x16A6 JUMP JUMPDEST PUSH1 0x24 CALLDATALOAD SWAP1 CALLER PUSH2 0x170F JUMP JUMPDEST MLOAD PUSH1 0x1 DUP2 MSTORE RETURN JUMPDEST POP CALLVALUE PUSH2 0x160 JUMPI DUP2 PUSH1 0x3 NOT CALLDATASIZE ADD SLT PUSH2 0x160 JUMPI MLOAD PUSH3 0xD89E7 NOT DUP2 MSTORE PUSH1 0x20 SWAP1 RETURN JUMPDEST POP CALLVALUE PUSH2 0x160 JUMPI DUP2 PUSH1 0x3 NOT CALLDATASIZE ADD SLT PUSH2 0x160 JUMPI PUSH1 0x20 SWAP1 PUSH1 0x8 SLOAD SWAP1 MLOAD SWAP1 DUP2 MSTORE RETURN JUMPDEST DUP4 DUP4 CALLVALUE PUSH2 0x160 JUMPI PUSH1 0x60 CALLDATASIZE PUSH1 0x3 NOT ADD SLT PUSH2 0x160 JUMPI PUSH2 0x276 PUSH2 0x16A6 JUMP JUMPDEST PUSH1 0x44 CALLDATALOAD SWAP3 SWAP1 PUSH1 0x24 CALLDATALOAD PUSH2 0x286 PUSH2 0x185B JUMP JUMPDEST DUP1 ISZERO PUSH2 0x6AD JUMPI PUSH1 0x1 PUSH1 0x1 PUSH1 0xA0 SHL SUB SWAP2 DUP3 AND PUSH32 0x0 DUP4 AND DUP2 DUP2 EQ SWAP4 SWAP2 PUSH2 0x2D2 SWAP1 DUP6 SWAP1 DUP2 ISZERO PUSH2 0x681 JUMPI JUMPDEST POP PUSH2 0x188B JUMP JUMPDEST PUSH2 0x309 PUSH3 0xFFFFFF PUSH2 0x302 PUSH32 0x0 PUSH2 0x18C7 JUMP JUMPDEST AND DUP5 PUSH2 0x1810 JUMP JUMPDEST DUP5 ISZERO PUSH2 0x554 JUMPI PUSH1 0x7 SLOAD SWAP1 PUSH2 0x31D DUP3 DUP3 PUSH2 0x1810 JUMP JUMPDEST SWAP1 PUSH1 0x6 SLOAD PUSH2 0x2710 SWAP1 DUP2 DUP2 MUL SWAP2 DUP2 DUP4 DIV EQ SWAP1 ISZERO OR ISZERO PUSH2 0x541 JUMPI PUSH2 0x353 PUSH2 0x363 SWAP4 PUSH2 0x34D DUP10 SWAP9 SWAP8 SWAP7 SWAP5 PUSH2 0x35C SWAP5 PUSH2 0x17ED JUMP JUMPDEST SWAP1 PUSH2 0x1823 JUMP JUMPDEST SWAP11 DUP12 LT ISZERO PUSH2 0x18DC JUMP JUMPDEST DUP10 LT PUSH2 0x191E JUMP JUMPDEST DUP7 MLOAD PUSH4 0x23B872DD PUSH1 0xE0 SHL DUP2 MSTORE CALLER DUP2 DUP12 ADD SWAP1 DUP2 MSTORE ADDRESS PUSH1 0x20 DUP3 DUP2 ADD SWAP2 SWAP1 SWAP2 MSTORE PUSH1 0x40 DUP3 ADD SWAP6 SWAP1 SWAP6 MSTORE SWAP1 SWAP2 DUP5 SWAP2 DUP4 SWAP2 SWAP1 DUP3 SWAP1 DUP11 SWAP1 DUP3 SWAP1 PUSH1 0x60 ADD SUB SWAP3 GAS CALL DUP1 ISZERO PUSH2 0x537 JUMPI PUSH2 0x3DC SWAP3 DUP5 SWAP3 DUP11 SWAP3 PUSH2 0x51A JUMPI JUMPDEST POP DUP9 MLOAD PUSH4 0xA9059CBB PUSH1 0xE0 SHL DUP2 MSTORE CALLER DUP2 DUP14 ADD SWAP1 DUP2 MSTORE PUSH1 0x20 DUP2 ADD SWAP4 SWAP1 SWAP4 MSTORE SWAP4 DUP5 SWAP3 DUP4 SWAP2 DUP11 SWAP2 DUP4 SWAP2 PUSH1 0x40 SWAP1 SWAP2 ADD SWAP1 JUMP JUMPDEST SUB SWAP3 PUSH32 0x0 AND GAS CALL DUP1 ISZERO PUSH2 0x510 JUMPI PUSH2 0x4E2 JUMPI JUMPDEST POP POP PUSH2 0x41B DUP2 PUSH1 0x6 SLOAD PUSH2 0x17ED JUMP JUMPDEST PUSH1 0x6 SSTORE PUSH2 0x42A DUP6 PUSH1 0x7 SLOAD PUSH2 0x187E JUMP JUMPDEST PUSH1 0x7 SSTORE JUMPDEST PUSH1 0x7 SLOAD PUSH8 0xDE0B6B3A7640000 SWAP1 DUP2 DUP2 MUL SWAP2 DUP2 DUP4 DIV EQ SWAP1 ISZERO OR ISZERO PUSH2 0x4CF JUMPI PUSH1 0x6 SLOAD PUSH1 0x20 SWAP8 POP PUSH2 0x45B SWAP2 PUSH2 0x1823 JUMP JUMPDEST SWAP2 DUP3 PUSH1 0x8 SSTORE DUP1 PUSH1 0x0 EQ PUSH2 0x4C0 JUMPI DUP2 SWAP4 JUMPDEST POP ISZERO PUSH2 0x4BB JUMPI POP PUSH2 0x47B DUP5 PUSH2 0x1963 JUMP JUMPDEST DUP4 MLOAD SWAP3 DUP4 MSTORE DUP6 DUP4 ADD MSTORE DUP3 DUP3 ADD MSTORE CALLER SWAP1 PUSH32 0x86CC8BFDFDFABC765AC3E479A03D9E964B00478F3DD26615949FA6B475904B02 PUSH1 0x60 CALLER SWAP3 LOG3 PUSH1 0x1 PUSH1 0x5 SSTORE MLOAD SWAP1 DUP2 MSTORE RETURN JUMPDEST PUSH2 0x47B JUMP JUMPDEST PUSH2 0x4C9 DUP7 PUSH2 0x1963 JUMP JUMPDEST SWAP4 PUSH2 0x46B JUMP JUMPDEST PUSH4 0x4E487B71 PUSH1 0xE0 SHL DUP5 MSTORE PUSH1 0x11 DUP8 MSTORE PUSH1 0x24 DUP5 REVERT JUMPDEST DUP2 PUSH2 0x501 SWAP3 SWAP1 RETURNDATASIZE LT PUSH2 0x509 JUMPI JUMPDEST PUSH2 0x4F9 DUP2 DUP4 PUSH2 0x16D7 JUMP JUMPDEST DUP2 ADD SWAP1 PUSH2 0x1843 JUMP JUMPDEST POP DUP7 DUP1 PUSH2 0x40D JUMP JUMPDEST POP RETURNDATASIZE PUSH2 0x4EF JUMP JUMPDEST DUP7 MLOAD RETURNDATASIZE DUP8 DUP3 RETURNDATACOPY RETURNDATASIZE SWAP1 REVERT JUMPDEST PUSH2 0x530 SWAP1 DUP5 RETURNDATASIZE DUP7 GT PUSH2 0x509 JUMPI PUSH2 0x4F9 DUP2 DUP4 PUSH2 0x16D7 JUMP JUMPDEST POP DUP12 PUSH2 0x3AF JUMP JUMPDEST DUP8 MLOAD RETURNDATASIZE DUP9 DUP3 RETURNDATACOPY RETURNDATASIZE SWAP1 REVERT JUMPDEST PUSH4 0x4E487B71 PUSH1 0xE0 SHL DUP10 MSTORE PUSH1 0x11 DUP13 MSTORE PUSH1 0x24 DUP10 REVERT JUMPDEST PUSH1 0x6 SWAP3 SWAP2 SWAP3 SLOAD SWAP1 PUSH2 0x565 DUP3 DUP3 PUSH2 0x1810 JUMP JUMPDEST SWAP1 PUSH1 0x7 SLOAD PUSH2 0x2710 SWAP1 DUP2 DUP2 MUL SWAP2 DUP2 DUP4 DIV EQ SWAP1 ISZERO OR ISZERO PUSH2 0x541 JUMPI PUSH2 0x353 PUSH2 0x595 SWAP4 PUSH2 0x34D DUP10 SWAP9 SWAP8 SWAP7 SWAP5 PUSH2 0x35C SWAP5 PUSH2 0x17ED JUMP JUMPDEST DUP7 MLOAD PUSH4 0x23B872DD PUSH1 0xE0 SHL DUP2 MSTORE CALLER DUP2 DUP12 ADD SWAP1 DUP2 MSTORE ADDRESS PUSH1 0x20 DUP3 DUP2 ADD SWAP2 SWAP1 SWAP2 MSTORE PUSH1 0x40 DUP3 ADD SWAP6 SWAP1 SWAP6 MSTORE SWAP1 SWAP2 DUP5 SWAP2 DUP4 SWAP2 SWAP1 DUP3 SWAP1 DUP11 SWAP1 DUP3 SWAP1 PUSH1 0x60 ADD SUB SWAP3 PUSH32 0x0 AND GAS CALL DUP1 ISZERO PUSH2 0x537 JUMPI PUSH2 0x62F SWAP3 DUP5 SWAP3 DUP11 SWAP3 PUSH2 0x51A JUMPI POP DUP9 MLOAD PUSH4 0xA9059CBB PUSH1 0xE0 SHL DUP2 MSTORE CALLER DUP2 DUP14 ADD SWAP1 DUP2 MSTORE PUSH1 0x20 DUP2 ADD SWAP4 SWAP1 SWAP4 MSTORE SWAP4 DUP5 SWAP3 DUP4 SWAP2 DUP11 SWAP2 DUP4 SWAP2 PUSH1 0x40 SWAP1 SWAP2 ADD SWAP1 JUMP JUMPDEST SUB SWAP3 GAS CALL DUP1 ISZERO PUSH2 0x510 JUMPI PUSH2 0x663 JUMPI JUMPDEST POP POP PUSH2 0x64C DUP2 PUSH1 0x7 SLOAD PUSH2 0x17ED JUMP JUMPDEST PUSH1 0x7 SSTORE PUSH2 0x65B DUP6 PUSH1 0x6 SLOAD PUSH2 0x187E JUMP JUMPDEST PUSH1 0x6 SSTORE PUSH2 0x42E JUMP JUMPDEST DUP2 PUSH2 0x679 SWAP3 SWAP1 RETURNDATASIZE LT PUSH2 0x509 JUMPI PUSH2 0x4F9 DUP2 DUP4 PUSH2 0x16D7 JUMP JUMPDEST POP DUP7 DUP1 PUSH2 0x63E JUMP JUMPDEST SWAP1 POP DUP4 PUSH32 0x0 AND EQ DUP11 PUSH2 0x2CC JUMP JUMPDEST DUP4 MLOAD PUSH3 0x461BCD PUSH1 0xE5 SHL DUP2 MSTORE PUSH1 0x20 DUP2 DUP9 ADD MSTORE PUSH1 0xE PUSH1 0x24 DUP3 ADD MSTORE PUSH14 0x125B9D985B1A5908185B5BDD5B9D PUSH1 0x92 SHL PUSH1 0x44 DUP3 ADD MSTORE PUSH1 0x64 SWAP1 REVERT JUMPDEST DUP4 SWAP2 POP CALLVALUE PUSH2 0x160 JUMPI PUSH1 0x20 DUP1 PUSH1 0x3 NOT CALLDATASIZE ADD SLT PUSH2 0xA9C JUMPI DUP2 CALLDATALOAD PUSH2 0x700 PUSH2 0x185B JUMP JUMPDEST DUP1 ISZERO PUSH2 0xA65 JUMPI CALLER DUP5 MSTORE DUP4 DUP3 MSTORE DUP1 DUP6 DUP6 KECCAK256 SLOAD LT PUSH2 0xA2B JUMPI PUSH1 0x2 SLOAD SWAP4 PUSH2 0x73F PUSH2 0x732 DUP7 PUSH2 0x72D PUSH1 0x6 SLOAD DUP7 PUSH2 0x1810 JUMP JUMPDEST PUSH2 0x1823 JUMP JUMPDEST SWAP6 PUSH2 0x72D PUSH1 0x7 SLOAD DUP6 PUSH2 0x1810 JUMP JUMPDEST SWAP4 DUP6 ISZERO ISZERO DUP1 PUSH2 0xA22 JUMPI JUMPDEST ISZERO PUSH2 0x9DF JUMPI CALLER ISZERO PUSH2 0x9CA JUMPI CALLER DUP3 MSTORE DUP2 DUP5 MSTORE DUP7 DUP3 KECCAK256 SLOAD DUP4 DUP2 LT PUSH2 0x99E JUMPI DUP4 SWAP1 CALLER DUP5 MSTORE DUP4 DUP7 MSTORE SUB DUP8 DUP4 KECCAK256 SSTORE DUP3 PUSH1 0x2 SLOAD SUB PUSH1 0x2 SSTORE DUP2 DUP8 MLOAD DUP5 DUP2 MSTORE PUSH32 0xDDF252AD1BE2C89B69C2B068FC378DAA952BA7F163C4A11628F55A4DF523B3EF DUP7 CALLER SWAP3 LOG3 PUSH2 0x7B1 DUP7 PUSH1 0x6 SLOAD PUSH2 0x187E JUMP JUMPDEST DUP1 PUSH1 0x6 SSTORE PUSH2 0x7C1 DUP7 PUSH1 0x7 SLOAD PUSH2 0x187E JUMP JUMPDEST DUP1 PUSH1 0x7 SSTORE DUP2 ISZERO ISZERO DUP1 PUSH2 0x995 JUMPI JUMPDEST PUSH2 0x954 JUMPI JUMPDEST POP POP DUP7 MLOAD PUSH4 0xA9059CBB PUSH1 0xE0 SHL DUP1 DUP3 MSTORE CALLER DUP4 DUP4 ADD SWAP1 DUP2 MSTORE PUSH1 0x20 DUP2 ADD DUP10 SWAP1 MSTORE PUSH1 0x1 PUSH1 0x1 PUSH1 0xA0 SHL SUB SWAP4 SWAP3 SWAP1 DUP8 SWAP1 DUP3 SWAP1 DUP2 SWAP1 SUB PUSH1 0x40 ADD DUP2 DUP9 PUSH32 0x0 DUP10 AND GAS CALL DUP1 ISZERO PUSH2 0x94A JUMPI SWAP3 DUP6 DUP10 SWAP4 PUSH2 0x867 SWAP7 SWAP4 DUP11 SWAP7 PUSH2 0x92D JUMPI JUMPDEST POP DUP13 MLOAD SWAP1 DUP2 MSTORE CALLER SWAP3 DUP2 ADD SWAP3 DUP4 MSTORE PUSH1 0x20 DUP4 ADD SWAP5 SWAP1 SWAP5 MSTORE SWAP3 SWAP5 DUP6 SWAP4 DUP5 SWAP3 SWAP1 SWAP2 DUP4 SWAP2 PUSH1 0x40 ADD SWAP1 JUMP JUMPDEST SUB SWAP3 PUSH32 0x0 AND GAS CALL DUP1 ISZERO PUSH2 0x923 JUMPI SWAP1 DUP8 SWAP3 SWAP2 PUSH2 0x906 JUMPI JUMPDEST POP CALLER DUP2 MSTORE PUSH1 0x9 DUP5 MSTORE KECCAK256 PUSH2 0x8B0 DUP3 DUP3 SLOAD PUSH2 0x187E JUMP JUMPDEST SWAP1 SSTORE PUSH32 0x743033787F4738FF4D6A7225CE2BD0977EE5F86B91A902A58F5E4D0B297B4644 DUP6 MLOAD DUP1 PUSH2 0x8F4 CALLER SWAP5 DUP8 DUP10 DUP5 PUSH1 0x40 SWAP2 SWAP5 SWAP4 SWAP3 PUSH1 0x60 DUP3 ADD SWAP6 DUP3 MSTORE PUSH1 0x20 DUP3 ADD MSTORE ADD MSTORE JUMP JUMPDEST SUB SWAP1 LOG2 PUSH1 0x1 PUSH1 0x5 SSTORE DUP4 MLOAD SWAP3 DUP4 MSTORE DUP3 ADD MSTORE RETURN JUMPDEST PUSH2 0x91C SWAP1 DUP6 RETURNDATASIZE DUP8 GT PUSH2 0x509 JUMPI PUSH2 0x4F9 DUP2 DUP4 PUSH2 0x16D7 JUMP JUMPDEST POP DUP8 PUSH2 0x89C JUMP JUMPDEST DUP8 MLOAD RETURNDATASIZE DUP5 DUP3 RETURNDATACOPY RETURNDATASIZE SWAP1 REVERT JUMPDEST PUSH2 0x943 SWAP1 DUP8 RETURNDATASIZE DUP10 GT PUSH2 0x509 JUMPI PUSH2 0x4F9 DUP2 DUP4 PUSH2 0x16D7 JUMP JUMPDEST POP DUP14 PUSH2 0x842 JUMP JUMPDEST DUP11 MLOAD RETURNDATASIZE DUP8 DUP3 RETURNDATACOPY RETURNDATASIZE SWAP1 REVERT JUMPDEST PUSH8 0xDE0B6B3A7640000 SWAP1 DUP2 DUP2 MUL SWAP2 DUP2 DUP4 DIV EQ SWAP1 ISZERO OR ISZERO PUSH2 0x982 JUMPI SWAP1 PUSH2 0x978 SWAP2 PUSH2 0x1823 JUMP JUMPDEST PUSH1 0x8 SSTORE DUP8 DUP1 PUSH2 0x7D3 JUMP JUMPDEST PUSH4 0x4E487B71 PUSH1 0xE0 SHL DUP5 MSTORE PUSH1 0x11 DUP4 MSTORE PUSH1 0x24 DUP5 REVERT JUMPDEST POP DUP1 ISZERO ISZERO PUSH2 0x7CE JUMP JUMPDEST DUP8 MLOAD PUSH4 0x391434E3 PUSH1 0xE2 SHL DUP2 MSTORE CALLER SWAP3 DUP2 ADD SWAP3 DUP4 MSTORE PUSH1 0x20 DUP4 ADD SWAP2 SWAP1 SWAP2 MSTORE PUSH1 0x40 DUP3 ADD DUP5 SWAP1 MSTORE SWAP1 DUP2 SWAP1 PUSH1 0x60 ADD SUB SWAP1 REVERT JUMPDEST PUSH1 0x24 SWAP2 DUP8 MLOAD SWAP2 PUSH4 0x4B637E8F PUSH1 0xE1 SHL DUP4 MSTORE DUP3 ADD MSTORE REVERT JUMPDEST DUP7 MLOAD PUSH3 0x461BCD PUSH1 0xE5 SHL DUP2 MSTORE SWAP1 DUP2 ADD DUP5 SWAP1 MSTORE PUSH1 0x1D PUSH1 0x24 DUP3 ADD MSTORE PUSH32 0x496E73756666696369656E74206C6971756964697479206275726E6564000000 PUSH1 0x44 DUP3 ADD MSTORE PUSH1 0x64 SWAP1 REVERT JUMPDEST POP DUP5 ISZERO ISZERO PUSH2 0x749 JUMP JUMPDEST DUP5 MLOAD PUSH3 0x461BCD PUSH1 0xE5 SHL DUP2 MSTORE DUP1 DUP5 ADD DUP4 SWAP1 MSTORE PUSH1 0x14 PUSH1 0x24 DUP3 ADD MSTORE PUSH20 0x496E73756666696369656E742062616C616E6365 PUSH1 0x60 SHL PUSH1 0x44 DUP3 ADD MSTORE PUSH1 0x64 SWAP1 REVERT JUMPDEST DUP5 MLOAD PUSH3 0x461BCD PUSH1 0xE5 SHL DUP2 MSTORE DUP1 DUP5 ADD DUP4 SWAP1 MSTORE PUSH1 0x11 PUSH1 0x24 DUP3 ADD MSTORE PUSH17 0x496E76616C6964206C6971756964697479 PUSH1 0x78 SHL PUSH1 0x44 DUP3 ADD MSTORE PUSH1 0x64 SWAP1 REVERT JUMPDEST DUP3 DUP1 REVERT JUMPDEST DUP4 DUP4 CALLVALUE PUSH2 0x160 JUMPI DUP2 PUSH1 0x3 NOT CALLDATASIZE ADD SLT PUSH2 0x160 JUMPI DUP1 MLOAD SWAP2 DUP1 SWAP4 DUP1 SLOAD SWAP2 PUSH1 0x1 SWAP1 DUP4 DUP3 SHR SWAP3 DUP3 DUP6 AND SWAP5 DUP6 ISZERO PUSH2 0xB99 JUMPI JUMPDEST PUSH1 0x20 SWAP6 DUP7 DUP7 LT DUP2 EQ PUSH2 0xB86 JUMPI DUP6 DUP10 MSTORE SWAP1 DUP2 ISZERO PUSH2 0xB62 JUMPI POP PUSH1 0x1 EQ PUSH2 0xB0A JUMPI JUMPDEST PUSH2 0xB06 DUP8 DUP8 PUSH2 0xAFC DUP3 DUP13 SUB DUP4 PUSH2 0x16D7 JUMP JUMPDEST MLOAD SWAP2 DUP3 SWAP2 DUP3 PUSH2 0x165D JUMP JUMPDEST SUB SWAP1 RETURN JUMPDEST DUP2 MSTORE SWAP3 SWAP6 POP PUSH32 0x8A35ACFBC15FF81A39AE7D344FD709F28E8600B4AA8C65C6B64BFE7FE36BD19B JUMPDEST DUP3 DUP5 LT PUSH2 0xB4F JUMPI POP POP POP DUP3 PUSH2 0xB06 SWAP5 PUSH2 0xAFC SWAP3 DUP3 ADD ADD SWAP5 DUP7 DUP1 PUSH2 0xAEB JUMP JUMPDEST DUP1 SLOAD DUP7 DUP6 ADD DUP9 ADD MSTORE SWAP3 DUP7 ADD SWAP3 DUP2 ADD PUSH2 0xB31 JUMP JUMPDEST PUSH1 0xFF NOT AND DUP9 DUP8 ADD MSTORE POP POP POP POP ISZERO ISZERO PUSH1 0x5 SHL DUP4 ADD ADD SWAP3 POP PUSH2 0xAFC DUP3 PUSH2 0xB06 DUP7 DUP1 PUSH2 0xAEB JUMP JUMPDEST PUSH4 0x4E487B71 PUSH1 0xE0 SHL DUP5 MSTORE PUSH1 0x22 DUP4 MSTORE PUSH1 0x24 DUP5 REVERT JUMPDEST SWAP4 PUSH1 0x7F AND SWAP4 PUSH2 0xACC JUMP JUMPDEST DUP3 DUP5 CALLVALUE PUSH2 0xCFC JUMPI DUP2 PUSH1 0x3 NOT CALLDATASIZE ADD SLT PUSH2 0xCFC JUMPI PUSH2 0xBBD PUSH2 0x16A6 JUMP JUMPDEST PUSH2 0xC00 PUSH1 0x1 DUP1 PUSH1 0xA0 SHL SUB DUP1 SWAP3 AND DUP3 PUSH32 0x0 AND DUP2 EQ SWAP1 DUP2 SWAP4 DUP3 ISZERO PUSH2 0xCD0 JUMPI JUMPDEST POP POP PUSH2 0x188B JUMP JUMPDEST PUSH2 0xC39 PUSH3 0xFFFFFF PUSH2 0xC30 PUSH32 0x0 PUSH2 0x18C7 JUMP JUMPDEST AND PUSH1 0x24 CALLDATALOAD PUSH2 0x1810 JUMP JUMPDEST SWAP1 ISZERO PUSH2 0xC92 JUMPI PUSH2 0xC4B PUSH1 0x7 SLOAD DUP3 PUSH2 0x1810 JUMP JUMPDEST SWAP2 PUSH1 0x6 SLOAD SWAP1 PUSH2 0x2710 SWAP2 DUP3 DUP2 MUL SWAP3 DUP2 DUP5 DIV EQ SWAP1 ISZERO OR ISZERO PUSH2 0xC7F JUMPI POP PUSH1 0x20 SWAP5 POP PUSH2 0xC77 SWAP3 SWAP2 PUSH2 0x34D SWAP2 PUSH2 0x17ED JUMP JUMPDEST SWAP1 JUMPDEST MLOAD SWAP1 DUP2 MSTORE RETURN JUMPDEST PUSH4 0x4E487B71 PUSH1 0xE0 SHL DUP2 MSTORE PUSH1 0x11 DUP7 MSTORE PUSH1 0x24 SWAP1 REVERT JUMPDEST PUSH2 0xC9E PUSH1 0x6 SLOAD DUP3 PUSH2 0x1810 JUMP JUMPDEST SWAP2 PUSH1 0x7 SLOAD SWAP1 PUSH2 0x2710 SWAP2 DUP3 DUP2 MUL SWAP3 DUP2 DUP5 DIV EQ SWAP1 ISZERO OR ISZERO PUSH2 0xC7F JUMPI POP PUSH1 0x20 SWAP5 POP PUSH2 0xCCA SWAP3 SWAP2 PUSH2 0x34D SWAP2 PUSH2 0x17ED JUMP JUMPDEST SWAP1 PUSH2 0xC79 JUMP JUMPDEST PUSH32 0x0 AND EQ SWAP1 POP DUP7 DUP1 PUSH2 0xBF9 JUMP JUMPDEST DUP1 REVERT JUMPDEST POP POP CALLVALUE PUSH2 0x160 JUMPI PUSH1 0x20 CALLDATASIZE PUSH1 0x3 NOT ADD SLT PUSH2 0x160 JUMPI PUSH1 0x20 SWAP2 DUP2 SWAP1 PUSH1 0x1 PUSH1 0x1 PUSH1 0xA0 SHL SUB PUSH2 0xD27 PUSH2 0x16A6 JUMP JUMPDEST AND DUP2 MSTORE DUP1 DUP5 MSTORE KECCAK256 SLOAD SWAP1 MLOAD SWAP1 DUP2 MSTORE RETURN JUMPDEST POP POP CALLVALUE PUSH2 0x160 JUMPI DUP2 PUSH1 0x3 NOT CALLDATASIZE ADD SLT PUSH2 0x160 JUMPI PUSH1 0x20 SWAP1 MLOAD PUSH3 0xD89E8 DUP2 MSTORE RETURN JUMPDEST POP POP CALLVALUE PUSH2 0x160 JUMPI DUP2 PUSH1 0x3 NOT CALLDATASIZE ADD SLT PUSH2 0x160 JUMPI PUSH1 0x20 SWAP1 PUSH1 0x7 SLOAD SWAP1 MLOAD SWAP1 DUP2 MSTORE RETURN JUMPDEST POP POP CALLVALUE PUSH2 0x160 JUMPI PUSH1 0x20 CALLDATASIZE PUSH1 0x3 NOT ADD SLT PUSH2 0x160 JUMPI PUSH1 0xA0 SWAP2 DUP2 SWAP1 PUSH1 0x1 PUSH1 0x1 PUSH1 0xA0 SHL SUB PUSH2 0xD9B PUSH2 0x16A6 JUMP JUMPDEST AND DUP2 MSTORE PUSH1 0x9 PUSH1 0x20 MSTORE KECCAK256 SWAP1 DUP2 SLOAD SWAP2 PUSH1 0x1 DUP2 ADD SLOAD SWAP2 PUSH1 0x3 PUSH1 0x2 DUP4 ADD SLOAD SWAP3 ADD SLOAD SWAP3 DUP2 MLOAD SWAP5 DUP6 MSTORE DUP1 PUSH1 0x2 SIGNEXTEND PUSH1 0x20 DUP7 ADD MSTORE PUSH1 0x18 SHR PUSH1 0x2 SIGNEXTEND SWAP1 DUP5 ADD MSTORE PUSH1 0x60 DUP4 ADD MSTORE PUSH1 0x80 DUP3 ADD MSTORE RETURN JUMPDEST SWAP1 POP CALLVALUE PUSH2 0xA9C JUMPI PUSH1 0xC0 CALLDATASIZE PUSH1 0x3 NOT ADD SLT PUSH2 0xA9C JUMPI DUP1 CALLDATALOAD SWAP2 PUSH1 0x24 SWAP1 DUP2 CALLDATALOAD SWAP3 PUSH1 0x84 CALLDATALOAD DUP1 PUSH1 0x2 SIGNEXTEND SWAP2 DUP3 DUP3 SUB PUSH2 0x1309 JUMPI PUSH1 0xA4 CALLDATALOAD SWAP3 DUP4 PUSH1 0x2 SIGNEXTEND SWAP1 DUP2 DUP6 SUB PUSH2 0x1305 JUMPI PUSH2 0xE20 PUSH2 0x185B JUMP JUMPDEST DUP9 ISZERO ISZERO DUP1 PUSH2 0x12FC JUMPI JUMPDEST ISZERO PUSH2 0x12C8 JUMPI DUP2 DUP2 SLT ISZERO PUSH2 0x1291 JUMPI PUSH3 0xD89E7 NOT SGT ISZERO SWAP1 DUP2 PUSH2 0x1283 JUMPI JUMPDEST POP ISZERO PUSH2 0x124D JUMPI PUSH1 0x6 SLOAD DUP1 ISZERO DUP1 PUSH2 0x1243 JUMPI JUMPDEST ISZERO PUSH2 0x1151 JUMPI POP PUSH2 0xE6F PUSH2 0xE6A DUP9 SWAP8 DUP1 SWAP10 PUSH2 0x1810 JUMP JUMPDEST PUSH2 0x1974 JUMP JUMPDEST SWAP5 PUSH3 0xFFFFFF NOT PUSH1 0xA SLOAD AND PUSH1 0xA SSTORE JUMPDEST DUP6 ISZERO PUSH2 0x110F JUMPI DUP5 MLOAD PUSH4 0x23B872DD PUSH1 0xE0 SHL DUP1 DUP3 MSTORE CALLER DUP5 DUP4 ADD SWAP1 DUP2 MSTORE ADDRESS PUSH1 0x20 DUP1 DUP4 ADD SWAP2 SWAP1 SWAP2 MSTORE PUSH1 0x40 DUP3 ADD DUP12 SWAP1 MSTORE SWAP5 SWAP3 PUSH1 0x1 PUSH1 0x1 PUSH1 0xA0 SHL SUB SWAP3 SWAP2 DUP14 SWAP2 SWAP1 DUP8 SWAP1 DUP3 SWAP1 DUP2 SWAP1 SUB PUSH1 0x60 ADD DUP2 DUP6 PUSH32 0x0 DUP10 AND GAS CALL DUP1 ISZERO PUSH2 0x1105 JUMPI SWAP3 DUP14 SWAP3 PUSH2 0xF27 SWAP6 SWAP3 DUP10 SWAP6 PUSH2 0x10E8 JUMPI JUMPDEST POP DUP12 MLOAD SWAP2 DUP3 MSTORE CALLER DUP8 DUP4 ADD SWAP1 DUP2 MSTORE ADDRESS PUSH1 0x20 DUP3 ADD MSTORE PUSH1 0x40 DUP2 ADD SWAP5 SWAP1 SWAP5 MSTORE SWAP1 SWAP5 DUP6 SWAP4 DUP5 SWAP3 SWAP2 DUP4 SWAP2 PUSH1 0x60 ADD SWAP1 JUMP JUMPDEST SUB SWAP3 PUSH32 0x0 AND GAS CALL DUP1 ISZERO PUSH2 0x10DE JUMPI PUSH2 0x10C1 JUMPI JUMPDEST POP PUSH2 0xF65 DUP9 PUSH1 0x6 SLOAD PUSH2 0x17ED JUMP JUMPDEST DUP1 PUSH1 0x6 SSTORE PUSH2 0xF75 DUP11 PUSH1 0x7 SLOAD PUSH2 0x17ED JUMP JUMPDEST DUP1 PUSH1 0x7 SSTORE PUSH8 0xDE0B6B3A7640000 SWAP1 DUP2 DUP2 MUL SWAP2 DUP2 DUP4 DIV EQ SWAP1 ISZERO OR ISZERO PUSH2 0x10AF JUMPI SWAP1 PUSH2 0xF9D SWAP2 PUSH2 0x1823 JUMP JUMPDEST PUSH1 0x8 SSTORE CALLER ISZERO PUSH2 0x109B JUMPI POP POP DUP4 PUSH2 0xB06 SWAP7 SWAP8 SWAP9 PUSH1 0x9 PUSH1 0x1 SWAP4 PUSH2 0xFC0 DUP10 PUSH1 0x2 SLOAD PUSH2 0x17ED JUMP JUMPDEST PUSH1 0x2 SSTORE CALLER DUP4 MSTORE DUP3 DUP2 MSTORE DUP4 DUP4 KECCAK256 DUP10 DUP2 SLOAD ADD SWAP1 SSTORE DUP4 MLOAD DUP10 DUP2 MSTORE DUP4 PUSH32 0xDDF252AD1BE2C89B69C2B068FC378DAA952BA7F163C4A11628F55A4DF523B3EF DUP4 CALLER SWAP4 LOG3 CALLER DUP4 MSTORE MSTORE KECCAK256 PUSH2 0x100D DUP7 DUP3 SLOAD PUSH2 0x17ED JUMP JUMPDEST DUP2 SSTORE ADD SWAP2 PUSH3 0xFFFFFF DUP4 SLOAD SWAP2 PUSH1 0x18 SHL PUSH6 0xFFFFFF000000 AND SWAP3 AND SWAP1 PUSH6 0xFFFFFFFFFFFF NOT AND OR OR SWAP1 SSTORE DUP1 MLOAD CALLER SWAP1 PUSH32 0x458F5FA412D0F69B08DD84872B0215675CC67BC1D5B6FD93300A1C3878B86196 CALLER SWAP2 DUP1 PUSH2 0x1078 DUP8 DUP12 DUP12 DUP5 PUSH1 0x40 SWAP2 SWAP5 SWAP4 SWAP3 PUSH1 0x60 DUP3 ADD SWAP6 DUP3 MSTORE PUSH1 0x20 DUP3 ADD MSTORE ADD MSTORE JUMP JUMPDEST SUB SWAP1 LOG3 PUSH1 0x1 PUSH1 0x5 SSTORE MLOAD SWAP4 DUP5 SWAP4 DUP5 PUSH1 0x40 SWAP2 SWAP5 SWAP4 SWAP3 PUSH1 0x60 DUP3 ADD SWAP6 DUP3 MSTORE PUSH1 0x20 DUP3 ADD MSTORE ADD MSTORE JUMP JUMPDEST DUP6 MLOAD PUSH4 0xEC442F05 PUSH1 0xE0 SHL DUP2 MSTORE SWAP1 DUP2 ADD DUP11 SWAP1 MSTORE REVERT JUMPDEST PUSH4 0x4E487B71 PUSH1 0xE0 SHL DUP13 MSTORE PUSH1 0x11 DUP4 MSTORE DUP4 DUP13 REVERT JUMPDEST PUSH2 0x10D7 SWAP1 DUP5 RETURNDATASIZE DUP7 GT PUSH2 0x509 JUMPI PUSH2 0x4F9 DUP2 DUP4 PUSH2 0x16D7 JUMP JUMPDEST POP CODESIZE PUSH2 0xF58 JUMP JUMPDEST DUP8 MLOAD RETURNDATASIZE DUP14 DUP3 RETURNDATACOPY RETURNDATASIZE SWAP1 REVERT JUMPDEST PUSH2 0x10FE SWAP1 DUP7 RETURNDATASIZE DUP9 GT PUSH2 0x509 JUMPI PUSH2 0x4F9 DUP2 DUP4 PUSH2 0x16D7 JUMP JUMPDEST POP CODESIZE PUSH2 0xEFD JUMP JUMPDEST DUP11 MLOAD RETURNDATASIZE DUP5 DUP3 RETURNDATACOPY RETURNDATASIZE SWAP1 REVERT JUMPDEST SWAP1 PUSH1 0x1D PUSH1 0x64 SWAP3 PUSH1 0x20 DUP8 MLOAD SWAP4 PUSH3 0x461BCD PUSH1 0xE5 SHL DUP6 MSTORE DUP5 ADD MSTORE DUP3 ADD MSTORE PUSH32 0x496E73756666696369656E74206C6971756964697479206D696E746564000000 PUSH1 0x44 DUP3 ADD MSTORE REVERT JUMPDEST PUSH1 0x7 SLOAD SWAP8 PUSH2 0x1163 DUP3 PUSH2 0x72D DUP12 DUP5 PUSH2 0x1810 JUMP JUMPDEST SWAP8 DUP1 DUP10 GT PUSH2 0x11E6 JUMPI POP PUSH1 0x64 CALLDATALOAD DUP9 LT PUSH2 0x11AE JUMPI PUSH2 0x1197 SWAP1 SWAP8 SWAP9 JUMPDEST PUSH2 0x72D PUSH2 0x1190 PUSH1 0x2 SLOAD SWAP5 PUSH2 0x72D DUP7 DUP14 PUSH2 0x1810 JUMP JUMPDEST SWAP4 DUP12 PUSH2 0x1810 JUMP JUMPDEST DUP1 DUP3 LT ISZERO PUSH2 0x11A7 JUMPI POP JUMPDEST SWAP5 PUSH2 0xE7D JUMP JUMPDEST SWAP1 POP PUSH2 0x11A1 JUMP JUMPDEST DUP6 MLOAD PUSH3 0x461BCD PUSH1 0xE5 SHL DUP2 MSTORE PUSH1 0x20 DUP2 DUP6 ADD MSTORE PUSH1 0x13 DUP2 DUP10 ADD MSTORE PUSH19 0x496E73756666696369656E7420746F6B656E31 PUSH1 0x68 SHL PUSH1 0x44 DUP3 ADD MSTORE PUSH1 0x64 SWAP1 REVERT JUMPDEST SWAP8 POP POP PUSH2 0x11F7 DUP9 PUSH2 0x72D DUP4 DUP11 PUSH2 0x1810 JUMP JUMPDEST PUSH1 0x44 CALLDATALOAD DUP2 LT PUSH2 0x120B JUMPI PUSH2 0x1197 SWAP1 SWAP8 SWAP9 PUSH2 0x117C JUMP JUMPDEST DUP6 MLOAD PUSH3 0x461BCD PUSH1 0xE5 SHL DUP2 MSTORE PUSH1 0x20 DUP2 DUP6 ADD MSTORE PUSH1 0x13 DUP2 DUP10 ADD MSTORE PUSH19 0x496E73756666696369656E7420746F6B656E3 PUSH1 0x6C SHL PUSH1 0x44 DUP3 ADD MSTORE PUSH1 0x64 SWAP1 REVERT JUMPDEST POP PUSH1 0x7 SLOAD ISZERO PUSH2 0xE55 JUMP JUMPDEST PUSH1 0x64 SWAP1 PUSH1 0x11 DUP7 PUSH1 0x20 DUP8 MLOAD SWAP4 PUSH3 0x461BCD PUSH1 0xE5 SHL DUP6 MSTORE DUP5 ADD MSTORE DUP3 ADD MSTORE PUSH17 0x5469636B206F7574206F662072616E6765 PUSH1 0x78 SHL PUSH1 0x44 DUP3 ADD MSTORE REVERT JUMPDEST PUSH3 0xD89E8 SWAP2 POP SGT ISZERO CODESIZE PUSH2 0xE44 JUMP JUMPDEST DUP6 MLOAD PUSH3 0x461BCD PUSH1 0xE5 SHL DUP2 MSTORE PUSH1 0x20 DUP2 DUP6 ADD MSTORE PUSH1 0x12 DUP2 DUP10 ADD MSTORE PUSH18 0x496E76616C6964207469636B2072616E6765 PUSH1 0x70 SHL PUSH1 0x44 DUP3 ADD MSTORE PUSH1 0x64 SWAP1 REVERT JUMPDEST DUP6 MLOAD PUSH3 0x461BCD PUSH1 0xE5 SHL DUP2 MSTORE PUSH1 0x20 DUP2 DUP6 ADD MSTORE PUSH1 0xF DUP2 DUP10 ADD MSTORE PUSH15 0x496E76616C696420616D6F756E7473 PUSH1 0x88 SHL PUSH1 0x44 DUP3 ADD MSTORE PUSH1 0x64 SWAP1 REVERT JUMPDEST POP DUP8 ISZERO ISZERO PUSH2 0xE29 JUMP JUMPDEST DUP10 DUP1 REVERT JUMPDEST DUP8 DUP1 REVERT JUMPDEST POP POP CALLVALUE PUSH2 0x160 JUMPI DUP2 PUSH1 0x3 NOT CALLDATASIZE ADD SLT PUSH2 0x160 JUMPI PUSH1 0x20 SWAP1 PUSH1 0x6 SLOAD SWAP1 MLOAD SWAP1 DUP2 MSTORE RETURN JUMPDEST POP POP CALLVALUE PUSH2 0x160 JUMPI DUP2 PUSH1 0x3 NOT CALLDATASIZE ADD SLT PUSH2 0x160 JUMPI PUSH1 0x20 SWAP1 MLOAD PUSH1 0x12 DUP2 MSTORE RETURN JUMPDEST SWAP1 POP DUP3 CALLVALUE PUSH2 0xCFC JUMPI PUSH1 0x60 CALLDATASIZE PUSH1 0x3 NOT ADD SLT PUSH2 0xCFC JUMPI PUSH2 0x1364 PUSH2 0x16A6 JUMP JUMPDEST PUSH2 0x136C PUSH2 0x16C1 JUMP JUMPDEST SWAP2 PUSH1 0x44 CALLDATALOAD SWAP4 PUSH1 0x1 DUP1 PUSH1 0xA0 SHL SUB DUP4 AND DUP1 DUP4 MSTORE PUSH1 0x1 PUSH1 0x20 MSTORE DUP7 DUP4 KECCAK256 CALLER DUP5 MSTORE PUSH1 0x20 MSTORE DUP7 DUP4 KECCAK256 SLOAD SWAP2 PUSH1 0x0 NOT DUP4 LT PUSH2 0x13A8 JUMPI JUMPDEST PUSH1 0x20 DUP9 PUSH2 0x218 DUP10 DUP10 DUP10 PUSH2 0x170F JUMP JUMPDEST DUP7 DUP4 LT PUSH2 0x1410 JUMPI DUP2 ISZERO PUSH2 0x13F9 JUMPI CALLER ISZERO PUSH2 0x13E2 JUMPI POP DUP3 MSTORE PUSH1 0x1 PUSH1 0x20 SWAP1 DUP2 MSTORE DUP7 DUP4 KECCAK256 CALLER DUP5 MSTORE DUP2 MSTORE SWAP2 DUP7 SWAP1 KECCAK256 SWAP1 DUP6 SWAP1 SUB SWAP1 SSTORE DUP3 SWAP1 PUSH2 0x218 DUP8 PUSH2 0x139A JUMP JUMPDEST DUP8 MLOAD PUSH4 0x4A1406B1 PUSH1 0xE1 SHL DUP2 MSTORE SWAP1 DUP2 ADD DUP5 SWAP1 MSTORE PUSH1 0x24 SWAP1 REVERT JUMPDEST DUP8 MLOAD PUSH4 0xE602DF05 PUSH1 0xE0 SHL DUP2 MSTORE SWAP1 DUP2 ADD DUP5 SWAP1 MSTORE PUSH1 0x24 SWAP1 REVERT JUMPDEST DUP8 MLOAD PUSH4 0x7DC7A0D9 PUSH1 0xE1 SHL DUP2 MSTORE CALLER SWAP2 DUP2 ADD SWAP2 DUP3 MSTORE PUSH1 0x20 DUP3 ADD SWAP4 SWAP1 SWAP4 MSTORE PUSH1 0x40 DUP2 ADD DUP8 SWAP1 MSTORE DUP3 SWAP2 POP PUSH1 0x60 ADD SUB SWAP1 REVERT JUMPDEST POP POP CALLVALUE PUSH2 0x160 JUMPI DUP2 PUSH1 0x3 NOT CALLDATASIZE ADD SLT PUSH2 0x160 JUMPI PUSH1 0x20 SWAP1 PUSH1 0x2 SLOAD SWAP1 MLOAD SWAP1 DUP2 MSTORE RETURN JUMPDEST POP POP CALLVALUE PUSH2 0x160 JUMPI DUP2 PUSH1 0x3 NOT CALLDATASIZE ADD SLT PUSH2 0x160 JUMPI MLOAD PUSH32 0x0 PUSH1 0x1 PUSH1 0x1 PUSH1 0xA0 SHL SUB AND DUP2 MSTORE PUSH1 0x20 SWAP1 RETURN JUMPDEST SWAP1 POP CALLVALUE PUSH2 0xA9C JUMPI DUP2 PUSH1 0x3 NOT CALLDATASIZE ADD SLT PUSH2 0xA9C JUMPI PUSH2 0x14B9 PUSH2 0x16A6 JUMP JUMPDEST PUSH1 0x24 CALLDATALOAD SWAP1 CALLER ISZERO PUSH2 0x1532 JUMPI PUSH1 0x1 PUSH1 0x1 PUSH1 0xA0 SHL SUB AND SWAP2 DUP3 ISZERO PUSH2 0x151B JUMPI POP DUP1 DUP4 PUSH1 0x20 SWAP6 CALLER DUP2 MSTORE PUSH1 0x1 DUP8 MSTORE DUP2 DUP2 KECCAK256 DUP6 DUP3 MSTORE DUP8 MSTORE KECCAK256 SSTORE DUP3 MLOAD SWAP1 DUP2 MSTORE PUSH32 0x8C5BE1E5EBEC7D5BD14F71427D1E84F3DD0314C0F7B2291E5B200AC8C7C3B925 DUP5 CALLER SWAP3 LOG3 MLOAD PUSH1 0x1 DUP2 MSTORE RETURN JUMPDEST DUP4 MLOAD PUSH4 0x4A1406B1 PUSH1 0xE1 SHL DUP2 MSTORE SWAP1 DUP2 ADD DUP6 SWAP1 MSTORE PUSH1 0x24 SWAP1 REVERT JUMPDEST DUP4 MLOAD PUSH4 0xE602DF05 PUSH1 0xE0 SHL DUP2 MSTORE DUP1 DUP5 ADD DUP7 SWAP1 MSTORE PUSH1 0x24 SWAP1 REVERT JUMPDEST SWAP2 SWAP1 POP CALLVALUE PUSH2 0xA9C JUMPI DUP3 PUSH1 0x3 NOT CALLDATASIZE ADD SLT PUSH2 0xA9C JUMPI DUP1 MLOAD SWAP2 DUP4 PUSH1 0x3 SLOAD SWAP1 PUSH1 0x1 SWAP1 DUP3 DUP3 SHR SWAP3 DUP3 DUP2 AND DUP1 ISZERO PUSH2 0x1634 JUMPI JUMPDEST PUSH1 0x20 SWAP6 DUP7 DUP7 LT DUP3 EQ PUSH2 0x1621 JUMPI POP DUP5 DUP9 MSTORE SWAP1 DUP2 ISZERO PUSH2 0x15FF JUMPI POP PUSH1 0x1 EQ PUSH2 0x15A6 JUMPI JUMPDEST PUSH2 0xB06 DUP7 DUP7 PUSH2 0xAFC DUP3 DUP12 SUB DUP4 PUSH2 0x16D7 JUMP JUMPDEST SWAP3 SWAP6 POP PUSH1 0x3 DUP4 MSTORE PUSH32 0xC2575A0E9E593C00F959F8C92F12DB2869C3395A3B0502D05E2516446F71F85B JUMPDEST DUP3 DUP5 LT PUSH2 0x15EC JUMPI POP POP POP DUP3 PUSH2 0xB06 SWAP5 PUSH2 0xAFC SWAP3 DUP3 ADD ADD SWAP5 CODESIZE PUSH2 0x1595 JUMP JUMPDEST DUP1 SLOAD DUP7 DUP6 ADD DUP9 ADD MSTORE SWAP3 DUP7 ADD SWAP3 DUP2 ADD PUSH2 0x15CF JUMP JUMPDEST PUSH1 0xFF NOT AND DUP8 DUP7 ADD MSTORE POP POP POP ISZERO ISZERO PUSH1 0x5 SHL DUP4 ADD ADD SWAP3 POP PUSH2 0xAFC DUP3 PUSH2 0xB06 CODESIZE PUSH2 0x1595 JUMP JUMPDEST PUSH4 0x4E487B71 PUSH1 0xE0 SHL DUP5 MSTORE PUSH1 0x22 SWAP1 MSTORE PUSH1 0x24 DUP4 REVERT JUMPDEST SWAP4 PUSH1 0x7F AND SWAP4 PUSH2 0x1575 JUMP JUMPDEST DUP5 SWAP1 CALLVALUE PUSH2 0x160 JUMPI DUP2 PUSH1 0x3 NOT CALLDATASIZE ADD SLT PUSH2 0x160 JUMPI PUSH1 0x20 SWAP1 PUSH1 0xA SLOAD PUSH1 0x2 SIGNEXTEND DUP2 MSTORE RETURN JUMPDEST PUSH1 0x20 DUP1 DUP3 MSTORE DUP3 MLOAD DUP2 DUP4 ADD DUP2 SWAP1 MSTORE SWAP1 SWAP4 SWAP3 PUSH1 0x0 JUMPDEST DUP3 DUP2 LT PUSH2 0x1692 JUMPI POP POP PUSH1 0x40 SWAP3 SWAP4 POP PUSH1 0x0 DUP4 DUP3 DUP5 ADD ADD MSTORE PUSH1 0x1F DUP1 NOT SWAP2 ADD AND ADD ADD SWAP1 JUMP JUMPDEST DUP2 DUP2 ADD DUP7 ADD MLOAD DUP5 DUP3 ADD PUSH1 0x40 ADD MSTORE DUP6 ADD PUSH2 0x1670 JUMP JUMPDEST PUSH1 0x4 CALLDATALOAD SWAP1 PUSH1 0x1 PUSH1 0x1 PUSH1 0xA0 SHL SUB DUP3 AND DUP3 SUB PUSH2 0x16BC JUMPI JUMP JUMPDEST PUSH1 0x0 DUP1 REVERT JUMPDEST PUSH1 0x24 CALLDATALOAD SWAP1 PUSH1 0x1 PUSH1 0x1 PUSH1 0xA0 SHL SUB DUP3 AND DUP3 SUB PUSH2 0x16BC JUMPI JUMP JUMPDEST SWAP1 PUSH1 0x1F DUP1 NOT SWAP2 ADD AND DUP2 ADD SWAP1 DUP2 LT PUSH8 0xFFFFFFFFFFFFFFFF DUP3 GT OR PUSH2 0x16F9 JUMPI PUSH1 0x40 MSTORE JUMP JUMPDEST PUSH4 0x4E487B71 PUSH1 0xE0 SHL PUSH1 0x0 MSTORE PUSH1 0x41 PUSH1 0x4 MSTORE PUSH1 0x24 PUSH1 0x0 REVERT JUMPDEST SWAP2 PUSH1 0x1 PUSH1 0x1 PUSH1 0xA0 SHL SUB DUP1 DUP5 AND SWAP3 DUP4 ISZERO PUSH2 0x17D4 JUMPI AND SWAP3 DUP4 ISZERO PUSH2 0x17BB JUMPI PUSH1 0x0 SWAP1 DUP4 DUP3 MSTORE DUP2 PUSH1 0x20 MSTORE PUSH1 0x40 DUP3 KECCAK256 SLOAD SWAP1 DUP4 DUP3 LT PUSH2 0x1789 JUMPI POP SWAP2 PUSH1 0x40 DUP3 DUP3 PUSH32 0xDDF252AD1BE2C89B69C2B068FC378DAA952BA7F163C4A11628F55A4DF523B3EF SWAP6 DUP8 PUSH1 0x20 SWAP7 MSTORE DUP3 DUP7 MSTORE SUB DUP3 DUP3 KECCAK256 SSTORE DUP7 DUP2 MSTORE KECCAK256 DUP2 DUP2 SLOAD ADD SWAP1 SSTORE PUSH1 0x40 MLOAD SWAP1 DUP2 MSTORE LOG3 JUMP JUMPDEST PUSH1 0x40 MLOAD PUSH4 0x391434E3 PUSH1 0xE2 SHL DUP2 MSTORE PUSH1 0x1 PUSH1 0x1 PUSH1 0xA0 SHL SUB SWAP2 SWAP1 SWAP2 AND PUSH1 0x4 DUP3 ADD MSTORE PUSH1 0x24 DUP2 ADD SWAP2 SWAP1 SWAP2 MSTORE PUSH1 0x44 DUP2 ADD DUP4 SWAP1 MSTORE PUSH1 0x64 SWAP1 REVERT JUMPDEST PUSH1 0x40 MLOAD PUSH4 0xEC442F05 PUSH1 0xE0 SHL DUP2 MSTORE PUSH1 0x0 PUSH1 0x4 DUP3 ADD MSTORE PUSH1 0x24 SWAP1 REVERT JUMPDEST PUSH1 0x40 MLOAD PUSH4 0x4B637E8F PUSH1 0xE1 SHL DUP2 MSTORE PUSH1 0x0 PUSH1 0x4 DUP3 ADD MSTORE PUSH1 0x24 SWAP1 REVERT JUMPDEST SWAP2 SWAP1 DUP3 ADD DUP1 SWAP3 GT PUSH2 0x17FA JUMPI JUMP JUMPDEST PUSH4 0x4E487B71 PUSH1 0xE0 SHL PUSH1 0x0 MSTORE PUSH1 0x11 PUSH1 0x4 MSTORE PUSH1 0x24 PUSH1 0x0 REVERT JUMPDEST DUP2 DUP2 MUL SWAP3 SWAP2 DUP2 ISZERO SWAP2 DUP5 DIV EQ OR ISZERO PUSH2 0x17FA JUMPI JUMP JUMPDEST DUP2 ISZERO PUSH2 0x182D JUMPI DIV SWAP1 JUMP JUMPDEST PUSH4 0x4E487B71 PUSH1 0xE0 SHL PUSH1 0x0 MSTORE PUSH1 0x12 PUSH1 0x4 MSTORE PUSH1 0x24 PUSH1 0x0 REVERT JUMPDEST SWAP1 DUP2 PUSH1 0x20 SWAP2 SUB SLT PUSH2 0x16BC JUMPI MLOAD DUP1 ISZERO ISZERO DUP2 SUB PUSH2 0x16BC JUMPI SWAP1 JUMP JUMPDEST PUSH1 0x2 PUSH1 0x5 SLOAD EQ PUSH2 0x186C JUMPI PUSH1 0x2 PUSH1 0x5 SSTORE JUMP JUMPDEST PUSH1 0x40 MLOAD PUSH4 0x3EE5AEB5 PUSH1 0xE0 SHL DUP2 MSTORE PUSH1 0x4 SWAP1 REVERT JUMPDEST SWAP2 SWAP1 DUP3 SUB SWAP2 DUP3 GT PUSH2 0x17FA JUMPI JUMP JUMPDEST ISZERO PUSH2 0x1892 JUMPI JUMP JUMPDEST PUSH1 0x40 MLOAD PUSH3 0x461BCD PUSH1 0xE5 SHL DUP2 MSTORE PUSH1 0x20 PUSH1 0x4 DUP3 ADD MSTORE PUSH1 0xD PUSH1 0x24 DUP3 ADD MSTORE PUSH13 0x24B73B30B634B2103A37B5B2B7 PUSH1 0x99 SHL PUSH1 0x44 DUP3 ADD MSTORE PUSH1 0x64 SWAP1 REVERT JUMPDEST SWAP1 PUSH3 0xFFFFFF DUP1 SWAP3 AND PUSH2 0x2710 SUB SWAP2 DUP3 GT PUSH2 0x17FA JUMPI JUMP JUMPDEST ISZERO PUSH2 0x18E3 JUMPI JUMP JUMPDEST PUSH1 0x40 MLOAD PUSH3 0x461BCD PUSH1 0xE5 SHL DUP2 MSTORE PUSH1 0x20 PUSH1 0x4 DUP3 ADD MSTORE PUSH1 0x13 PUSH1 0x24 DUP3 ADD MSTORE PUSH19 0x125B9CDD59999A58DA595B9D081BDD5D1C1D5D PUSH1 0x6A SHL PUSH1 0x44 DUP3 ADD MSTORE PUSH1 0x64 SWAP1 REVERT JUMPDEST ISZERO PUSH2 0x1925 JUMPI JUMP JUMPDEST PUSH1 0x40 MLOAD PUSH3 0x461BCD PUSH1 0xE5 SHL DUP2 MSTORE PUSH1 0x20 PUSH1 0x4 DUP3 ADD MSTORE PUSH1 0x16 PUSH1 0x24 DUP3 ADD MSTORE PUSH22 0x496E73756666696369656E74206C6971756964697479 PUSH1 0x50 SHL PUSH1 0x44 DUP3 ADD MSTORE PUSH1 0x64 SWAP1 REVERT JUMPDEST PUSH1 0x1 PUSH1 0xFF SHL DUP2 EQ PUSH2 0x17FA JUMPI PUSH1 0x0 SUB SWAP1 JUMP JUMPDEST DUP1 ISZERO PUSH2 0x19B8 JUMPI PUSH1 0x1 DUP1 DUP3 ADD DUP1 DUP4 GT PUSH2 0x17FA JUMPI DUP2 SHR SWAP1 DUP3 JUMPDEST DUP4 DUP4 LT PUSH2 0x1998 JUMPI POP POP POP SWAP1 JUMP JUMPDEST SWAP1 SWAP2 SWAP3 POP PUSH2 0x19AF DUP4 PUSH2 0x19AA DUP2 DUP5 PUSH2 0x1823 JUMP JUMPDEST PUSH2 0x17ED JUMP JUMPDEST DUP3 SHR SWAP2 SWAP1 PUSH2 0x198B JUMP JUMPDEST POP PUSH1 0x0 SWAP1 JUMP INVALID LOG2 PUSH5 0x6970667358 0x22 SLT KECCAK256 TIMESTAMP ADDMOD LOG3 PUSH10 0xC0A675263886FF20DF63 0xAE 0xFB 0xE6 0xF7 RETURNDATACOPY EXTCODESIZE 0xCA 0x23 0xED 0xEF 0xCB NUMBER PUSH5 0x4BBCA53CA9 PUSH5 0x736F6C6343 STOP ADDMOD EQ STOP CALLER "},"methodIdentifiers":{"MAX_TICK()":"6882a888","MIN_TICK()":"a1634b14","addLiquidity(uint256,uint256,uint256,uint256,int24,int24)":"4ac0eb1d","allowance(address,address)":"dd62ed3e","approve(address,uint256)":"095ea7b3","balanceOf(address)":"70a08231","currentTick()":"065e5360","decimals()":"313ce567","fee()":"ddca3f43","getQuote(address,uint256)":"82c0ab21","name()":"06fdde03","positions(address)":"55f57510","price()":"a035b1fe","removeLiquidity(uint256)":"9c8f9f23","reserve0()":"443cb4bc","reserve1()":"5a76f25e","swap(address,uint256,uint256)":"9f1d0f59","symbol()":"95d89b41","token0()":"0dfe1681","token1()":"d21220a7","totalSupply()":"18160ddd","transfer(address,uint256)":"a9059cbb","transferFrom(address,address,uint256)":"23b872dd"}}}}}