{"contracts/periphery/DEXRouter.sol":{"DEXRouter":{"abi":[{"inputs":[{"internalType":"address","name":"_factory","type":"address"}],"stateMutability":"nonpayable","type":"constructor"},{"anonymous":false,"inputs":[{"indexed":true,"internalType":"address","name":"sender","type":"address"},{"indexed":false,"internalType":"address[]","name":"path","type":"address[]"},{"indexed":false,"internalType":"uint256[]","name":"amounts","type":"uint256[]"}],"name":"SwapExecuted","type":"event"},{"inputs":[{"internalType":"address","name":"tokenA","type":"address"},{"internalType":"address","name":"tokenB","type":"address"},{"internalType":"uint24","name":"fee","type":"uint24"},{"internalType":"uint256","name":"amountADesired","type":"uint256"},{"internalType":"uint256","name":"amountBDesired","type":"uint256"},{"internalType":"uint256","name":"amountAMin","type":"uint256"},{"internalType":"uint256","name":"amountBMin","type":"uint256"},{"internalType":"int24","name":"tickLower","type":"int24"},{"internalType":"int24","name":"tickUpper","type":"int24"},{"internalType":"address","name":"to","type":"address"},{"internalType":"uint256","name":"deadline","type":"uint256"}],"name":"addLiquidity","outputs":[{"internalType":"uint256","name":"amount0","type":"uint256"},{"internalType":"uint256","name":"amount1","type":"uint256"},{"internalType":"uint256","name":"liquidity","type":"uint256"}],"stateMutability":"nonpayable","type":"function"},{"inputs":[],"name":"factory","outputs":[{"internalType":"address","name":"","type":"address"}],"stateMutability":"view","type":"function"},{"inputs":[{"internalType":"uint256","name":"amountIn","type":"uint256"},{"internalType":"address[]","name":"path","type":"address[]"},{"internalType":"uint24[]","name":"fees","type":"uint24[]"}],"name":"getAmountsOut","outputs":[{"internalType":"uint256[]","name":"amounts","type":"uint256[]"}],"stateMutability":"view","type":"function"},{"inputs":[{"internalType":"address","name":"tokenA","type":"address"},{"internalType":"address","name":"tokenB","type":"address"},{"internalType":"uint24","name":"fee","type":"uint24"}],"name":"getPool","outputs":[{"internalType":"address","name":"","type":"address"}],"stateMutability":"view","type":"function"},{"inputs":[{"internalType":"address","name":"tokenA","type":"address"},{"internalType":"address","name":"tokenB","type":"address"},{"internalType":"uint24","name":"fee","type":"uint24"},{"internalType":"uint256","name":"liquidity","type":"uint256"},{"internalType":"uint256","name":"amountAMin","type":"uint256"},{"internalType":"uint256","name":"amountBMin","type":"uint256"},{"internalType":"address","name":"to","type":"address"},{"internalType":"uint256","name":"deadline","type":"uint256"}],"name":"removeLiquidity","outputs":[{"internalType":"uint256","name":"amountA","type":"uint256"},{"internalType":"uint256","name":"amountB","type":"uint256"}],"stateMutability":"nonpayable","type":"function"},{"inputs":[{"internalType":"uint256","name":"amountIn","type":"uint256"},{"internalType":"uint256","name":"amountOutMin","type":"uint256"},{"internalType":"address[]","name":"path","type":"address[]"},{"internalType":"uint24[]","name":"fees","type":"uint24[]"},{"internalType":"address","name":"to","type":"address"},{"internalType":"uint256","name":"deadline","type":"uint256"}],"name":"swapExactTokensForTokens","outputs":[{"internalType":"uint256[]","name":"amounts","type":"uint256[]"}],"stateMutability":"nonpayable","type":"function"}],"evm":{"bytecode":{"linkReferences":{},"object":"60a03461007057601f6111e938819003918201601f19168301916001600160401b038311848410176100755780849260209460405283398101031261007057516001600160a01b03811681036100705760805260405161115d908161008c8239608051818181607401526110620152f35b600080fd5b634e487b7160e01b600052604160045260246000fdfe6080604052600436101561001257600080fd5b60003560e01c80631698ee8214610d79578063337141b114610b3257806383395351146106fb57806393a2e9ed146102ae5780639f48b439146100a85763c45a01551461005e57600080fd5b346100a35760003660031901126100a3576040517f00000000000000000000000000000000000000000000000000000000000000006001600160a01b03168152602090f35b600080fd5b346100a35760603660031901126100a357602467ffffffffffffffff81358181116100a3576100db903690600401610df7565b916044359081116100a3576100f4903690600401610df7565b92600281101580610286575b61010990610f31565b61011281610f84565b9160043561011f84610fb6565b5260005b60001983018381116102715781101561025757610149610144828588610fd7565b610fe7565b9060018101918282116102425761018a61016761014485888b610fd7565b6001600160a01b03929061018461017f868d8a610fd7565b61100a565b9161101a565b169161019a61014483878a610fd7565b926101a58388610fc3565b516040516382c0ab2160e01b81526001600160a01b039590951660048601526024850152602093908490829060449082905afa93841561023657600094610202575b5050916101f76101fd9387610fc3565b52610ffb565b610123565b90809450813d831161022f575b6102198183610e92565b810103126100a3576101f76101fd9351936101e7565b503d61020f565b6040513d6000823e3d90fd5b88634e487b7160e01b60005260116004526000fd5b6040516020808252819061026d90820187610e28565b0390f35b87634e487b7160e01b60005260116004526000fd5b5060018401808511610299578114610100565b85634e487b7160e01b60005260116004526000fd5b346100a35760c03660031901126100a35767ffffffffffffffff6004356044358281116100a3576102e3903690600401610df7565b9190926064359081116100a3576102fe903690600401610df7565b9092906084356001600160a01b03811690036100a3576103224260a4351015610e5c565b6002821015806106e8575b61033690610f31565b61033f82610f84565b928061034a85610fb6565b5282156106d2576000906020906103a1906001600160a01b0361036c8a610fe7565b6040516323b872dd60e01b81523360048201523060248201526044810193909352919485939190921691839182906064820190565b03925af18015610236576106b3575b5060005b600019830183811161054c57811015610562576103d5610144828589610fd7565b60018201821161054c57610402906103f461014460018501878b610fd7565b61018461017f85878b610fd7565b906000602061045f6001600160a01b03610420610144868a8e610fd7565b1661042b858a610fc3565b5160405163095ea7b360e01b81526001600160a01b0388166004820152602481019190915293849283919082906044820190565b03925af180156102365761051d575b50602061047f61014483878b610fd7565b606461048b8489610fc3565b51604051639f1d0f5960e01b81526001600160a01b039384166004820152602481019190915260006044820181905290958693849291165af18015610236576000906104e9575b6104e492506101f76001830187610fc3565b6103b4565b506020823d602011610515575b8161050360209383610e92565b810103126100a3576104e491516104d2565b3d91506104f6565b61053e9060203d602011610545575b6105368183610e92565b810190610eca565b508761046e565b503d61052c565b634e487b7160e01b600052601160045260246000fd5b828487600019830183811161054c5760206105e86000926105916024356105898389610fc3565b511015610eef565b6105b26001600160a01b036105aa610144848b8a610fd7565b169187610fc3565b5160405163a9059cbb60e01b81526001600160a01b03608435166004820152602481019190915293849283919082906044820190565b03925af1801561023657610694575b5060405192806040850160408652526060840191906000905b80821061066a575050507f4959c33b926e6cdd6625f8fedfbad39ab14bf915b79a8fc964089615191ce6278361026d948303602082015280610653339486610e28565b0390a2604051918291602083526020830190610e28565b90919283359060018060a01b0382168092036100a357602081600193829352019401920190610610565b6106ac9060203d602011610545576105368183610e92565b50836105f7565b6106cb9060203d602011610545576105368183610e92565b50856103b0565b634e487b7160e01b600052603260045260246000fd5b506001810180821161054c57821461032d565b346100a3576101603660031901126100a357610715610db9565b61071d610dcf565b90610726610de5565b606435906084359060e435948560020b8096036100a357610104358060020b8091036100a35761012435966001600160a01b039384891689036100a35761077d9061077642610144351015610e5c565b848961101a565b9184808916988186168a10600014610b2c575b16978814948515610b20576107dd9596935b6040516323b872dd60e01b808252336004830152306024830152604482018b9052602098909190899082908e90829060009082906064820190565b03925af1801561023657610b03575b506040519081523360048201523060248201526044810186905295821695878160648160008b5af1801561023657610ae6575b5060405163095ea7b360e01b8082526001600160a01b0383166004830152602482018b90529088818d816000816044810103925af1801561023657610ac9575b506040519081526001600160a01b038216600482015260248101869052878160448160008b5af1801561023657610aac575b5016918615610aa35760a435965b15610a9b5760c4355b60405197634ac0eb1d60e01b89528960048a01528560248a015260448901526064880152608487015260a486015260608560c4816000855af195861561023657600097600096600098610a57575b5060405163a9059cbb60e01b8082526001600160a01b039b909b16600482015260248101899052928690849060449082905a90600091f19182156102365789938793610a3a575b508381116109d2575b50505050838111610968575b5050606094506040519384528301526040820152f35b9582916109788561099c99610ee2565b60405192835233600484015260248301529096879190829060009082906044820190565b03925af1948515610236576060956109b5575b80610952565b6109cb90823d8411610545576105368183610e92565b50856109af565b610a05936109df91610ee2565b6040518b8152336004820152602481019190915292839190829060009082906044820190565b03925af1801561023657610a1d575b83818892610946565b610a3390843d8611610545576105368183610e92565b5087610a14565b610a5090843d8611610545576105368183610e92565b508b61093d565b9850965094506060873d8211610a93575b81610a7560609383610e92565b810103126100a357865194604085890151980151959795968a6108f6565b3d9150610a68565b60a4356108a8565b60c4359661089f565b610ac290883d8a11610545576105368183610e92565b508b610891565b610adf90893d8b11610545576105368183610e92565b508c61085f565b610afc90883d8a11610545576105368183610e92565b508b61081f565b610b1990893d8b11610545576105368183610e92565b508c6107ec565b6107dd959697936107a2565b94610790565b346100a3576101003660031901126100a357610b4c610db9565b610b54610dcf565b610b5c610de5565b60c435926064359290916001600160a01b039081861686036100a357610b928291610b8b4260e4351015610e5c565b848661101a565b6040516323b872dd60e01b8152336004820152306024820152604481018790526020949290911684826064816000855af1801561023657600097604093602492610d5c575b5083519889938492639c8f9f2360e01b845260048401525af1948515610236578692600091600097610d1f575b50828116958082169387851015610d1857505b168203610d125794935b60843586101580610d06575b610c3690610eef565b60405163a9059cbb60e01b8082526001600160a01b0394909416600482015260248101879052918490839060449082906000905af196871561023657600085948794610cae9a610ce9575b506040519081526001600160a01b0390921660048301526024820193909352968792839182906044820190565b03925af193841561023657604094610ccc575b508351928352820152f35b610ce290823d8411610545576105368183610e92565b5084610cc1565b610cff90873d8911610545576105368183610e92565b508a610c81565b5060a435851015610c2d565b93610c21565b9050610c17565b93509550506040823d604011610d54575b81610d3d60409383610e92565b810103126100a35781838793519101519588610c04565b3d9150610d30565b610d7290883d8a11610545576105368183610e92565b508a610bd7565b346100a35760603660031901126100a3576020610da7610d97610db9565b610d9f610dcf565b610184610de5565b6040516001600160a01b039091168152f35b600435906001600160a01b03821682036100a357565b602435906001600160a01b03821682036100a357565b6044359062ffffff821682036100a357565b9181601f840112156100a35782359167ffffffffffffffff83116100a3576020808501948460051b0101116100a357565b90815180825260208080930193019160005b828110610e48575050505090565b835185529381019392810192600101610e3a565b15610e6357565b60405162461bcd60e51b8152602060048201526007602482015266115e1c1a5c995960ca1b6044820152606490fd5b90601f8019910116810190811067ffffffffffffffff821117610eb457604052565b634e487b7160e01b600052604160045260246000fd5b908160209103126100a3575180151581036100a35790565b9190820391821161054c57565b15610ef657565b60405162461bcd60e51b8152602060048201526013602482015272125b9cdd59999a58da595b9d081bdd5d1c1d5d606a1b6044820152606490fd5b15610f3857565b60405162461bcd60e51b815260206004820152600c60248201526b092dcecc2d8d2c840e0c2e8d60a31b6044820152606490fd5b67ffffffffffffffff8111610eb45760051b60200190565b90610f8e82610f6c565b610f9b6040519182610e92565b8281528092610fac601f1991610f6c565b0190602036910137565b8051156106d25760200190565b80518210156106d25760209160051b010190565b91908110156106d25760051b0190565b356001600160a01b03811681036100a35790565b600019811461054c5760010190565b3562ffffff811681036100a35790565b6001600160a01b039290919083808316818516101561111c5762ffffff925b604051630b4c774160e11b815294821660048601521660248401521660448201526020816064817f000000000000000000000000000000000000000000000000000000000000000086165afa908115610236576000916110db575b50908116156110a05790565b60405162461bcd60e51b8152602060048201526013602482015272141bdbdb08191bd95cc81b9bdd08195e1a5cdd606a1b6044820152606490fd5b6020813d8211611114575b816110f360209383610e92565b81010312611110575190828216820361110d575038611094565b80fd5b5080fd5b3d91506110e6565b62ffffff929361103956fea264697066735822122004969e1b44b11cc59e0f02b2eae52bda894b11712624882c7336b0f5140e985564736f6c63430008140033","opcodes":"PUSH1 0xA0 CALLVALUE PUSH2 0x70 JUMPI PUSH1 0x1F PUSH2 0x11E9 CODESIZE DUP2 SWAP1 SUB SWAP2 DUP3 ADD PUSH1 0x1F NOT AND DUP4 ADD SWAP2 PUSH1 0x1 PUSH1 0x1 PUSH1 0x40 SHL SUB DUP4 GT DUP5 DUP5 LT OR PUSH2 0x75 JUMPI DUP1 DUP5 SWAP3 PUSH1 0x20 SWAP5 PUSH1 0x40 MSTORE DUP4 CODECOPY DUP2 ADD SUB SLT PUSH2 0x70 JUMPI MLOAD PUSH1 0x1 PUSH1 0x1 PUSH1 0xA0 SHL SUB DUP2 AND DUP2 SUB PUSH2 0x70 JUMPI PUSH1 0x80 MSTORE PUSH1 0x40 MLOAD PUSH2 0x115D SWAP1 DUP2 PUSH2 0x8C DUP3 CODECOPY PUSH1 0x80 MLOAD DUP2 DUP2 DUP2 PUSH1 0x74 ADD MSTORE PUSH2 0x1062 ADD MSTORE RETURN JUMPDEST PUSH1 0x0 DUP1 REVERT JUMPDEST PUSH4 0x4E487B71 PUSH1 0xE0 SHL PUSH1 0x0 MSTORE PUSH1 0x41 PUSH1 0x4 MSTORE PUSH1 0x24 PUSH1 0x0 REVERT INVALID PUSH1 0x80 PUSH1 0x40 MSTORE PUSH1 0x4 CALLDATASIZE LT ISZERO PUSH2 0x12 JUMPI PUSH1 0x0 DUP1 REVERT JUMPDEST PUSH1 0x0 CALLDATALOAD PUSH1 0xE0 SHR DUP1 PUSH4 0x1698EE82 EQ PUSH2 0xD79 JUMPI DUP1 PUSH4 0x337141B1 EQ PUSH2 0xB32 JUMPI DUP1 PUSH4 0x83395351 EQ PUSH2 0x6FB JUMPI DUP1 PUSH4 0x93A2E9ED EQ PUSH2 0x2AE JUMPI DUP1 PUSH4 0x9F48B439 EQ PUSH2 0xA8 JUMPI PUSH4 0xC45A0155 EQ PUSH2 0x5E JUMPI PUSH1 0x0 DUP1 REVERT JUMPDEST CALLVALUE PUSH2 0xA3 JUMPI PUSH1 0x0 CALLDATASIZE PUSH1 0x3 NOT ADD SLT PUSH2 0xA3 JUMPI PUSH1 0x40 MLOAD PUSH32 0x0 PUSH1 0x1 PUSH1 0x1 PUSH1 0xA0 SHL SUB AND DUP2 MSTORE PUSH1 0x20 SWAP1 RETURN JUMPDEST PUSH1 0x0 DUP1 REVERT JUMPDEST CALLVALUE PUSH2 0xA3 JUMPI PUSH1 0x60 CALLDATASIZE PUSH1 0x3 NOT ADD SLT PUSH2 0xA3 JUMPI PUSH1 0x24 PUSH8 0xFFFFFFFFFFFFFFFF DUP2 CALLDATALOAD DUP2 DUP2 GT PUSH2 0xA3 JUMPI PUSH2 0xDB SWAP1 CALLDATASIZE SWAP1 PUSH1 0x4 ADD PUSH2 0xDF7 JUMP JUMPDEST SWAP2 PUSH1 0x44 CALLDATALOAD SWAP1 DUP2 GT PUSH2 0xA3 JUMPI PUSH2 0xF4 SWAP1 CALLDATASIZE SWAP1 PUSH1 0x4 ADD PUSH2 0xDF7 JUMP JUMPDEST SWAP3 PUSH1 0x2 DUP2 LT ISZERO DUP1 PUSH2 0x286 JUMPI JUMPDEST PUSH2 0x109 SWAP1 PUSH2 0xF31 JUMP JUMPDEST PUSH2 0x112 DUP2 PUSH2 0xF84 JUMP JUMPDEST SWAP2 PUSH1 0x4 CALLDATALOAD PUSH2 0x11F DUP5 PUSH2 0xFB6 JUMP JUMPDEST MSTORE PUSH1 0x0 JUMPDEST PUSH1 0x0 NOT DUP4 ADD DUP4 DUP2 GT PUSH2 0x271 JUMPI DUP2 LT ISZERO PUSH2 0x257 JUMPI PUSH2 0x149 PUSH2 0x144 DUP3 DUP6 DUP9 PUSH2 0xFD7 JUMP JUMPDEST PUSH2 0xFE7 JUMP JUMPDEST SWAP1 PUSH1 0x1 DUP2 ADD SWAP2 DUP3 DUP3 GT PUSH2 0x242 JUMPI PUSH2 0x18A PUSH2 0x167 PUSH2 0x144 DUP6 DUP9 DUP12 PUSH2 0xFD7 JUMP JUMPDEST PUSH1 0x1 PUSH1 0x1 PUSH1 0xA0 SHL SUB SWAP3 SWAP1 PUSH2 0x184 PUSH2 0x17F DUP7 DUP14 DUP11 PUSH2 0xFD7 JUMP JUMPDEST PUSH2 0x100A JUMP JUMPDEST SWAP2 PUSH2 0x101A JUMP JUMPDEST AND SWAP2 PUSH2 0x19A PUSH2 0x144 DUP4 DUP8 DUP11 PUSH2 0xFD7 JUMP JUMPDEST SWAP3 PUSH2 0x1A5 DUP4 DUP9 PUSH2 0xFC3 JUMP JUMPDEST MLOAD PUSH1 0x40 MLOAD PUSH4 0x82C0AB21 PUSH1 0xE0 SHL DUP2 MSTORE PUSH1 0x1 PUSH1 0x1 PUSH1 0xA0 SHL SUB SWAP6 SWAP1 SWAP6 AND PUSH1 0x4 DUP7 ADD MSTORE PUSH1 0x24 DUP6 ADD MSTORE PUSH1 0x20 SWAP4 SWAP1 DUP5 SWAP1 DUP3 SWAP1 PUSH1 0x44 SWAP1 DUP3 SWAP1 GAS STATICCALL SWAP4 DUP5 ISZERO PUSH2 0x236 JUMPI PUSH1 0x0 SWAP5 PUSH2 0x202 JUMPI JUMPDEST POP POP SWAP2 PUSH2 0x1F7 PUSH2 0x1FD SWAP4 DUP8 PUSH2 0xFC3 JUMP JUMPDEST MSTORE PUSH2 0xFFB JUMP JUMPDEST PUSH2 0x123 JUMP JUMPDEST SWAP1 DUP1 SWAP5 POP DUP2 RETURNDATASIZE DUP4 GT PUSH2 0x22F JUMPI JUMPDEST PUSH2 0x219 DUP2 DUP4 PUSH2 0xE92 JUMP JUMPDEST DUP2 ADD SUB SLT PUSH2 0xA3 JUMPI PUSH2 0x1F7 PUSH2 0x1FD SWAP4 MLOAD SWAP4 PUSH2 0x1E7 JUMP JUMPDEST POP RETURNDATASIZE PUSH2 0x20F JUMP JUMPDEST PUSH1 0x40 MLOAD RETURNDATASIZE PUSH1 0x0 DUP3 RETURNDATACOPY RETURNDATASIZE SWAP1 REVERT JUMPDEST DUP9 PUSH4 0x4E487B71 PUSH1 0xE0 SHL PUSH1 0x0 MSTORE PUSH1 0x11 PUSH1 0x4 MSTORE PUSH1 0x0 REVERT JUMPDEST PUSH1 0x40 MLOAD PUSH1 0x20 DUP1 DUP3 MSTORE DUP2 SWAP1 PUSH2 0x26D SWAP1 DUP3 ADD DUP8 PUSH2 0xE28 JUMP JUMPDEST SUB SWAP1 RETURN JUMPDEST DUP8 PUSH4 0x4E487B71 PUSH1 0xE0 SHL PUSH1 0x0 MSTORE PUSH1 0x11 PUSH1 0x4 MSTORE PUSH1 0x0 REVERT JUMPDEST POP PUSH1 0x1 DUP5 ADD DUP1 DUP6 GT PUSH2 0x299 JUMPI DUP2 EQ PUSH2 0x100 JUMP JUMPDEST DUP6 PUSH4 0x4E487B71 PUSH1 0xE0 SHL PUSH1 0x0 MSTORE PUSH1 0x11 PUSH1 0x4 MSTORE PUSH1 0x0 REVERT JUMPDEST CALLVALUE PUSH2 0xA3 JUMPI PUSH1 0xC0 CALLDATASIZE PUSH1 0x3 NOT ADD SLT PUSH2 0xA3 JUMPI PUSH8 0xFFFFFFFFFFFFFFFF PUSH1 0x4 CALLDATALOAD PUSH1 0x44 CALLDATALOAD DUP3 DUP2 GT PUSH2 0xA3 JUMPI PUSH2 0x2E3 SWAP1 CALLDATASIZE SWAP1 PUSH1 0x4 ADD PUSH2 0xDF7 JUMP JUMPDEST SWAP2 SWAP1 SWAP3 PUSH1 0x64 CALLDATALOAD SWAP1 DUP2 GT PUSH2 0xA3 JUMPI PUSH2 0x2FE SWAP1 CALLDATASIZE SWAP1 PUSH1 0x4 ADD PUSH2 0xDF7 JUMP JUMPDEST SWAP1 SWAP3 SWAP1 PUSH1 0x84 CALLDATALOAD PUSH1 0x1 PUSH1 0x1 PUSH1 0xA0 SHL SUB DUP2 AND SWAP1 SUB PUSH2 0xA3 JUMPI PUSH2 0x322 TIMESTAMP PUSH1 0xA4 CALLDATALOAD LT ISZERO PUSH2 0xE5C JUMP JUMPDEST PUSH1 0x2 DUP3 LT ISZERO DUP1 PUSH2 0x6E8 JUMPI JUMPDEST PUSH2 0x336 SWAP1 PUSH2 0xF31 JUMP JUMPDEST PUSH2 0x33F DUP3 PUSH2 0xF84 JUMP JUMPDEST SWAP3 DUP1 PUSH2 0x34A DUP6 PUSH2 0xFB6 JUMP JUMPDEST MSTORE DUP3 ISZERO PUSH2 0x6D2 JUMPI PUSH1 0x0 SWAP1 PUSH1 0x20 SWAP1 PUSH2 0x3A1 SWAP1 PUSH1 0x1 PUSH1 0x1 PUSH1 0xA0 SHL SUB PUSH2 0x36C DUP11 PUSH2 0xFE7 JUMP JUMPDEST PUSH1 0x40 MLOAD PUSH4 0x23B872DD PUSH1 0xE0 SHL DUP2 MSTORE CALLER PUSH1 0x4 DUP3 ADD MSTORE ADDRESS PUSH1 0x24 DUP3 ADD MSTORE PUSH1 0x44 DUP2 ADD SWAP4 SWAP1 SWAP4 MSTORE SWAP2 SWAP5 DUP6 SWAP4 SWAP2 SWAP1 SWAP3 AND SWAP2 DUP4 SWAP2 DUP3 SWAP1 PUSH1 0x64 DUP3 ADD SWAP1 JUMP JUMPDEST SUB SWAP3 GAS CALL DUP1 ISZERO PUSH2 0x236 JUMPI PUSH2 0x6B3 JUMPI JUMPDEST POP PUSH1 0x0 JUMPDEST PUSH1 0x0 NOT DUP4 ADD DUP4 DUP2 GT PUSH2 0x54C JUMPI DUP2 LT ISZERO PUSH2 0x562 JUMPI PUSH2 0x3D5 PUSH2 0x144 DUP3 DUP6 DUP10 PUSH2 0xFD7 JUMP JUMPDEST PUSH1 0x1 DUP3 ADD DUP3 GT PUSH2 0x54C JUMPI PUSH2 0x402 SWAP1 PUSH2 0x3F4 PUSH2 0x144 PUSH1 0x1 DUP6 ADD DUP8 DUP12 PUSH2 0xFD7 JUMP JUMPDEST PUSH2 0x184 PUSH2 0x17F DUP6 DUP8 DUP12 PUSH2 0xFD7 JUMP JUMPDEST SWAP1 PUSH1 0x0 PUSH1 0x20 PUSH2 0x45F PUSH1 0x1 PUSH1 0x1 PUSH1 0xA0 SHL SUB PUSH2 0x420 PUSH2 0x144 DUP7 DUP11 DUP15 PUSH2 0xFD7 JUMP JUMPDEST AND PUSH2 0x42B DUP6 DUP11 PUSH2 0xFC3 JUMP JUMPDEST MLOAD PUSH1 0x40 MLOAD PUSH4 0x95EA7B3 PUSH1 0xE0 SHL DUP2 MSTORE PUSH1 0x1 PUSH1 0x1 PUSH1 0xA0 SHL SUB DUP9 AND PUSH1 0x4 DUP3 ADD MSTORE PUSH1 0x24 DUP2 ADD SWAP2 SWAP1 SWAP2 MSTORE SWAP4 DUP5 SWAP3 DUP4 SWAP2 SWAP1 DUP3 SWAP1 PUSH1 0x44 DUP3 ADD SWAP1 JUMP JUMPDEST SUB SWAP3 GAS CALL DUP1 ISZERO PUSH2 0x236 JUMPI PUSH2 0x51D JUMPI JUMPDEST POP PUSH1 0x20 PUSH2 0x47F PUSH2 0x144 DUP4 DUP8 DUP12 PUSH2 0xFD7 JUMP JUMPDEST PUSH1 0x64 PUSH2 0x48B DUP5 DUP10 PUSH2 0xFC3 JUMP JUMPDEST MLOAD PUSH1 0x40 MLOAD PUSH4 0x9F1D0F59 PUSH1 0xE0 SHL DUP2 MSTORE PUSH1 0x1 PUSH1 0x1 PUSH1 0xA0 SHL SUB SWAP4 DUP5 AND PUSH1 0x4 DUP3 ADD MSTORE PUSH1 0x24 DUP2 ADD SWAP2 SWAP1 SWAP2 MSTORE PUSH1 0x0 PUSH1 0x44 DUP3 ADD DUP2 SWAP1 MSTORE SWAP1 SWAP6 DUP7 SWAP4 DUP5 SWAP3 SWAP2 AND GAS CALL DUP1 ISZERO PUSH2 0x236 JUMPI PUSH1 0x0 SWAP1 PUSH2 0x4E9 JUMPI JUMPDEST PUSH2 0x4E4 SWAP3 POP PUSH2 0x1F7 PUSH1 0x1 DUP4 ADD DUP8 PUSH2 0xFC3 JUMP JUMPDEST PUSH2 0x3B4 JUMP JUMPDEST POP PUSH1 0x20 DUP3 RETURNDATASIZE PUSH1 0x20 GT PUSH2 0x515 JUMPI JUMPDEST DUP2 PUSH2 0x503 PUSH1 0x20 SWAP4 DUP4 PUSH2 0xE92 JUMP JUMPDEST DUP2 ADD SUB SLT PUSH2 0xA3 JUMPI PUSH2 0x4E4 SWAP2 MLOAD PUSH2 0x4D2 JUMP JUMPDEST RETURNDATASIZE SWAP2 POP PUSH2 0x4F6 JUMP JUMPDEST PUSH2 0x53E SWAP1 PUSH1 0x20 RETURNDATASIZE PUSH1 0x20 GT PUSH2 0x545 JUMPI JUMPDEST PUSH2 0x536 DUP2 DUP4 PUSH2 0xE92 JUMP JUMPDEST DUP2 ADD SWAP1 PUSH2 0xECA JUMP JUMPDEST POP DUP8 PUSH2 0x46E JUMP JUMPDEST POP RETURNDATASIZE PUSH2 0x52C JUMP JUMPDEST PUSH4 0x4E487B71 PUSH1 0xE0 SHL PUSH1 0x0 MSTORE PUSH1 0x11 PUSH1 0x4 MSTORE PUSH1 0x24 PUSH1 0x0 REVERT JUMPDEST DUP3 DUP5 DUP8 PUSH1 0x0 NOT DUP4 ADD DUP4 DUP2 GT PUSH2 0x54C JUMPI PUSH1 0x20 PUSH2 0x5E8 PUSH1 0x0 SWAP3 PUSH2 0x591 PUSH1 0x24 CALLDATALOAD PUSH2 0x589 DUP4 DUP10 PUSH2 0xFC3 JUMP JUMPDEST MLOAD LT ISZERO PUSH2 0xEEF JUMP JUMPDEST PUSH2 0x5B2 PUSH1 0x1 PUSH1 0x1 PUSH1 0xA0 SHL SUB PUSH2 0x5AA PUSH2 0x144 DUP5 DUP12 DUP11 PUSH2 0xFD7 JUMP JUMPDEST AND SWAP2 DUP8 PUSH2 0xFC3 JUMP JUMPDEST MLOAD PUSH1 0x40 MLOAD PUSH4 0xA9059CBB PUSH1 0xE0 SHL DUP2 MSTORE PUSH1 0x1 PUSH1 0x1 PUSH1 0xA0 SHL SUB PUSH1 0x84 CALLDATALOAD AND PUSH1 0x4 DUP3 ADD MSTORE PUSH1 0x24 DUP2 ADD SWAP2 SWAP1 SWAP2 MSTORE SWAP4 DUP5 SWAP3 DUP4 SWAP2 SWAP1 DUP3 SWAP1 PUSH1 0x44 DUP3 ADD SWAP1 JUMP JUMPDEST SUB SWAP3 GAS CALL DUP1 ISZERO PUSH2 0x236 JUMPI PUSH2 0x694 JUMPI JUMPDEST POP PUSH1 0x40 MLOAD SWAP3 DUP1 PUSH1 0x40 DUP6 ADD PUSH1 0x40 DUP7 MSTORE MSTORE PUSH1 0x60 DUP5 ADD SWAP2 SWAP1 PUSH1 0x0 SWAP1 JUMPDEST DUP1 DUP3 LT PUSH2 0x66A JUMPI POP POP POP PUSH32 0x4959C33B926E6CDD6625F8FEDFBAD39AB14BF915B79A8FC964089615191CE627 DUP4 PUSH2 0x26D SWAP5 DUP4 SUB PUSH1 0x20 DUP3 ADD MSTORE DUP1 PUSH2 0x653 CALLER SWAP5 DUP7 PUSH2 0xE28 JUMP JUMPDEST SUB SWAP1 LOG2 PUSH1 0x40 MLOAD SWAP2 DUP3 SWAP2 PUSH1 0x20 DUP4 MSTORE PUSH1 0x20 DUP4 ADD SWAP1 PUSH2 0xE28 JUMP JUMPDEST SWAP1 SWAP2 SWAP3 DUP4 CALLDATALOAD SWAP1 PUSH1 0x1 DUP1 PUSH1 0xA0 SHL SUB DUP3 AND DUP1 SWAP3 SUB PUSH2 0xA3 JUMPI PUSH1 0x20 DUP2 PUSH1 0x1 SWAP4 DUP3 SWAP4 MSTORE ADD SWAP5 ADD SWAP3 ADD SWAP1 PUSH2 0x610 JUMP JUMPDEST PUSH2 0x6AC SWAP1 PUSH1 0x20 RETURNDATASIZE PUSH1 0x20 GT PUSH2 0x545 JUMPI PUSH2 0x536 DUP2 DUP4 PUSH2 0xE92 JUMP JUMPDEST POP DUP4 PUSH2 0x5F7 JUMP JUMPDEST PUSH2 0x6CB SWAP1 PUSH1 0x20 RETURNDATASIZE PUSH1 0x20 GT PUSH2 0x545 JUMPI PUSH2 0x536 DUP2 DUP4 PUSH2 0xE92 JUMP JUMPDEST POP DUP6 PUSH2 0x3B0 JUMP JUMPDEST PUSH4 0x4E487B71 PUSH1 0xE0 SHL PUSH1 0x0 MSTORE PUSH1 0x32 PUSH1 0x4 MSTORE PUSH1 0x24 PUSH1 0x0 REVERT JUMPDEST POP PUSH1 0x1 DUP2 ADD DUP1 DUP3 GT PUSH2 0x54C JUMPI DUP3 EQ PUSH2 0x32D JUMP JUMPDEST CALLVALUE PUSH2 0xA3 JUMPI PUSH2 0x160 CALLDATASIZE PUSH1 0x3 NOT ADD SLT PUSH2 0xA3 JUMPI PUSH2 0x715 PUSH2 0xDB9 JUMP JUMPDEST PUSH2 0x71D PUSH2 0xDCF JUMP JUMPDEST SWAP1 PUSH2 0x726 PUSH2 0xDE5 JUMP JUMPDEST PUSH1 0x64 CALLDATALOAD SWAP1 PUSH1 0x84 CALLDATALOAD SWAP1 PUSH1 0xE4 CALLDATALOAD SWAP5 DUP6 PUSH1 0x2 SIGNEXTEND DUP1 SWAP7 SUB PUSH2 0xA3 JUMPI PUSH2 0x104 CALLDATALOAD DUP1 PUSH1 0x2 SIGNEXTEND DUP1 SWAP2 SUB PUSH2 0xA3 JUMPI PUSH2 0x124 CALLDATALOAD SWAP7 PUSH1 0x1 PUSH1 0x1 PUSH1 0xA0 SHL SUB SWAP4 DUP5 DUP10 AND DUP10 SUB PUSH2 0xA3 JUMPI PUSH2 0x77D SWAP1 PUSH2 0x776 TIMESTAMP PUSH2 0x144 CALLDATALOAD LT ISZERO PUSH2 0xE5C JUMP JUMPDEST DUP5 DUP10 PUSH2 0x101A JUMP JUMPDEST SWAP2 DUP5 DUP1 DUP10 AND SWAP9 DUP2 DUP7 AND DUP11 LT PUSH1 0x0 EQ PUSH2 0xB2C JUMPI JUMPDEST AND SWAP8 DUP9 EQ SWAP5 DUP6 ISZERO PUSH2 0xB20 JUMPI PUSH2 0x7DD SWAP6 SWAP7 SWAP4 JUMPDEST PUSH1 0x40 MLOAD PUSH4 0x23B872DD PUSH1 0xE0 SHL DUP1 DUP3 MSTORE CALLER PUSH1 0x4 DUP4 ADD MSTORE ADDRESS PUSH1 0x24 DUP4 ADD MSTORE PUSH1 0x44 DUP3 ADD DUP12 SWAP1 MSTORE PUSH1 0x20 SWAP9 SWAP1 SWAP2 SWAP1 DUP10 SWAP1 DUP3 SWAP1 DUP15 SWAP1 DUP3 SWAP1 PUSH1 0x0 SWAP1 DUP3 SWAP1 PUSH1 0x64 DUP3 ADD SWAP1 JUMP JUMPDEST SUB SWAP3 GAS CALL DUP1 ISZERO PUSH2 0x236 JUMPI PUSH2 0xB03 JUMPI JUMPDEST POP PUSH1 0x40 MLOAD SWAP1 DUP2 MSTORE CALLER PUSH1 0x4 DUP3 ADD MSTORE ADDRESS PUSH1 0x24 DUP3 ADD MSTORE PUSH1 0x44 DUP2 ADD DUP7 SWAP1 MSTORE SWAP6 DUP3 AND SWAP6 DUP8 DUP2 PUSH1 0x64 DUP2 PUSH1 0x0 DUP12 GAS CALL DUP1 ISZERO PUSH2 0x236 JUMPI PUSH2 0xAE6 JUMPI JUMPDEST POP PUSH1 0x40 MLOAD PUSH4 0x95EA7B3 PUSH1 0xE0 SHL DUP1 DUP3 MSTORE PUSH1 0x1 PUSH1 0x1 PUSH1 0xA0 SHL SUB DUP4 AND PUSH1 0x4 DUP4 ADD MSTORE PUSH1 0x24 DUP3 ADD DUP12 SWAP1 MSTORE SWAP1 DUP9 DUP2 DUP14 DUP2 PUSH1 0x0 DUP2 PUSH1 0x44 DUP2 ADD SUB SWAP3 GAS CALL DUP1 ISZERO PUSH2 0x236 JUMPI PUSH2 0xAC9 JUMPI JUMPDEST POP PUSH1 0x40 MLOAD SWAP1 DUP2 MSTORE PUSH1 0x1 PUSH1 0x1 PUSH1 0xA0 SHL SUB DUP3 AND PUSH1 0x4 DUP3 ADD MSTORE PUSH1 0x24 DUP2 ADD DUP7 SWAP1 MSTORE DUP8 DUP2 PUSH1 0x44 DUP2 PUSH1 0x0 DUP12 GAS CALL DUP1 ISZERO PUSH2 0x236 JUMPI PUSH2 0xAAC JUMPI JUMPDEST POP AND SWAP2 DUP7 ISZERO PUSH2 0xAA3 JUMPI PUSH1 0xA4 CALLDATALOAD SWAP7 JUMPDEST ISZERO PUSH2 0xA9B JUMPI PUSH1 0xC4 CALLDATALOAD JUMPDEST PUSH1 0x40 MLOAD SWAP8 PUSH4 0x4AC0EB1D PUSH1 0xE0 SHL DUP10 MSTORE DUP10 PUSH1 0x4 DUP11 ADD MSTORE DUP6 PUSH1 0x24 DUP11 ADD MSTORE PUSH1 0x44 DUP10 ADD MSTORE PUSH1 0x64 DUP9 ADD MSTORE PUSH1 0x84 DUP8 ADD MSTORE PUSH1 0xA4 DUP7 ADD MSTORE PUSH1 0x60 DUP6 PUSH1 0xC4 DUP2 PUSH1 0x0 DUP6 GAS CALL SWAP6 DUP7 ISZERO PUSH2 0x236 JUMPI PUSH1 0x0 SWAP8 PUSH1 0x0 SWAP7 PUSH1 0x0 SWAP9 PUSH2 0xA57 JUMPI JUMPDEST POP PUSH1 0x40 MLOAD PUSH4 0xA9059CBB PUSH1 0xE0 SHL DUP1 DUP3 MSTORE PUSH1 0x1 PUSH1 0x1 PUSH1 0xA0 SHL SUB SWAP12 SWAP1 SWAP12 AND PUSH1 0x4 DUP3 ADD MSTORE PUSH1 0x24 DUP2 ADD DUP10 SWAP1 MSTORE SWAP3 DUP7 SWAP1 DUP5 SWAP1 PUSH1 0x44 SWAP1 DUP3 SWAP1 GAS SWAP1 PUSH1 0x0 SWAP2 CALL SWAP2 DUP3 ISZERO PUSH2 0x236 JUMPI DUP10 SWAP4 DUP8 SWAP4 PUSH2 0xA3A JUMPI JUMPDEST POP DUP4 DUP2 GT PUSH2 0x9D2 JUMPI JUMPDEST POP POP POP POP DUP4 DUP2 GT PUSH2 0x968 JUMPI JUMPDEST POP POP PUSH1 0x60 SWAP5 POP PUSH1 0x40 MLOAD SWAP4 DUP5 MSTORE DUP4 ADD MSTORE PUSH1 0x40 DUP3 ADD MSTORE RETURN JUMPDEST SWAP6 DUP3 SWAP2 PUSH2 0x978 DUP6 PUSH2 0x99C SWAP10 PUSH2 0xEE2 JUMP JUMPDEST PUSH1 0x40 MLOAD SWAP3 DUP4 MSTORE CALLER PUSH1 0x4 DUP5 ADD MSTORE PUSH1 0x24 DUP4 ADD MSTORE SWAP1 SWAP7 DUP8 SWAP2 SWAP1 DUP3 SWAP1 PUSH1 0x0 SWAP1 DUP3 SWAP1 PUSH1 0x44 DUP3 ADD SWAP1 JUMP JUMPDEST SUB SWAP3 GAS CALL SWAP5 DUP6 ISZERO PUSH2 0x236 JUMPI PUSH1 0x60 SWAP6 PUSH2 0x9B5 JUMPI JUMPDEST DUP1 PUSH2 0x952 JUMP JUMPDEST PUSH2 0x9CB SWAP1 DUP3 RETURNDATASIZE DUP5 GT PUSH2 0x545 JUMPI PUSH2 0x536 DUP2 DUP4 PUSH2 0xE92 JUMP JUMPDEST POP DUP6 PUSH2 0x9AF JUMP JUMPDEST PUSH2 0xA05 SWAP4 PUSH2 0x9DF SWAP2 PUSH2 0xEE2 JUMP JUMPDEST PUSH1 0x40 MLOAD DUP12 DUP2 MSTORE CALLER PUSH1 0x4 DUP3 ADD MSTORE PUSH1 0x24 DUP2 ADD SWAP2 SWAP1 SWAP2 MSTORE SWAP3 DUP4 SWAP2 SWAP1 DUP3 SWAP1 PUSH1 0x0 SWAP1 DUP3 SWAP1 PUSH1 0x44 DUP3 ADD SWAP1 JUMP JUMPDEST SUB SWAP3 GAS CALL DUP1 ISZERO PUSH2 0x236 JUMPI PUSH2 0xA1D JUMPI JUMPDEST DUP4 DUP2 DUP9 SWAP3 PUSH2 0x946 JUMP JUMPDEST PUSH2 0xA33 SWAP1 DUP5 RETURNDATASIZE DUP7 GT PUSH2 0x545 JUMPI PUSH2 0x536 DUP2 DUP4 PUSH2 0xE92 JUMP JUMPDEST POP DUP8 PUSH2 0xA14 JUMP JUMPDEST PUSH2 0xA50 SWAP1 DUP5 RETURNDATASIZE DUP7 GT PUSH2 0x545 JUMPI PUSH2 0x536 DUP2 DUP4 PUSH2 0xE92 JUMP JUMPDEST POP DUP12 PUSH2 0x93D JUMP JUMPDEST SWAP9 POP SWAP7 POP SWAP5 POP PUSH1 0x60 DUP8 RETURNDATASIZE DUP3 GT PUSH2 0xA93 JUMPI JUMPDEST DUP2 PUSH2 0xA75 PUSH1 0x60 SWAP4 DUP4 PUSH2 0xE92 JUMP JUMPDEST DUP2 ADD SUB SLT PUSH2 0xA3 JUMPI DUP7 MLOAD SWAP5 PUSH1 0x40 DUP6 DUP10 ADD MLOAD SWAP9 ADD MLOAD SWAP6 SWAP8 SWAP6 SWAP7 DUP11 PUSH2 0x8F6 JUMP JUMPDEST RETURNDATASIZE SWAP2 POP PUSH2 0xA68 JUMP JUMPDEST PUSH1 0xA4 CALLDATALOAD PUSH2 0x8A8 JUMP JUMPDEST PUSH1 0xC4 CALLDATALOAD SWAP7 PUSH2 0x89F JUMP JUMPDEST PUSH2 0xAC2 SWAP1 DUP9 RETURNDATASIZE DUP11 GT PUSH2 0x545 JUMPI PUSH2 0x536 DUP2 DUP4 PUSH2 0xE92 JUMP JUMPDEST POP DUP12 PUSH2 0x891 JUMP JUMPDEST PUSH2 0xADF SWAP1 DUP10 RETURNDATASIZE DUP12 GT PUSH2 0x545 JUMPI PUSH2 0x536 DUP2 DUP4 PUSH2 0xE92 JUMP JUMPDEST POP DUP13 PUSH2 0x85F JUMP JUMPDEST PUSH2 0xAFC SWAP1 DUP9 RETURNDATASIZE DUP11 GT PUSH2 0x545 JUMPI PUSH2 0x536 DUP2 DUP4 PUSH2 0xE92 JUMP JUMPDEST POP DUP12 PUSH2 0x81F JUMP JUMPDEST PUSH2 0xB19 SWAP1 DUP10 RETURNDATASIZE DUP12 GT PUSH2 0x545 JUMPI PUSH2 0x536 DUP2 DUP4 PUSH2 0xE92 JUMP JUMPDEST POP DUP13 PUSH2 0x7EC JUMP JUMPDEST PUSH2 0x7DD SWAP6 SWAP7 SWAP8 SWAP4 PUSH2 0x7A2 JUMP JUMPDEST SWAP5 PUSH2 0x790 JUMP JUMPDEST CALLVALUE PUSH2 0xA3 JUMPI PUSH2 0x100 CALLDATASIZE PUSH1 0x3 NOT ADD SLT PUSH2 0xA3 JUMPI PUSH2 0xB4C PUSH2 0xDB9 JUMP JUMPDEST PUSH2 0xB54 PUSH2 0xDCF JUMP JUMPDEST PUSH2 0xB5C PUSH2 0xDE5 JUMP JUMPDEST PUSH1 0xC4 CALLDATALOAD SWAP3 PUSH1 0x64 CALLDATALOAD SWAP3 SWAP1 SWAP2 PUSH1 0x1 PUSH1 0x1 PUSH1 0xA0 SHL SUB SWAP1 DUP2 DUP7 AND DUP7 SUB PUSH2 0xA3 JUMPI PUSH2 0xB92 DUP3 SWAP2 PUSH2 0xB8B TIMESTAMP PUSH1 0xE4 CALLDATALOAD LT ISZERO PUSH2 0xE5C JUMP JUMPDEST DUP5 DUP7 PUSH2 0x101A JUMP JUMPDEST PUSH1 0x40 MLOAD PUSH4 0x23B872DD PUSH1 0xE0 SHL DUP2 MSTORE CALLER PUSH1 0x4 DUP3 ADD MSTORE ADDRESS PUSH1 0x24 DUP3 ADD MSTORE PUSH1 0x44 DUP2 ADD DUP8 SWAP1 MSTORE PUSH1 0x20 SWAP5 SWAP3 SWAP1 SWAP2 AND DUP5 DUP3 PUSH1 0x64 DUP2 PUSH1 0x0 DUP6 GAS CALL DUP1 ISZERO PUSH2 0x236 JUMPI PUSH1 0x0 SWAP8 PUSH1 0x40 SWAP4 PUSH1 0x24 SWAP3 PUSH2 0xD5C JUMPI JUMPDEST POP DUP4 MLOAD SWAP9 DUP10 SWAP4 DUP5 SWAP3 PUSH4 0x9C8F9F23 PUSH1 0xE0 SHL DUP5 MSTORE PUSH1 0x4 DUP5 ADD MSTORE GAS CALL SWAP5 DUP6 ISZERO PUSH2 0x236 JUMPI DUP7 SWAP3 PUSH1 0x0 SWAP2 PUSH1 0x0 SWAP8 PUSH2 0xD1F JUMPI JUMPDEST POP DUP3 DUP2 AND SWAP6 DUP1 DUP3 AND SWAP4 DUP8 DUP6 LT ISZERO PUSH2 0xD18 JUMPI POP JUMPDEST AND DUP3 SUB PUSH2 0xD12 JUMPI SWAP5 SWAP4 JUMPDEST PUSH1 0x84 CALLDATALOAD DUP7 LT ISZERO DUP1 PUSH2 0xD06 JUMPI JUMPDEST PUSH2 0xC36 SWAP1 PUSH2 0xEEF JUMP JUMPDEST PUSH1 0x40 MLOAD PUSH4 0xA9059CBB PUSH1 0xE0 SHL DUP1 DUP3 MSTORE PUSH1 0x1 PUSH1 0x1 PUSH1 0xA0 SHL SUB SWAP5 SWAP1 SWAP5 AND PUSH1 0x4 DUP3 ADD MSTORE PUSH1 0x24 DUP2 ADD DUP8 SWAP1 MSTORE SWAP2 DUP5 SWAP1 DUP4 SWAP1 PUSH1 0x44 SWAP1 DUP3 SWAP1 PUSH1 0x0 SWAP1 GAS CALL SWAP7 DUP8 ISZERO PUSH2 0x236 JUMPI PUSH1 0x0 DUP6 SWAP5 DUP8 SWAP5 PUSH2 0xCAE SWAP11 PUSH2 0xCE9 JUMPI JUMPDEST POP PUSH1 0x40 MLOAD SWAP1 DUP2 MSTORE PUSH1 0x1 PUSH1 0x1 PUSH1 0xA0 SHL SUB SWAP1 SWAP3 AND PUSH1 0x4 DUP4 ADD MSTORE PUSH1 0x24 DUP3 ADD SWAP4 SWAP1 SWAP4 MSTORE SWAP7 DUP8 SWAP3 DUP4 SWAP2 DUP3 SWAP1 PUSH1 0x44 DUP3 ADD SWAP1 JUMP JUMPDEST SUB SWAP3 GAS CALL SWAP4 DUP5 ISZERO PUSH2 0x236 JUMPI PUSH1 0x40 SWAP5 PUSH2 0xCCC JUMPI JUMPDEST POP DUP4 MLOAD SWAP3 DUP4 MSTORE DUP3 ADD MSTORE RETURN JUMPDEST PUSH2 0xCE2 SWAP1 DUP3 RETURNDATASIZE DUP5 GT PUSH2 0x545 JUMPI PUSH2 0x536 DUP2 DUP4 PUSH2 0xE92 JUMP JUMPDEST POP DUP5 PUSH2 0xCC1 JUMP JUMPDEST PUSH2 0xCFF SWAP1 DUP8 RETURNDATASIZE DUP10 GT PUSH2 0x545 JUMPI PUSH2 0x536 DUP2 DUP4 PUSH2 0xE92 JUMP JUMPDEST POP DUP11 PUSH2 0xC81 JUMP JUMPDEST POP PUSH1 0xA4 CALLDATALOAD DUP6 LT ISZERO PUSH2 0xC2D JUMP JUMPDEST SWAP4 PUSH2 0xC21 JUMP JUMPDEST SWAP1 POP PUSH2 0xC17 JUMP JUMPDEST SWAP4 POP SWAP6 POP POP PUSH1 0x40 DUP3 RETURNDATASIZE PUSH1 0x40 GT PUSH2 0xD54 JUMPI JUMPDEST DUP2 PUSH2 0xD3D PUSH1 0x40 SWAP4 DUP4 PUSH2 0xE92 JUMP JUMPDEST DUP2 ADD SUB SLT PUSH2 0xA3 JUMPI DUP2 DUP4 DUP8 SWAP4 MLOAD SWAP2 ADD MLOAD SWAP6 DUP9 PUSH2 0xC04 JUMP JUMPDEST RETURNDATASIZE SWAP2 POP PUSH2 0xD30 JUMP JUMPDEST PUSH2 0xD72 SWAP1 DUP9 RETURNDATASIZE DUP11 GT PUSH2 0x545 JUMPI PUSH2 0x536 DUP2 DUP4 PUSH2 0xE92 JUMP JUMPDEST POP DUP11 PUSH2 0xBD7 JUMP JUMPDEST CALLVALUE PUSH2 0xA3 JUMPI PUSH1 0x60 CALLDATASIZE PUSH1 0x3 NOT ADD SLT PUSH2 0xA3 JUMPI PUSH1 0x20 PUSH2 0xDA7 PUSH2 0xD97 PUSH2 0xDB9 JUMP JUMPDEST PUSH2 0xD9F PUSH2 0xDCF JUMP JUMPDEST PUSH2 0x184 PUSH2 0xDE5 JUMP JUMPDEST PUSH1 0x40 MLOAD PUSH1 0x1 PUSH1 0x1 PUSH1 0xA0 SHL SUB SWAP1 SWAP2 AND DUP2 MSTORE RETURN JUMPDEST PUSH1 0x4 CALLDATALOAD SWAP1 PUSH1 0x1 PUSH1 0x1 PUSH1 0xA0 SHL SUB DUP3 AND DUP3 SUB PUSH2 0xA3 JUMPI JUMP JUMPDEST PUSH1 0x24 CALLDATALOAD SWAP1 PUSH1 0x1 PUSH1 0x1 PUSH1 0xA0 SHL SUB DUP3 AND DUP3 SUB PUSH2 0xA3 JUMPI JUMP JUMPDEST PUSH1 0x44 CALLDATALOAD SWAP1 PUSH3 0xFFFFFF DUP3 AND DUP3 SUB PUSH2 0xA3 JUMPI JUMP JUMPDEST SWAP2 DUP2 PUSH1 0x1F DUP5 ADD SLT ISZERO PUSH2 0xA3 JUMPI DUP3 CALLDATALOAD SWAP2 PUSH8 0xFFFFFFFFFFFFFFFF DUP4 GT PUSH2 0xA3 JUMPI PUSH1 0x20 DUP1 DUP6 ADD SWAP5 DUP5 PUSH1 0x5 SHL ADD ADD GT PUSH2 0xA3 JUMPI JUMP JUMPDEST SWAP1 DUP2 MLOAD DUP1 DUP3 MSTORE PUSH1 0x20 DUP1 DUP1 SWAP4 ADD SWAP4 ADD SWAP2 PUSH1 0x0 JUMPDEST DUP3 DUP2 LT PUSH2 0xE48 JUMPI POP POP POP POP SWAP1 JUMP JUMPDEST DUP4 MLOAD DUP6 MSTORE SWAP4 DUP2 ADD SWAP4 SWAP3 DUP2 ADD SWAP3 PUSH1 0x1 ADD PUSH2 0xE3A JUMP JUMPDEST ISZERO PUSH2 0xE63 JUMPI JUMP JUMPDEST PUSH1 0x40 MLOAD PUSH3 0x461BCD PUSH1 0xE5 SHL DUP2 MSTORE PUSH1 0x20 PUSH1 0x4 DUP3 ADD MSTORE PUSH1 0x7 PUSH1 0x24 DUP3 ADD MSTORE PUSH7 0x115E1C1A5C9959 PUSH1 0xCA SHL PUSH1 0x44 DUP3 ADD MSTORE PUSH1 0x64 SWAP1 REVERT JUMPDEST SWAP1 PUSH1 0x1F DUP1 NOT SWAP2 ADD AND DUP2 ADD SWAP1 DUP2 LT PUSH8 0xFFFFFFFFFFFFFFFF DUP3 GT OR PUSH2 0xEB4 JUMPI PUSH1 0x40 MSTORE JUMP JUMPDEST PUSH4 0x4E487B71 PUSH1 0xE0 SHL PUSH1 0x0 MSTORE PUSH1 0x41 PUSH1 0x4 MSTORE PUSH1 0x24 PUSH1 0x0 REVERT JUMPDEST SWAP1 DUP2 PUSH1 0x20 SWAP2 SUB SLT PUSH2 0xA3 JUMPI MLOAD DUP1 ISZERO ISZERO DUP2 SUB PUSH2 0xA3 JUMPI SWAP1 JUMP JUMPDEST SWAP2 SWAP1 DUP3 SUB SWAP2 DUP3 GT PUSH2 0x54C JUMPI JUMP JUMPDEST ISZERO PUSH2 0xEF6 JUMPI JUMP JUMPDEST PUSH1 0x40 MLOAD PUSH3 0x461BCD PUSH1 0xE5 SHL DUP2 MSTORE PUSH1 0x20 PUSH1 0x4 DUP3 ADD MSTORE PUSH1 0x13 PUSH1 0x24 DUP3 ADD MSTORE PUSH19 0x125B9CDD59999A58DA595B9D081BDD5D1C1D5D PUSH1 0x6A SHL PUSH1 0x44 DUP3 ADD MSTORE PUSH1 0x64 SWAP1 REVERT JUMPDEST ISZERO PUSH2 0xF38 JUMPI JUMP JUMPDEST PUSH1 0x40 MLOAD PUSH3 0x461BCD PUSH1 0xE5 SHL DUP2 MSTORE PUSH1 0x20 PUSH1 0x4 DUP3 ADD MSTORE PUSH1 0xC PUSH1 0x24 DUP3 ADD MSTORE PUSH12 0x92DCECC2D8D2C840E0C2E8D PUSH1 0xA3 SHL PUSH1 0x44 DUP3 ADD MSTORE PUSH1 0x64 SWAP1 REVERT JUMPDEST PUSH8 0xFFFFFFFFFFFFFFFF DUP2 GT PUSH2 0xEB4 JUMPI PUSH1 0x5 SHL PUSH1 0x20 ADD SWAP1 JUMP JUMPDEST SWAP1 PUSH2 0xF8E DUP3 PUSH2 0xF6C JUMP JUMPDEST PUSH2 0xF9B PUSH1 0x40 MLOAD SWAP2 DUP3 PUSH2 0xE92 JUMP JUMPDEST DUP3 DUP2 MSTORE DUP1 SWAP3 PUSH2 0xFAC PUSH1 0x1F NOT SWAP2 PUSH2 0xF6C JUMP JUMPDEST ADD SWAP1 PUSH1 0x20 CALLDATASIZE SWAP2 ADD CALLDATACOPY JUMP JUMPDEST DUP1 MLOAD ISZERO PUSH2 0x6D2 JUMPI PUSH1 0x20 ADD SWAP1 JUMP JUMPDEST DUP1 MLOAD DUP3 LT ISZERO PUSH2 0x6D2 JUMPI PUSH1 0x20 SWAP2 PUSH1 0x5 SHL ADD ADD SWAP1 JUMP JUMPDEST SWAP2 SWAP1 DUP2 LT ISZERO PUSH2 0x6D2 JUMPI PUSH1 0x5 SHL ADD SWAP1 JUMP JUMPDEST CALLDATALOAD PUSH1 0x1 PUSH1 0x1 PUSH1 0xA0 SHL SUB DUP2 AND DUP2 SUB PUSH2 0xA3 JUMPI SWAP1 JUMP JUMPDEST PUSH1 0x0 NOT DUP2 EQ PUSH2 0x54C JUMPI PUSH1 0x1 ADD SWAP1 JUMP JUMPDEST CALLDATALOAD PUSH3 0xFFFFFF DUP2 AND DUP2 SUB PUSH2 0xA3 JUMPI SWAP1 JUMP JUMPDEST PUSH1 0x1 PUSH1 0x1 PUSH1 0xA0 SHL SUB SWAP3 SWAP1 SWAP2 SWAP1 DUP4 DUP1 DUP4 AND DUP2 DUP6 AND LT ISZERO PUSH2 0x111C JUMPI PUSH3 0xFFFFFF SWAP3 JUMPDEST PUSH1 0x40 MLOAD PUSH4 0xB4C7741 PUSH1 0xE1 SHL DUP2 MSTORE SWAP5 DUP3 AND PUSH1 0x4 DUP7 ADD MSTORE AND PUSH1 0x24 DUP5 ADD MSTORE AND PUSH1 0x44 DUP3 ADD MSTORE PUSH1 0x20 DUP2 PUSH1 0x64 DUP2 PUSH32 0x0 DUP7 AND GAS STATICCALL SWAP1 DUP2 ISZERO PUSH2 0x236 JUMPI PUSH1 0x0 SWAP2 PUSH2 0x10DB JUMPI JUMPDEST POP SWAP1 DUP2 AND ISZERO PUSH2 0x10A0 JUMPI SWAP1 JUMP JUMPDEST PUSH1 0x40 MLOAD PUSH3 0x461BCD PUSH1 0xE5 SHL DUP2 MSTORE PUSH1 0x20 PUSH1 0x4 DUP3 ADD MSTORE PUSH1 0x13 PUSH1 0x24 DUP3 ADD MSTORE PUSH19 0x141BDBDB08191BD95CC81B9BDD08195E1A5CDD PUSH1 0x6A SHL PUSH1 0x44 DUP3 ADD MSTORE PUSH1 0x64 SWAP1 REVERT JUMPDEST PUSH1 0x20 DUP2 RETURNDATASIZE DUP3 GT PUSH2 0x1114 JUMPI JUMPDEST DUP2 PUSH2 0x10F3 PUSH1 0x20 SWAP4 DUP4 PUSH2 0xE92 JUMP JUMPDEST DUP2 ADD SUB SLT PUSH2 0x1110 JUMPI MLOAD SWAP1 DUP3 DUP3 AND DUP3 SUB PUSH2 0x110D JUMPI POP CODESIZE PUSH2 0x1094 JUMP JUMPDEST DUP1 REVERT JUMPDEST POP DUP1 REVERT JUMPDEST RETURNDATASIZE SWAP2 POP PUSH2 0x10E6 JUMP JUMPDEST PUSH3 0xFFFFFF SWAP3 SWAP4 PUSH2 0x1039 JUMP INVALID LOG2 PUSH5 0x6970667358 0x22 SLT KECCAK256 DIV SWAP7 SWAP15 SHL PREVRANDAO 0xB1 SHR 0xC5 SWAP15 0xF MUL 0xB2 0xEA 0xE5 0x2B 0xDA DUP10 0x4B GT PUSH18 0x2624882C7336B0F5140E985564736F6C6343 STOP ADDMOD EQ STOP CALLER "},"methodIdentifiers":{"addLiquidity(address,address,uint24,uint256,uint256,uint256,uint256,int24,int24,address,uint256)":"83395351","factory()":"c45a0155","getAmountsOut(uint256,address[],uint24[])":"9f48b439","getPool(address,address,uint24)":"1698ee82","removeLiquidity(address,address,uint24,uint256,uint256,uint256,address,uint256)":"337141b1","swapExactTokensForTokens(uint256,uint256,address[],uint24[],address,uint256)":"93a2e9ed"}}}}}