{
  "_format": "hh-sol-artifact-1",
  "contractName": "DEXFactory",
  "sourceName": "contracts/core/DEXFactory.sol",
  "abi": [
    {
      "inputs": [],
      "stateMutability": "nonpayable",
      "type": "constructor"
    },
    {
      "anonymous": false,
      "inputs": [
        {
          "indexed": true,
          "internalType": "uint24",
          "name": "fee",
          "type": "uint24"
        }
      ],
      "name": "FeeAmountEnabled",
      "type": "event"
    },
    {
      "anonymous": false,
      "inputs": [
        {
          "indexed": true,
          "internalType": "address",
          "name": "token0",
          "type": "address"
        },
        {
          "indexed": true,
          "internalType": "address",
          "name": "token1",
          "type": "address"
        },
        {
          "indexed": true,
          "internalType": "uint24",
          "name": "fee",
          "type": "uint24"
        },
        {
          "indexed": false,
          "internalType": "address",
          "name": "pool",
          "type": "address"
        },
        {
          "indexed": false,
          "internalType": "uint256",
          "name": "poolId",
          "type": "uint256"
        }
      ],
      "name": "PoolCreated",
      "type": "event"
    },
    {
      "inputs": [],
      "name": "FEE_HIGH",
      "outputs": [
        {
          "internalType": "uint24",
          "name": "",
          "type": "uint24"
        }
      ],
      "stateMutability": "view",
      "type": "function"
    },
    {
      "inputs": [],
      "name": "FEE_LOW",
      "outputs": [
        {
          "internalType": "uint24",
          "name": "",
          "type": "uint24"
        }
      ],
      "stateMutability": "view",
      "type": "function"
    },
    {
      "inputs": [],
      "name": "FEE_MEDIUM",
      "outputs": [
        {
          "internalType": "uint24",
          "name": "",
          "type": "uint24"
        }
      ],
      "stateMutability": "view",
      "type": "function"
    },
    {
      "inputs": [
        {
          "internalType": "uint256",
          "name": "",
          "type": "uint256"
        }
      ],
      "name": "allPools",
      "outputs": [
        {
          "internalType": "address",
          "name": "",
          "type": "address"
        }
      ],
      "stateMutability": "view",
      "type": "function"
    },
    {
      "inputs": [],
      "name": "allPoolsLength",
      "outputs": [
        {
          "internalType": "uint256",
          "name": "",
          "type": "uint256"
        }
      ],
      "stateMutability": "view",
      "type": "function"
    },
    {
      "inputs": [
        {
          "internalType": "address",
          "name": "tokenA",
          "type": "address"
        },
        {
          "internalType": "address",
          "name": "tokenB",
          "type": "address"
        },
        {
          "internalType": "uint24",
          "name": "fee",
          "type": "uint24"
        }
      ],
      "name": "createPool",
      "outputs": [
        {
          "internalType": "address",
          "name": "pool",
          "type": "address"
        }
      ],
      "stateMutability": "nonpayable",
      "type": "function"
    },
    {
      "inputs": [
        {
          "internalType": "uint24",
          "name": "fee",
          "type": "uint24"
        }
      ],
      "name": "enableFeeAmount",
      "outputs": [],
      "stateMutability": "nonpayable",
      "type": "function"
    },
    {
      "inputs": [
        {
          "internalType": "uint24",
          "name": "",
          "type": "uint24"
        }
      ],
      "name": "feeEnabled",
      "outputs": [
        {
          "internalType": "bool",
          "name": "",
          "type": "bool"
        }
      ],
      "stateMutability": "view",
      "type": "function"
    },
    {
      "inputs": [
        {
          "internalType": "address",
          "name": "",
          "type": "address"
        },
        {
          "internalType": "address",
          "name": "",
          "type": "address"
        },
        {
          "internalType": "uint24",
          "name": "",
          "type": "uint24"
        }
      ],
      "name": "getPool",
      "outputs": [
        {
          "internalType": "address",
          "name": "",
          "type": "address"
        }
      ],
      "stateMutability": "view",
      "type": "function"
    },
    {
      "inputs": [],
      "name": "owner",
      "outputs": [
        {
          "internalType": "address",
          "name": "",
          "type": "address"
        }
      ],
      "stateMutability": "view",
      "type": "function"
    }
  ],
  "bytecode": "0x608080604052346100ea57600080546001600160a01b0319163317815560036020527f6b16ef514f22b74729cbea5cc7babfecbdc2309e530ca716643d11fe929eed2e805460ff1990811660019081179092557f5ed261ce397475c8f8ccd7526f550ae383248415591df3d1b32ee25c9ab0af2e8054821683179055610bb88084527fa81df8da5a49e0ca2395b3c1eb4d55b23a04eb0615a8bee310459ef8a1c6e29c80549092169092179055907f1f17e6f377d5868060fb453803126244f4e60e4c862eaa32ee28a9fac946ba88906101f46064838380a2828280a280a261253590816100f08239f35b600080fdfe60806040818152600491823610156200001757600080fd5b600092833560e01c9182631698ee8214620005d3575081633add5c0514620005b557816341d1de97146200056c57816363075eb9146200054d5781638da5cb5b1462000523578163a1671295146200024b578163bcb928ec146200011a57508063ca21624714620000fc578063e37e232714620000c15763efde4e64146200009e57600080fd5b34620000bd5781600319360112620000bd576020906002549051908152f35b5080fd5b5034620000bd576020366003190112620000bd5760ff8160209362ffffff620000e962000683565b1681526003855220541690519015158152f35b5034620000bd5781600319360112620000bd57602090516101f48152f35b91905034620002475760208060031936011262000243576200013b62000683565b84546001600160a01b03163303620002155762ffffff16928385526003825260ff8386205416620001de57620186a0841015620001ae5750828452600390528220805460ff191660011790557f1f17e6f377d5868060fb453803126244f4e60e4c862eaa32ee28a9fac946ba888280a280f35b915162461bcd60e51b815291820152600c60248201526b08ccaca40e8dede40d0d2ced60a31b6044820152606490fd5b915162461bcd60e51b815291820152601360248201527211995948185b1c9958591e48195b98589b1959606a1b6044820152606490fd5b50905162461bcd60e51b81529182015260096024820152682737ba1037bbb732b960b91b6044820152606490fd5b8380fd5b8280fd5b919050346200024757606036600319011262000247576200026b6200063d565b6200027562000659565b6200027f62000670565b9460018060a01b03948583169386811697858914620004ed5762ffffff169485845260209860038a5260ff888620541615620004b8578892911115620004b1575b169182156200047f578281526001885286868220941693848252885285812085825288528686822054166200044e578551611e1b8082019082821067ffffffffffffffff8311176200043b576060918391620006e58339868152878c820152888a82015203019082f080156200042f5787169683825260018952868220858352895286822086835289528682206bffffffffffffffffffffffff60a01b90898282541617905585835260018a528783208584528a528783208784528a528888842091825416179055600254680100000000000000008110156200041c57806001620003af920160025562000696565b819291549060031b918a831b921b191617905560025491600019830192831162000409575050847f6b0bd0d931644137e75247d249fc244cf0391bdde8bce70175de4427f978dd359181519088825289820152a451908152f35b634e487b7160e01b825260119052602490fd5b634e487b7160e01b835260418452602483fd5b508551903d90823e3d90fd5b634e487b7160e01b845260418552602484fd5b855162461bcd60e51b8152808301899052600b60248201526a506f6f6c2065786973747360a81b6044820152606490fd5b855162461bcd60e51b8152808301899052600c60248201526b5a65726f206164647265737360a01b6044820152606490fd5b93620002c0565b875162461bcd60e51b81528085018b9052600f60248201526e119959481b9bdd08195b98589b1959608a1b6044820152606490fd5b865162461bcd60e51b8152602081850152601060248201526f4964656e746963616c20746f6b656e7360801b6044820152606490fd5b505034620000bd5781600319360112620000bd57905490516001600160a01b039091168152602090f35b505034620000bd5781600319360112620000bd5760209051610bb88152f35b9050346200024757602036600319011262000247573591600254831015620005b257506200059c60209262000696565b905491519160018060a01b039160031b1c168152f35b80fd5b505034620000bd5781600319360112620000bd576020905160648152f35b8490843462000247576060366003190112620002475791602092620005f76200063d565b916200060262000659565b6200060c62000670565b6001600160a01b03948516835260018752838320918516835290865282822062ffffff909116825285522054168152f35b600435906001600160a01b03821682036200065457565b600080fd5b602435906001600160a01b03821682036200065457565b6044359062ffffff821682036200065457565b6004359062ffffff821682036200065457565b600254811015620006ce5760026000527f405787fa12a823e0f2b7631cc41b3ba8828b3321ca811111fa75cd3aa3bb5ace0190600090565b634e487b7160e01b600052603260045260246000fdfe60e034620003ec576001600160401b0390601f19601f62001e1b3881900382810184168501919086831186841017620002f057808692606094604052833981010312620003ec57620000518362000411565b9160209460406200006487870162000411565b9501519562ffffff87168703620003ec576200007f620003f1565b93600985526804445582d56332d4c560bc1b828601526200009f620003f1565b60078152660445856332d4c560cc1b83820152855192848411620002f05760039384546001988982811c92168015620003e1575b84831014620003cb57818684931162000375575b508390868311600114620003125760009262000306575b505060001982871b1c191690881b1784555b8151948511620002f05760049586548881811c91168015620002e5575b83821014620002d0579081858897969594931162000272575b508193861160011462000207575050600093620001fb575b505082851b92600019911b1c19161790555b60055560805260a05260c0526040516119f490816200042782396080518181816102990152818161080901528181610bcd01528181610ec50152611470015260a0518181816101c0015281816103e0015281816105ce015281816106860152818161086b01528181610cd20152610f2b015260c05181818161013c015281816102de0152610c0c0152f35b0151915038806200015e565b88969493929194168760005284600020946000905b8282106200025857505085116200023d575b50505050811b01905562000170565b01519060f884600019921b161c19169055388080806200022e565b8484015187558a989096019593840193908101906200021c565b9091929394955087600052826000208580890160051c820192858a10620002c6575b918b918a999897969594930160051c01915b828110620002b657505062000146565b600081558998508b9101620002a6565b9250819262000294565b602288634e487b7160e01b6000525260246000fd5b90607f16906200012d565b634e487b7160e01b600052604160045260246000fd5b015190503880620000fe565b90898b94169188600052856000209260005b878282106200035e575050841162000345575b505050811b01845562000110565b015160001983891b60f8161c1916905538808062000337565b8385015186558e9790950194938401930162000324565b90915086600052836000208680850160051c820192868610620003c1575b918c91869594930160051c01915b828110620003b1575050620000e7565b600081558594508c9101620003a1565b9250819262000393565b634e487b7160e01b600052602260045260246000fd5b91607f1691620000d3565b600080fd5b60408051919082016001600160401b03811183821017620002f057604052565b51906001600160a01b0382168203620003ec5756fe608060408181526004918236101561001657600080fd5b600092833560e01c918263065e53601461163e5750816306fdde0314611549578163095ea7b31461149f5781630dfe16811461145b57816318160ddd1461143c57816323b872dd14611348578163313ce5671461132c578163443cb4bc1461130d5781634ac0eb1d14610ddd57816355f5751014610d735781635a76f25e14610d545781636882a88814610d3657816370a0823114610cff57816382c0ab2114610ba357816395d89b4114610aa05781639c8f9f23146106e15781639f1d0f591461025b57508063a035b1fe1461023d578063a1634b141461021f578063a9059cbb146101ef578063d21220a7146101ac578063dd62ed3e146101645763ddca3f431461012257600080fd5b346101605781600319360112610160576020905162ffffff7f0000000000000000000000000000000000000000000000000000000000000000168152f35b5080fd5b5034610160578060031936011261016057806020926101816116a6565b6101896116c1565b6001600160a01b0391821683526001865283832091168252845220549051908152f35b5034610160578160031936011261016057517f00000000000000000000000000000000000000000000000000000000000000006001600160a01b03168152602090f35b503461016057806003193601126101605760209061021861020e6116a6565b602435903361170f565b5160018152f35b503461016057816003193601126101605751620d89e7198152602090f35b50346101605781600319360112610160576020906008549051908152f35b838334610160576060366003190112610160576102766116a6565b604435929060243561028661185b565b80156106ad576001600160a01b039182167f0000000000000000000000000000000000000000000000000000000000000000831681811493916102d29085908115610681575b5061188b565b61030962ffffff6103027f00000000000000000000000000000000000000000000000000000000000000006118c7565b1684611810565b8415610554576007549061031d8282611810565b9060065461271090818102918183041490151715610541576103536103639361034d899897969461035c946117ed565b90611823565b9a8b10156118dc565b891061191e565b86516323b872dd60e01b815233818b019081523060208281019190915260408201959095529091849183919082908a90829060600103925af18015610537576103dc9284928a9261051a575b50885163a9059cbb60e01b815233818d01908152602081019390935293849283918a918391604090910190565b03927f0000000000000000000000000000000000000000000000000000000000000000165af18015610510576104e2575b505061041b816006546117ed565b60065561042a8560075461187e565b6007555b600754670de0b6b3a7640000908181029181830414901517156104cf576006546020975061045b91611823565b9182600855806000146104c05781935b50156104bb575061047b84611963565b8351928352858301528282015233907f86cc8bfdfdfabc765ac3e479a03d9e964b00478f3dd26615949fa6b475904b0260603392a3600160055551908152f35b61047b565b6104c986611963565b9361046b565b634e487b7160e01b845260118752602484fd5b8161050192903d10610509575b6104f981836116d7565b810190611843565b50868061040d565b503d6104ef565b86513d87823e3d90fd5b61053090843d8611610509576104f981836116d7565b508b6103af565b87513d88823e3d90fd5b634e487b7160e01b895260118c52602489fd5b600692919254906105658282611810565b9060075461271090818102918183041490151715610541576103536105959361034d899897969461035c946117ed565b86516323b872dd60e01b815233818b019081523060208281019190915260408201959095529091849183919082908a90829060600103927f0000000000000000000000000000000000000000000000000000000000000000165af180156105375761062f9284928a9261051a5750885163a9059cbb60e01b815233818d01908152602081019390935293849283918a918391604090910190565b03925af1801561051057610663575b505061064c816007546117ed565b60075561065b8560065461187e565b60065561042e565b8161067992903d10610509576104f981836116d7565b50868061063e565b9050837f000000000000000000000000000000000000000000000000000000000000000016148a6102cc565b835162461bcd60e51b8152602081880152600e60248201526d125b9d985b1a5908185b5bdd5b9d60921b6044820152606490fd5b8391503461016057602080600319360112610a9c57813561070061185b565b8015610a6557338452838252808585205410610a2b576002549361073f6107328661072d60065486611810565b611823565b9561072d60075485611810565b9385151580610a22575b156109df5733156109ca573382528184528682205483811061099e578390338452838652038783205582600254036002558187518481527fddf252ad1be2c89b69c2b068fc378daa952ba7f163c4a11628f55a4df523b3ef863392a36107b18660065461187e565b806006556107c18660075461187e565b8060075581151580610995575b610954575b5050865163a9059cbb60e01b80825233838301908152602081018990526001600160a01b039392908790829081900360400181887f000000000000000000000000000000000000000000000000000000000000000089165af1801561094a579285899361086796938a9661092d575b508c519081523392810192835260208301949094529294859384929091839160400190565b03927f0000000000000000000000000000000000000000000000000000000000000000165af180156109235790879291610906575b5033815260098452206108b082825461187e565b90557f743033787f4738ff4d6a7225ce2bd0977ee5f86b91a902a58f5e4d0b297b46448551806108f433948789846040919493926060820195825260208201520152565b0390a260016005558351928352820152f35b61091c90853d8711610509576104f981836116d7565b508761089c565b87513d84823e3d90fd5b61094390873d8911610509576104f981836116d7565b508d610842565b8a513d87823e3d90fd5b670de0b6b3a764000090818102918183041490151715610982579061097891611823565b60085587806107d3565b634e487b7160e01b845260118352602484fd5b508015156107ce565b875163391434e360e21b8152339281019283526020830191909152604082018490529081906060010390fd5b602491875191634b637e8f60e11b8352820152fd5b865162461bcd60e51b8152908101849052601d60248201527f496e73756666696369656e74206c6971756964697479206275726e65640000006044820152606490fd5b50841515610749565b845162461bcd60e51b81528084018390526014602482015273496e73756666696369656e742062616c616e636560601b6044820152606490fd5b845162461bcd60e51b81528084018390526011602482015270496e76616c6964206c697175696469747960781b6044820152606490fd5b8280fd5b838334610160578160031936011261016057805191809380549160019083821c92828516948515610b99575b6020958686108114610b8657858952908115610b625750600114610b0a575b610b068787610afc828c03836116d7565b519182918261165d565b0390f35b81529295507f8a35acfbc15ff81a39ae7d344fd709f28e8600b4aa8c65c6b64bfe7fe36bd19b5b828410610b4f5750505082610b0694610afc92820101948680610aeb565b8054868501880152928601928101610b31565b60ff19168887015250505050151560051b8301019250610afc82610b068680610aeb565b634e487b7160e01b845260228352602484fd5b93607f1693610acc565b828434610cfc5781600319360112610cfc57610bbd6116a6565b610c0060018060a01b03809216827f00000000000000000000000000000000000000000000000000000000000000001681149081938215610cd0575b505061188b565b610c3962ffffff610c307f00000000000000000000000000000000000000000000000000000000000000006118c7565b16602435611810565b9015610c9257610c4b60075482611810565b916006549061271091828102928184041490151715610c7f575060209450610c77929161034d916117ed565b905b51908152f35b634e487b7160e01b815260118652602490fd5b610c9e60065482611810565b916007549061271091828102928184041490151715610c7f575060209450610cca929161034d916117ed565b90610c79565b7f0000000000000000000000000000000000000000000000000000000000000000161490508680610bf9565b80fd5b5050346101605760203660031901126101605760209181906001600160a01b03610d276116a6565b16815280845220549051908152f35b50503461016057816003193601126101605760209051620d89e88152f35b5050346101605781600319360112610160576020906007549051908152f35b5050346101605760203660031901126101605760a09181906001600160a01b03610d9b6116a6565b16815260096020522090815491600181015491600360028301549201549281519485528060020b602086015260181c60020b9084015260608301526080820152f35b905034610a9c5760c0366003190112610a9c578035916024908135926084358060020b918282036113095760a435928360020b9081850361130557610e2061185b565b881515806112fc575b156112c8578181121561129157620d89e71913159081611283575b501561124d57600654801580611243575b156111515750610e6f610e6a88978099611810565b611974565b9462ffffff19600a5416600a555b851561110f5784516323b872dd60e01b8082523384830190815230602080830191909152604082018b905294926001600160a01b0392918d91908790829081900360600181857f000000000000000000000000000000000000000000000000000000000000000089165af1801561110557928d92610f27959289956110e8575b508b5191825233878301908152306020820152604081019490945290948593849291839160600190565b03927f0000000000000000000000000000000000000000000000000000000000000000165af180156110de576110c1575b50610f65886006546117ed565b80600655610f758a6007546117ed565b80600755670de0b6b3a7640000908181029181830414901517156110af5790610f9d91611823565b600855331561109b57505083610b069697986009600193610fc0896002546117ed565b6002553383528281528383208981540190558351898152837fddf252ad1be2c89b69c2b068fc378daa952ba7f163c4a11628f55a4df523b3ef833393a3338352522061100d8682546117ed565b8155019162ffffff83549160181b65ffffff0000001692169065ffffffffffff191617179055805133907f458f5fa412d0f69b08dd84872b0215675cc67bc1d5b6fd93300a1c3878b86196339180611078878b8b846040919493926060820195825260208201520152565b0390a3600160055551938493846040919493926060820195825260208201520152565b855163ec442f0560e01b81529081018a9052fd5b634e487b7160e01b8c5260118352838cfd5b6110d790843d8611610509576104f981836116d7565b5038610f58565b87513d8d823e3d90fd5b6110fe90863d8811610509576104f981836116d7565b5038610efd565b8a513d84823e3d90fd5b90601d606492602087519362461bcd60e51b85528401528201527f496e73756666696369656e74206c6971756964697479206d696e7465640000006044820152fd5b600754976111638261072d8b84611810565b978089116111e6575060643588106111ae576111979097985b61072d6111906002549461072d868d611810565b938b611810565b808210156111a757505b94610e7d565b90506111a1565b855162461bcd60e51b815260208185015260138189015272496e73756666696369656e7420746f6b656e3160681b6044820152606490fd5b9750506111f78861072d838a611810565b604435811061120b5761119790979861117c565b855162461bcd60e51b8152602081850152601381890152720496e73756666696369656e7420746f6b656e3606c1b6044820152606490fd5b5060075415610e55565b606490601186602087519362461bcd60e51b8552840152820152705469636b206f7574206f662072616e676560781b6044820152fd5b620d89e89150131538610e44565b855162461bcd60e51b815260208185015260128189015271496e76616c6964207469636b2072616e676560701b6044820152606490fd5b855162461bcd60e51b8152602081850152600f818901526e496e76616c696420616d6f756e747360881b6044820152606490fd5b50871515610e29565b8980fd5b8780fd5b5050346101605781600319360112610160576020906006549051908152f35b5050346101605781600319360112610160576020905160128152f35b90508234610cfc576060366003190112610cfc576113646116a6565b61136c6116c1565b916044359360018060a01b0383168083526001602052868320338452602052868320549160001983106113a8575b60208861021889898961170f565b8683106114105781156113f95733156113e2575082526001602090815286832033845281529186902090859003905582906102188761139a565b8751634a1406b160e11b8152908101849052602490fd5b875163e602df0560e01b8152908101849052602490fd5b8751637dc7a0d960e11b8152339181019182526020820193909352604081018790528291506060010390fd5b5050346101605781600319360112610160576020906002549051908152f35b505034610160578160031936011261016057517f00000000000000000000000000000000000000000000000000000000000000006001600160a01b03168152602090f35b905034610a9c5781600319360112610a9c576114b96116a6565b602435903315611532576001600160a01b031691821561151b57508083602095338152600187528181208582528752205582519081527f8c5be1e5ebec7d5bd14f71427d1e84f3dd0314c0f7b2291e5b200ac8c7c3b925843392a35160018152f35b8351634a1406b160e11b8152908101859052602490fd5b835163e602df0560e01b8152808401869052602490fd5b91905034610a9c5782600319360112610a9c57805191836003549060019082821c928281168015611634575b602095868610821461162157508488529081156115ff57506001146115a6575b610b068686610afc828b03836116d7565b929550600383527fc2575a0e9e593c00f959f8c92f12db2869c3395a3b0502d05e2516446f71f85b5b8284106115ec5750505082610b0694610afc928201019438611595565b80548685018801529286019281016115cf565b60ff191687860152505050151560051b8301019250610afc82610b0638611595565b634e487b7160e01b845260229052602483fd5b93607f1693611575565b849034610160578160031936011261016057602090600a5460020b8152f35b6020808252825181830181905290939260005b82811061169257505060409293506000838284010152601f8019910116010190565b818101860151848201604001528501611670565b600435906001600160a01b03821682036116bc57565b600080fd5b602435906001600160a01b03821682036116bc57565b90601f8019910116810190811067ffffffffffffffff8211176116f957604052565b634e487b7160e01b600052604160045260246000fd5b916001600160a01b038084169283156117d457169283156117bb5760009083825281602052604082205490838210611789575091604082827fddf252ad1be2c89b69c2b068fc378daa952ba7f163c4a11628f55a4df523b3ef958760209652828652038282205586815220818154019055604051908152a3565b60405163391434e360e21b81526001600160a01b03919091166004820152602481019190915260448101839052606490fd5b60405163ec442f0560e01b815260006004820152602490fd5b604051634b637e8f60e11b815260006004820152602490fd5b919082018092116117fa57565b634e487b7160e01b600052601160045260246000fd5b818102929181159184041417156117fa57565b811561182d570490565b634e487b7160e01b600052601260045260246000fd5b908160209103126116bc575180151581036116bc5790565b60026005541461186c576002600555565b604051633ee5aeb560e01b8152600490fd5b919082039182116117fa57565b1561189257565b60405162461bcd60e51b815260206004820152600d60248201526c24b73b30b634b2103a37b5b2b760991b6044820152606490fd5b9062ffffff809216612710039182116117fa57565b156118e357565b60405162461bcd60e51b8152602060048201526013602482015272125b9cdd59999a58da595b9d081bdd5d1c1d5d606a1b6044820152606490fd5b1561192557565b60405162461bcd60e51b8152602060048201526016602482015275496e73756666696369656e74206c697175696469747960501b6044820152606490fd5b600160ff1b81146117fa5760000390565b80156119b85760018082018083116117fa57811c90825b8383106119985750505090565b909192506119af836119aa8184611823565b6117ed565b821c919061198b565b5060009056fea26469706673582212204208a369c0a675263886ff20df63aefbe6f73e3bca23edefcb43644bbca53ca964736f6c63430008140033a2646970667358221220b031791171691a1e0500f7a2c92a286fba2d52758543044a86e595f8ee31205d64736f6c63430008140033",
  "linkReferences": {},
  "deployedLinkReferences": {}
}