{
  "_format": "hh-sol-artifact-1",
  "contractName": "DEXRouter",
  "sourceName": "contracts/periphery/DEXRouter.sol",
  "abi": [
    {
      "inputs": [
        {
          "internalType": "address",
          "name": "_factory",
          "type": "address"
        }
      ],
      "stateMutability": "nonpayable",
      "type": "constructor"
    },
    {
      "anonymous": false,
      "inputs": [
        {
          "indexed": true,
          "internalType": "address",
          "name": "sender",
          "type": "address"
        },
        {
          "indexed": false,
          "internalType": "address[]",
          "name": "path",
          "type": "address[]"
        },
        {
          "indexed": false,
          "internalType": "uint256[]",
          "name": "amounts",
          "type": "uint256[]"
        }
      ],
      "name": "SwapExecuted",
      "type": "event"
    },
    {
      "inputs": [
        {
          "internalType": "address",
          "name": "tokenA",
          "type": "address"
        },
        {
          "internalType": "address",
          "name": "tokenB",
          "type": "address"
        },
        {
          "internalType": "uint24",
          "name": "fee",
          "type": "uint24"
        },
        {
          "internalType": "uint256",
          "name": "amountADesired",
          "type": "uint256"
        },
        {
          "internalType": "uint256",
          "name": "amountBDesired",
          "type": "uint256"
        },
        {
          "internalType": "uint256",
          "name": "amountAMin",
          "type": "uint256"
        },
        {
          "internalType": "uint256",
          "name": "amountBMin",
          "type": "uint256"
        },
        {
          "internalType": "int24",
          "name": "tickLower",
          "type": "int24"
        },
        {
          "internalType": "int24",
          "name": "tickUpper",
          "type": "int24"
        },
        {
          "internalType": "address",
          "name": "to",
          "type": "address"
        },
        {
          "internalType": "uint256",
          "name": "deadline",
          "type": "uint256"
        }
      ],
      "name": "addLiquidity",
      "outputs": [
        {
          "internalType": "uint256",
          "name": "amount0",
          "type": "uint256"
        },
        {
          "internalType": "uint256",
          "name": "amount1",
          "type": "uint256"
        },
        {
          "internalType": "uint256",
          "name": "liquidity",
          "type": "uint256"
        }
      ],
      "stateMutability": "nonpayable",
      "type": "function"
    },
    {
      "inputs": [],
      "name": "factory",
      "outputs": [
        {
          "internalType": "address",
          "name": "",
          "type": "address"
        }
      ],
      "stateMutability": "view",
      "type": "function"
    },
    {
      "inputs": [
        {
          "internalType": "uint256",
          "name": "amountIn",
          "type": "uint256"
        },
        {
          "internalType": "address[]",
          "name": "path",
          "type": "address[]"
        },
        {
          "internalType": "uint24[]",
          "name": "fees",
          "type": "uint24[]"
        }
      ],
      "name": "getAmountsOut",
      "outputs": [
        {
          "internalType": "uint256[]",
          "name": "amounts",
          "type": "uint256[]"
        }
      ],
      "stateMutability": "view",
      "type": "function"
    },
    {
      "inputs": [
        {
          "internalType": "address",
          "name": "tokenA",
          "type": "address"
        },
        {
          "internalType": "address",
          "name": "tokenB",
          "type": "address"
        },
        {
          "internalType": "uint24",
          "name": "fee",
          "type": "uint24"
        }
      ],
      "name": "getPool",
      "outputs": [
        {
          "internalType": "address",
          "name": "",
          "type": "address"
        }
      ],
      "stateMutability": "view",
      "type": "function"
    },
    {
      "inputs": [
        {
          "internalType": "address",
          "name": "tokenA",
          "type": "address"
        },
        {
          "internalType": "address",
          "name": "tokenB",
          "type": "address"
        },
        {
          "internalType": "uint24",
          "name": "fee",
          "type": "uint24"
        },
        {
          "internalType": "uint256",
          "name": "liquidity",
          "type": "uint256"
        },
        {
          "internalType": "uint256",
          "name": "amountAMin",
          "type": "uint256"
        },
        {
          "internalType": "uint256",
          "name": "amountBMin",
          "type": "uint256"
        },
        {
          "internalType": "address",
          "name": "to",
          "type": "address"
        },
        {
          "internalType": "uint256",
          "name": "deadline",
          "type": "uint256"
        }
      ],
      "name": "removeLiquidity",
      "outputs": [
        {
          "internalType": "uint256",
          "name": "amountA",
          "type": "uint256"
        },
        {
          "internalType": "uint256",
          "name": "amountB",
          "type": "uint256"
        }
      ],
      "stateMutability": "nonpayable",
      "type": "function"
    },
    {
      "inputs": [
        {
          "internalType": "uint256",
          "name": "amountIn",
          "type": "uint256"
        },
        {
          "internalType": "uint256",
          "name": "amountOutMin",
          "type": "uint256"
        },
        {
          "internalType": "address[]",
          "name": "path",
          "type": "address[]"
        },
        {
          "internalType": "uint24[]",
          "name": "fees",
          "type": "uint24[]"
        },
        {
          "internalType": "address",
          "name": "to",
          "type": "address"
        },
        {
          "internalType": "uint256",
          "name": "deadline",
          "type": "uint256"
        }
      ],
      "name": "swapExactTokensForTokens",
      "outputs": [
        {
          "internalType": "uint256[]",
          "name": "amounts",
          "type": "uint256[]"
        }
      ],
      "stateMutability": "nonpayable",
      "type": "function"
    }
  ],
  "bytecode": "0x60a03461007057601f6111e938819003918201601f19168301916001600160401b038311848410176100755780849260209460405283398101031261007057516001600160a01b03811681036100705760805260405161115d908161008c8239608051818181607401526110620152f35b600080fd5b634e487b7160e01b600052604160045260246000fdfe6080604052600436101561001257600080fd5b60003560e01c80631698ee8214610d79578063337141b114610b3257806383395351146106fb57806393a2e9ed146102ae5780639f48b439146100a85763c45a01551461005e57600080fd5b346100a35760003660031901126100a3576040517f00000000000000000000000000000000000000000000000000000000000000006001600160a01b03168152602090f35b600080fd5b346100a35760603660031901126100a357602467ffffffffffffffff81358181116100a3576100db903690600401610df7565b916044359081116100a3576100f4903690600401610df7565b92600281101580610286575b61010990610f31565b61011281610f84565b9160043561011f84610fb6565b5260005b60001983018381116102715781101561025757610149610144828588610fd7565b610fe7565b9060018101918282116102425761018a61016761014485888b610fd7565b6001600160a01b03929061018461017f868d8a610fd7565b61100a565b9161101a565b169161019a61014483878a610fd7565b926101a58388610fc3565b516040516382c0ab2160e01b81526001600160a01b039590951660048601526024850152602093908490829060449082905afa93841561023657600094610202575b5050916101f76101fd9387610fc3565b52610ffb565b610123565b90809450813d831161022f575b6102198183610e92565b810103126100a3576101f76101fd9351936101e7565b503d61020f565b6040513d6000823e3d90fd5b88634e487b7160e01b60005260116004526000fd5b6040516020808252819061026d90820187610e28565b0390f35b87634e487b7160e01b60005260116004526000fd5b5060018401808511610299578114610100565b85634e487b7160e01b60005260116004526000fd5b346100a35760c03660031901126100a35767ffffffffffffffff6004356044358281116100a3576102e3903690600401610df7565b9190926064359081116100a3576102fe903690600401610df7565b9092906084356001600160a01b03811690036100a3576103224260a4351015610e5c565b6002821015806106e8575b61033690610f31565b61033f82610f84565b928061034a85610fb6565b5282156106d2576000906020906103a1906001600160a01b0361036c8a610fe7565b6040516323b872dd60e01b81523360048201523060248201526044810193909352919485939190921691839182906064820190565b03925af18015610236576106b3575b5060005b600019830183811161054c57811015610562576103d5610144828589610fd7565b60018201821161054c57610402906103f461014460018501878b610fd7565b61018461017f85878b610fd7565b906000602061045f6001600160a01b03610420610144868a8e610fd7565b1661042b858a610fc3565b5160405163095ea7b360e01b81526001600160a01b0388166004820152602481019190915293849283919082906044820190565b03925af180156102365761051d575b50602061047f61014483878b610fd7565b606461048b8489610fc3565b51604051639f1d0f5960e01b81526001600160a01b039384166004820152602481019190915260006044820181905290958693849291165af18015610236576000906104e9575b6104e492506101f76001830187610fc3565b6103b4565b506020823d602011610515575b8161050360209383610e92565b810103126100a3576104e491516104d2565b3d91506104f6565b61053e9060203d602011610545575b6105368183610e92565b810190610eca565b508761046e565b503d61052c565b634e487b7160e01b600052601160045260246000fd5b828487600019830183811161054c5760206105e86000926105916024356105898389610fc3565b511015610eef565b6105b26001600160a01b036105aa610144848b8a610fd7565b169187610fc3565b5160405163a9059cbb60e01b81526001600160a01b03608435166004820152602481019190915293849283919082906044820190565b03925af1801561023657610694575b5060405192806040850160408652526060840191906000905b80821061066a575050507f4959c33b926e6cdd6625f8fedfbad39ab14bf915b79a8fc964089615191ce6278361026d948303602082015280610653339486610e28565b0390a2604051918291602083526020830190610e28565b90919283359060018060a01b0382168092036100a357602081600193829352019401920190610610565b6106ac9060203d602011610545576105368183610e92565b50836105f7565b6106cb9060203d602011610545576105368183610e92565b50856103b0565b634e487b7160e01b600052603260045260246000fd5b506001810180821161054c57821461032d565b346100a3576101603660031901126100a357610715610db9565b61071d610dcf565b90610726610de5565b606435906084359060e435948560020b8096036100a357610104358060020b8091036100a35761012435966001600160a01b039384891689036100a35761077d9061077642610144351015610e5c565b848961101a565b9184808916988186168a10600014610b2c575b16978814948515610b20576107dd9596935b6040516323b872dd60e01b808252336004830152306024830152604482018b9052602098909190899082908e90829060009082906064820190565b03925af1801561023657610b03575b506040519081523360048201523060248201526044810186905295821695878160648160008b5af1801561023657610ae6575b5060405163095ea7b360e01b8082526001600160a01b0383166004830152602482018b90529088818d816000816044810103925af1801561023657610ac9575b506040519081526001600160a01b038216600482015260248101869052878160448160008b5af1801561023657610aac575b5016918615610aa35760a435965b15610a9b5760c4355b60405197634ac0eb1d60e01b89528960048a01528560248a015260448901526064880152608487015260a486015260608560c4816000855af195861561023657600097600096600098610a57575b5060405163a9059cbb60e01b8082526001600160a01b039b909b16600482015260248101899052928690849060449082905a90600091f19182156102365789938793610a3a575b508381116109d2575b50505050838111610968575b5050606094506040519384528301526040820152f35b9582916109788561099c99610ee2565b60405192835233600484015260248301529096879190829060009082906044820190565b03925af1948515610236576060956109b5575b80610952565b6109cb90823d8411610545576105368183610e92565b50856109af565b610a05936109df91610ee2565b6040518b8152336004820152602481019190915292839190829060009082906044820190565b03925af1801561023657610a1d575b83818892610946565b610a3390843d8611610545576105368183610e92565b5087610a14565b610a5090843d8611610545576105368183610e92565b508b61093d565b9850965094506060873d8211610a93575b81610a7560609383610e92565b810103126100a357865194604085890151980151959795968a6108f6565b3d9150610a68565b60a4356108a8565b60c4359661089f565b610ac290883d8a11610545576105368183610e92565b508b610891565b610adf90893d8b11610545576105368183610e92565b508c61085f565b610afc90883d8a11610545576105368183610e92565b508b61081f565b610b1990893d8b11610545576105368183610e92565b508c6107ec565b6107dd959697936107a2565b94610790565b346100a3576101003660031901126100a357610b4c610db9565b610b54610dcf565b610b5c610de5565b60c435926064359290916001600160a01b039081861686036100a357610b928291610b8b4260e4351015610e5c565b848661101a565b6040516323b872dd60e01b8152336004820152306024820152604481018790526020949290911684826064816000855af1801561023657600097604093602492610d5c575b5083519889938492639c8f9f2360e01b845260048401525af1948515610236578692600091600097610d1f575b50828116958082169387851015610d1857505b168203610d125794935b60843586101580610d06575b610c3690610eef565b60405163a9059cbb60e01b8082526001600160a01b0394909416600482015260248101879052918490839060449082906000905af196871561023657600085948794610cae9a610ce9575b506040519081526001600160a01b0390921660048301526024820193909352968792839182906044820190565b03925af193841561023657604094610ccc575b508351928352820152f35b610ce290823d8411610545576105368183610e92565b5084610cc1565b610cff90873d8911610545576105368183610e92565b508a610c81565b5060a435851015610c2d565b93610c21565b9050610c17565b93509550506040823d604011610d54575b81610d3d60409383610e92565b810103126100a35781838793519101519588610c04565b3d9150610d30565b610d7290883d8a11610545576105368183610e92565b508a610bd7565b346100a35760603660031901126100a3576020610da7610d97610db9565b610d9f610dcf565b610184610de5565b6040516001600160a01b039091168152f35b600435906001600160a01b03821682036100a357565b602435906001600160a01b03821682036100a357565b6044359062ffffff821682036100a357565b9181601f840112156100a35782359167ffffffffffffffff83116100a3576020808501948460051b0101116100a357565b90815180825260208080930193019160005b828110610e48575050505090565b835185529381019392810192600101610e3a565b15610e6357565b60405162461bcd60e51b8152602060048201526007602482015266115e1c1a5c995960ca1b6044820152606490fd5b90601f8019910116810190811067ffffffffffffffff821117610eb457604052565b634e487b7160e01b600052604160045260246000fd5b908160209103126100a3575180151581036100a35790565b9190820391821161054c57565b15610ef657565b60405162461bcd60e51b8152602060048201526013602482015272125b9cdd59999a58da595b9d081bdd5d1c1d5d606a1b6044820152606490fd5b15610f3857565b60405162461bcd60e51b815260206004820152600c60248201526b092dcecc2d8d2c840e0c2e8d60a31b6044820152606490fd5b67ffffffffffffffff8111610eb45760051b60200190565b90610f8e82610f6c565b610f9b6040519182610e92565b8281528092610fac601f1991610f6c565b0190602036910137565b8051156106d25760200190565b80518210156106d25760209160051b010190565b91908110156106d25760051b0190565b356001600160a01b03811681036100a35790565b600019811461054c5760010190565b3562ffffff811681036100a35790565b6001600160a01b039290919083808316818516101561111c5762ffffff925b604051630b4c774160e11b815294821660048601521660248401521660448201526020816064817f000000000000000000000000000000000000000000000000000000000000000086165afa908115610236576000916110db575b50908116156110a05790565b60405162461bcd60e51b8152602060048201526013602482015272141bdbdb08191bd95cc81b9bdd08195e1a5cdd606a1b6044820152606490fd5b6020813d8211611114575b816110f360209383610e92565b81010312611110575190828216820361110d575038611094565b80fd5b5080fd5b3d91506110e6565b62ffffff929361103956fea264697066735822122004969e1b44b11cc59e0f02b2eae52bda894b11712624882c7336b0f5140e985564736f6c63430008140033",
  "linkReferences": {},
  "deployedLinkReferences": {}
}